Archive member included to satisfy reference by file (symbol)

C:\J-Tagit\arduino-1.8.18\portable\sketchbook\arduino\Eicon\F103CBT6-BluePill-HelloW\build\core\core.a(wiring_digital.c.o)
                              C:\J-Tagit\arduino-1.8.18\portable\sketchbook\arduino\Eicon\F103CBT6-BluePill-HelloW\build\sketch\F103CBT6-BluePill-HelloW.ino.cpp.o (pinMode)
C:\J-Tagit\arduino-1.8.18\portable\sketchbook\arduino\Eicon\F103CBT6-BluePill-HelloW\build\core\core.a(wiring_time.c.o)
                              C:\J-Tagit\arduino-1.8.18\portable\sketchbook\arduino\Eicon\F103CBT6-BluePill-HelloW\build\sketch\F103CBT6-BluePill-HelloW.ino.cpp.o (delay)
C:\J-Tagit\arduino-1.8.18\portable\sketchbook\arduino\Eicon\F103CBT6-BluePill-HelloW\build\core\core.a(HardwareSerial.cpp.o)
                              C:\J-Tagit\arduino-1.8.18\portable\sketchbook\arduino\Eicon\F103CBT6-BluePill-HelloW\build\sketch\F103CBT6-BluePill-HelloW.ino.cpp.o (HardwareSerial::begin(unsigned long, unsigned char))
C:\J-Tagit\arduino-1.8.18\portable\sketchbook\arduino\Eicon\F103CBT6-BluePill-HelloW\build\core\core.a(HardwareTimer.cpp.o)
                              C:\J-Tagit\arduino-1.8.18\portable\sketchbook\arduino\Eicon\F103CBT6-BluePill-HelloW\build\libraries\SrcWrapper\stm32\analog.cpp.o (HardwareTimer::resume())
C:\J-Tagit\arduino-1.8.18\portable\sketchbook\arduino\Eicon\F103CBT6-BluePill-HelloW\build\core\core.a(Print.cpp.o)
                              C:\J-Tagit\arduino-1.8.18\portable\sketchbook\arduino\Eicon\F103CBT6-BluePill-HelloW\build\sketch\F103CBT6-BluePill-HelloW.ino.cpp.o (Print::println(char const*))
C:\J-Tagit\arduino-1.8.18\portable\sketchbook\arduino\Eicon\F103CBT6-BluePill-HelloW\build\core\core.a(Stream.cpp.o)
                              C:\J-Tagit\arduino-1.8.18\portable\sketchbook\arduino\Eicon\F103CBT6-BluePill-HelloW\build\core\core.a(HardwareSerial.cpp.o) (Stream::readBytes(char*, unsigned int))
C:\J-Tagit\arduino-1.8.18\portable\sketchbook\arduino\Eicon\F103CBT6-BluePill-HelloW\build\core\core.a(WString.cpp.o)
                              C:\J-Tagit\arduino-1.8.18\portable\sketchbook\arduino\Eicon\F103CBT6-BluePill-HelloW\build\core\core.a(Stream.cpp.o) (String::String(char const*))
C:\J-Tagit\arduino-1.8.18\portable\sketchbook\arduino\Eicon\F103CBT6-BluePill-HelloW\build\core\core.a(abi.cpp.o)
                              C:\J-Tagit\arduino-1.8.18\portable\sketchbook\arduino\Eicon\F103CBT6-BluePill-HelloW\build\core\core.a(Print.cpp.o) (__cxa_pure_virtual)
C:\J-Tagit\arduino-1.8.18\portable\sketchbook\arduino\Eicon\F103CBT6-BluePill-HelloW\build\core\core.a(main.cpp.o)
                              c:/j-tagit/arduino-1.8.18/portable/packages/eicon/tools/xpack-arm-none-eabi-gcc/bin/../lib/gcc/arm-none-eabi/10.3.1/../../../../arm-none-eabi/lib/thumb/v7-m/nofp/crt0.o (main)
C:\J-Tagit\arduino-1.8.18\portable\sketchbook\arduino\Eicon\F103CBT6-BluePill-HelloW\build\core\core.a(new.cpp.o)
                              C:\J-Tagit\arduino-1.8.18\portable\sketchbook\arduino\Eicon\F103CBT6-BluePill-HelloW\build\libraries\SrcWrapper\stm32\analog.cpp.o (operator new(unsigned int))
C:\J-Tagit\arduino-1.8.18\portable\sketchbook\arduino\Eicon\F103CBT6-BluePill-HelloW\build\core\core.a(dtostrf.c.o)
                              C:\J-Tagit\arduino-1.8.18\portable\sketchbook\arduino\Eicon\F103CBT6-BluePill-HelloW\build\core\core.a(WString.cpp.o) (dtostrf)
C:\J-Tagit\arduino-1.8.18\portable\sketchbook\arduino\Eicon\F103CBT6-BluePill-HelloW\build\core\core.a(board.c.o)
                              C:\J-Tagit\arduino-1.8.18\portable\sketchbook\arduino\Eicon\F103CBT6-BluePill-HelloW\build\core\core.a(main.cpp.o) (init)
C:\J-Tagit\arduino-1.8.18\portable\sketchbook\arduino\Eicon\F103CBT6-BluePill-HelloW\build\core\core.a(hooks.c.o)
                              C:\J-Tagit\arduino-1.8.18\portable\sketchbook\arduino\Eicon\F103CBT6-BluePill-HelloW\build\core\core.a(wiring_time.c.o) (yield)
C:\J-Tagit\arduino-1.8.18\portable\sketchbook\arduino\Eicon\F103CBT6-BluePill-HelloW\build\core\core.a(itoa.c.o)
                              C:\J-Tagit\arduino-1.8.18\portable\sketchbook\arduino\Eicon\F103CBT6-BluePill-HelloW\build\core\core.a(WString.cpp.o) (ltoa)
C:\J-Tagit\arduino-1.8.18\portable\sketchbook\arduino\Eicon\F103CBT6-BluePill-HelloW\build\core\core.a(pins_arduino.c.o)
                              C:\J-Tagit\arduino-1.8.18\portable\sketchbook\arduino\Eicon\F103CBT6-BluePill-HelloW\build\core\core.a(HardwareTimer.cpp.o) (pinNametoDigitalPin)
C:\J-Tagit\arduino-1.8.18\portable\sketchbook\arduino\Eicon\F103CBT6-BluePill-HelloW\build\core\core.a(wiring_analog.c.o)
                              C:\J-Tagit\arduino-1.8.18\portable\sketchbook\arduino\Eicon\F103CBT6-BluePill-HelloW\build\core\core.a(wiring_digital.c.o) (g_anOutputPinConfigured)
C:\J-Tagit\arduino-1.8.18\portable\sketchbook\arduino\Eicon\F103CBT6-BluePill-HelloW\build\core\core.a(WSerial.cpp.o)
                              C:\J-Tagit\arduino-1.8.18\portable\sketchbook\arduino\Eicon\F103CBT6-BluePill-HelloW\build\core\core.a(main.cpp.o) (serialEventRun())
c:/j-tagit/arduino-1.8.18/portable/packages/eicon/tools/xpack-arm-none-eabi-gcc/bin/../lib/gcc/arm-none-eabi/10.3.1/../../../../arm-none-eabi/lib/thumb/v7-m/nofp\libc_nano.a(lib_a-atof.o)
                              C:\J-Tagit\arduino-1.8.18\portable\sketchbook\arduino\Eicon\F103CBT6-BluePill-HelloW\build\core\core.a(WString.cpp.o) (atof)
c:/j-tagit/arduino-1.8.18/portable/packages/eicon/tools/xpack-arm-none-eabi-gcc/bin/../lib/gcc/arm-none-eabi/10.3.1/../../../../arm-none-eabi/lib/thumb/v7-m/nofp\libc_nano.a(lib_a-atol.o)
                              C:\J-Tagit\arduino-1.8.18\portable\sketchbook\arduino\Eicon\F103CBT6-BluePill-HelloW\build\core\core.a(WString.cpp.o) (atol)
c:/j-tagit/arduino-1.8.18/portable/packages/eicon/tools/xpack-arm-none-eabi-gcc/bin/../lib/gcc/arm-none-eabi/10.3.1/../../../../arm-none-eabi/lib/thumb/v7-m/nofp\libc_nano.a(lib_a-exit.o)
                              c:/j-tagit/arduino-1.8.18/portable/packages/eicon/tools/xpack-arm-none-eabi-gcc/bin/../lib/gcc/arm-none-eabi/10.3.1/../../../../arm-none-eabi/lib/thumb/v7-m/nofp/crt0.o (exit)
c:/j-tagit/arduino-1.8.18/portable/packages/eicon/tools/xpack-arm-none-eabi-gcc/bin/../lib/gcc/arm-none-eabi/10.3.1/../../../../arm-none-eabi/lib/thumb/v7-m/nofp\libc_nano.a(lib_a-impure.o)
                              c:/j-tagit/arduino-1.8.18/portable/packages/eicon/tools/xpack-arm-none-eabi-gcc/bin/../lib/gcc/arm-none-eabi/10.3.1/../../../../arm-none-eabi/lib/thumb/v7-m/nofp\libc_nano.a(lib_a-exit.o) (_global_impure_ptr)
c:/j-tagit/arduino-1.8.18/portable/packages/eicon/tools/xpack-arm-none-eabi-gcc/bin/../lib/gcc/arm-none-eabi/10.3.1/../../../../arm-none-eabi/lib/thumb/v7-m/nofp\libc_nano.a(lib_a-init.o)
                              c:/j-tagit/arduino-1.8.18/portable/packages/eicon/tools/xpack-arm-none-eabi-gcc/bin/../lib/gcc/arm-none-eabi/10.3.1/../../../../arm-none-eabi/lib/thumb/v7-m/nofp/crt0.o (__libc_init_array)
c:/j-tagit/arduino-1.8.18/portable/packages/eicon/tools/xpack-arm-none-eabi-gcc/bin/../lib/gcc/arm-none-eabi/10.3.1/../../../../arm-none-eabi/lib/thumb/v7-m/nofp\libc_nano.a(lib_a-isspace.o)
                              C:\J-Tagit\arduino-1.8.18\portable\sketchbook\arduino\Eicon\F103CBT6-BluePill-HelloW\build\core\core.a(WString.cpp.o) (isspace)
c:/j-tagit/arduino-1.8.18/portable/packages/eicon/tools/xpack-arm-none-eabi-gcc/bin/../lib/gcc/arm-none-eabi/10.3.1/../../../../arm-none-eabi/lib/thumb/v7-m/nofp\libc_nano.a(lib_a-malloc.o)
                              C:\J-Tagit\arduino-1.8.18\portable\sketchbook\arduino\Eicon\F103CBT6-BluePill-HelloW\build\core\core.a(new.cpp.o) (malloc)
c:/j-tagit/arduino-1.8.18/portable/packages/eicon/tools/xpack-arm-none-eabi-gcc/bin/../lib/gcc/arm-none-eabi/10.3.1/../../../../arm-none-eabi/lib/thumb/v7-m/nofp\libc_nano.a(lib_a-memcpy-stub.o)
                              C:\J-Tagit\arduino-1.8.18\portable\sketchbook\arduino\Eicon\F103CBT6-BluePill-HelloW\build\core\core.a(HardwareSerial.cpp.o) (memcpy)
c:/j-tagit/arduino-1.8.18/portable/packages/eicon/tools/xpack-arm-none-eabi-gcc/bin/../lib/gcc/arm-none-eabi/10.3.1/../../../../arm-none-eabi/lib/thumb/v7-m/nofp\libc_nano.a(lib_a-memmove.o)
                              C:\J-Tagit\arduino-1.8.18\portable\sketchbook\arduino\Eicon\F103CBT6-BluePill-HelloW\build\core\core.a(WString.cpp.o) (memmove)
c:/j-tagit/arduino-1.8.18/portable/packages/eicon/tools/xpack-arm-none-eabi-gcc/bin/../lib/gcc/arm-none-eabi/10.3.1/../../../../arm-none-eabi/lib/thumb/v7-m/nofp\libc_nano.a(lib_a-memset.o)
                              c:/j-tagit/arduino-1.8.18/portable/packages/eicon/tools/xpack-arm-none-eabi-gcc/bin/../lib/gcc/arm-none-eabi/10.3.1/../../../../arm-none-eabi/lib/thumb/v7-m/nofp/crt0.o (memset)
c:/j-tagit/arduino-1.8.18/portable/packages/eicon/tools/xpack-arm-none-eabi-gcc/bin/../lib/gcc/arm-none-eabi/10.3.1/../../../../arm-none-eabi/lib/thumb/v7-m/nofp\libc_nano.a(lib_a-nano-freer.o)
                              c:/j-tagit/arduino-1.8.18/portable/packages/eicon/tools/xpack-arm-none-eabi-gcc/bin/../lib/gcc/arm-none-eabi/10.3.1/../../../../arm-none-eabi/lib/thumb/v7-m/nofp\libc_nano.a(lib_a-malloc.o) (_free_r)
c:/j-tagit/arduino-1.8.18/portable/packages/eicon/tools/xpack-arm-none-eabi-gcc/bin/../lib/gcc/arm-none-eabi/10.3.1/../../../../arm-none-eabi/lib/thumb/v7-m/nofp\libc_nano.a(lib_a-nano-mallocr.o)
                              c:/j-tagit/arduino-1.8.18/portable/packages/eicon/tools/xpack-arm-none-eabi-gcc/bin/../lib/gcc/arm-none-eabi/10.3.1/../../../../arm-none-eabi/lib/thumb/v7-m/nofp\libc_nano.a(lib_a-malloc.o) (_malloc_r)
c:/j-tagit/arduino-1.8.18/portable/packages/eicon/tools/xpack-arm-none-eabi-gcc/bin/../lib/gcc/arm-none-eabi/10.3.1/../../../../arm-none-eabi/lib/thumb/v7-m/nofp\libc_nano.a(lib_a-realloc.o)
                              C:\J-Tagit\arduino-1.8.18\portable\sketchbook\arduino\Eicon\F103CBT6-BluePill-HelloW\build\core\core.a(WString.cpp.o) (realloc)
c:/j-tagit/arduino-1.8.18/portable/packages/eicon/tools/xpack-arm-none-eabi-gcc/bin/../lib/gcc/arm-none-eabi/10.3.1/../../../../arm-none-eabi/lib/thumb/v7-m/nofp\libc_nano.a(lib_a-reent.o)
                              C:\J-Tagit\arduino-1.8.18\portable\sketchbook\arduino\Eicon\F103CBT6-BluePill-HelloW\build\libraries\SrcWrapper\syscalls.c.o (errno)
c:/j-tagit/arduino-1.8.18/portable/packages/eicon/tools/xpack-arm-none-eabi-gcc/bin/../lib/gcc/arm-none-eabi/10.3.1/../../../../arm-none-eabi/lib/thumb/v7-m/nofp\libc_nano.a(lib_a-sbrkr.o)
                              c:/j-tagit/arduino-1.8.18/portable/packages/eicon/tools/xpack-arm-none-eabi-gcc/bin/../lib/gcc/arm-none-eabi/10.3.1/../../../../arm-none-eabi/lib/thumb/v7-m/nofp\libc_nano.a(lib_a-nano-mallocr.o) (_sbrk_r)
c:/j-tagit/arduino-1.8.18/portable/packages/eicon/tools/xpack-arm-none-eabi-gcc/bin/../lib/gcc/arm-none-eabi/10.3.1/../../../../arm-none-eabi/lib/thumb/v7-m/nofp\libc_nano.a(lib_a-sprintf.o)
                              C:\J-Tagit\arduino-1.8.18\portable\sketchbook\arduino\Eicon\F103CBT6-BluePill-HelloW\build\core\core.a(dtostrf.c.o) (sprintf)
c:/j-tagit/arduino-1.8.18/portable/packages/eicon/tools/xpack-arm-none-eabi-gcc/bin/../lib/gcc/arm-none-eabi/10.3.1/../../../../arm-none-eabi/lib/thumb/v7-m/nofp\libc_nano.a(lib_a-strcat.o)
                              C:\J-Tagit\arduino-1.8.18\portable\sketchbook\arduino\Eicon\F103CBT6-BluePill-HelloW\build\core\core.a(dtostrf.c.o) (strcat)
c:/j-tagit/arduino-1.8.18/portable/packages/eicon/tools/xpack-arm-none-eabi-gcc/bin/../lib/gcc/arm-none-eabi/10.3.1/../../../../arm-none-eabi/lib/thumb/v7-m/nofp\libc_nano.a(lib_a-strchr.o)
                              C:\J-Tagit\arduino-1.8.18\portable\sketchbook\arduino\Eicon\F103CBT6-BluePill-HelloW\build\core\core.a(WString.cpp.o) (strchr)
c:/j-tagit/arduino-1.8.18/portable/packages/eicon/tools/xpack-arm-none-eabi-gcc/bin/../lib/gcc/arm-none-eabi/10.3.1/../../../../arm-none-eabi/lib/thumb/v7-m/nofp\libc_nano.a(lib_a-strcmp.o)
                              C:\J-Tagit\arduino-1.8.18\portable\sketchbook\arduino\Eicon\F103CBT6-BluePill-HelloW\build\core\core.a(WString.cpp.o) (strcmp)
c:/j-tagit/arduino-1.8.18/portable/packages/eicon/tools/xpack-arm-none-eabi-gcc/bin/../lib/gcc/arm-none-eabi/10.3.1/../../../../arm-none-eabi/lib/thumb/v7-m/nofp\libc_nano.a(lib_a-strcpy.o)
                              C:\J-Tagit\arduino-1.8.18\portable\sketchbook\arduino\Eicon\F103CBT6-BluePill-HelloW\build\core\core.a(WString.cpp.o) (strcpy)
c:/j-tagit/arduino-1.8.18/portable/packages/eicon/tools/xpack-arm-none-eabi-gcc/bin/../lib/gcc/arm-none-eabi/10.3.1/../../../../arm-none-eabi/lib/thumb/v7-m/nofp\libc_nano.a(lib_a-strlen.o)
                              C:\J-Tagit\arduino-1.8.18\portable\sketchbook\arduino\Eicon\F103CBT6-BluePill-HelloW\build\core\core.a(Print.cpp.o) (strlen)
c:/j-tagit/arduino-1.8.18/portable/packages/eicon/tools/xpack-arm-none-eabi-gcc/bin/../lib/gcc/arm-none-eabi/10.3.1/../../../../arm-none-eabi/lib/thumb/v7-m/nofp\libc_nano.a(lib_a-strncmp.o)
                              C:\J-Tagit\arduino-1.8.18\portable\sketchbook\arduino\Eicon\F103CBT6-BluePill-HelloW\build\core\core.a(WString.cpp.o) (strncmp)
c:/j-tagit/arduino-1.8.18/portable/packages/eicon/tools/xpack-arm-none-eabi-gcc/bin/../lib/gcc/arm-none-eabi/10.3.1/../../../../arm-none-eabi/lib/thumb/v7-m/nofp\libc_nano.a(lib_a-strncpy.o)
                              C:\J-Tagit\arduino-1.8.18\portable\sketchbook\arduino\Eicon\F103CBT6-BluePill-HelloW\build\core\core.a(WString.cpp.o) (strncpy)
c:/j-tagit/arduino-1.8.18/portable/packages/eicon/tools/xpack-arm-none-eabi-gcc/bin/../lib/gcc/arm-none-eabi/10.3.1/../../../../arm-none-eabi/lib/thumb/v7-m/nofp\libc_nano.a(lib_a-strrchr.o)
                              C:\J-Tagit\arduino-1.8.18\portable\sketchbook\arduino\Eicon\F103CBT6-BluePill-HelloW\build\core\core.a(WString.cpp.o) (strrchr)
c:/j-tagit/arduino-1.8.18/portable/packages/eicon/tools/xpack-arm-none-eabi-gcc/bin/../lib/gcc/arm-none-eabi/10.3.1/../../../../arm-none-eabi/lib/thumb/v7-m/nofp\libc_nano.a(lib_a-strstr.o)
                              C:\J-Tagit\arduino-1.8.18\portable\sketchbook\arduino\Eicon\F103CBT6-BluePill-HelloW\build\core\core.a(WString.cpp.o) (strstr)
c:/j-tagit/arduino-1.8.18/portable/packages/eicon/tools/xpack-arm-none-eabi-gcc/bin/../lib/gcc/arm-none-eabi/10.3.1/../../../../arm-none-eabi/lib/thumb/v7-m/nofp\libc_nano.a(lib_a-strtod.o)
                              c:/j-tagit/arduino-1.8.18/portable/packages/eicon/tools/xpack-arm-none-eabi-gcc/bin/../lib/gcc/arm-none-eabi/10.3.1/../../../../arm-none-eabi/lib/thumb/v7-m/nofp\libc_nano.a(lib_a-atof.o) (strtod)
c:/j-tagit/arduino-1.8.18/portable/packages/eicon/tools/xpack-arm-none-eabi-gcc/bin/../lib/gcc/arm-none-eabi/10.3.1/../../../../arm-none-eabi/lib/thumb/v7-m/nofp\libc_nano.a(lib_a-strtol.o)
                              c:/j-tagit/arduino-1.8.18/portable/packages/eicon/tools/xpack-arm-none-eabi-gcc/bin/../lib/gcc/arm-none-eabi/10.3.1/../../../../arm-none-eabi/lib/thumb/v7-m/nofp\libc_nano.a(lib_a-atol.o) (_strtol_r)
c:/j-tagit/arduino-1.8.18/portable/packages/eicon/tools/xpack-arm-none-eabi-gcc/bin/../lib/gcc/arm-none-eabi/10.3.1/../../../../arm-none-eabi/lib/thumb/v7-m/nofp\libc_nano.a(lib_a-tolower.o)
                              C:\J-Tagit\arduino-1.8.18\portable\sketchbook\arduino\Eicon\F103CBT6-BluePill-HelloW\build\core\core.a(WString.cpp.o) (tolower)
c:/j-tagit/arduino-1.8.18/portable/packages/eicon/tools/xpack-arm-none-eabi-gcc/bin/../lib/gcc/arm-none-eabi/10.3.1/../../../../arm-none-eabi/lib/thumb/v7-m/nofp\libc_nano.a(lib_a-toupper.o)
                              C:\J-Tagit\arduino-1.8.18\portable\sketchbook\arduino\Eicon\F103CBT6-BluePill-HelloW\build\core\core.a(WString.cpp.o) (toupper)
c:/j-tagit/arduino-1.8.18/portable/packages/eicon/tools/xpack-arm-none-eabi-gcc/bin/../lib/gcc/arm-none-eabi/10.3.1/../../../../arm-none-eabi/lib/thumb/v7-m/nofp\libc_nano.a(lib_a-vdprintf.o)
                              C:\J-Tagit\arduino-1.8.18\portable\sketchbook\arduino\Eicon\F103CBT6-BluePill-HelloW\build\core\core.a(Print.cpp.o) (vdprintf)
c:/j-tagit/arduino-1.8.18/portable/packages/eicon/tools/xpack-arm-none-eabi-gcc/bin/../lib/gcc/arm-none-eabi/10.3.1/../../../../arm-none-eabi/lib/thumb/v7-m/nofp\libc_nano.a(lib_a-writer.o)
                              c:/j-tagit/arduino-1.8.18/portable/packages/eicon/tools/xpack-arm-none-eabi-gcc/bin/../lib/gcc/arm-none-eabi/10.3.1/../../../../arm-none-eabi/lib/thumb/v7-m/nofp\libc_nano.a(lib_a-vdprintf.o) (_write_r)
c:/j-tagit/arduino-1.8.18/portable/packages/eicon/tools/xpack-arm-none-eabi-gcc/bin/../lib/gcc/arm-none-eabi/10.3.1/../../../../arm-none-eabi/lib/thumb/v7-m/nofp\libc_nano.a(lib_a-ctype_.o)
                              c:/j-tagit/arduino-1.8.18/portable/packages/eicon/tools/xpack-arm-none-eabi-gcc/bin/../lib/gcc/arm-none-eabi/10.3.1/../../../../arm-none-eabi/lib/thumb/v7-m/nofp\libc_nano.a(lib_a-isspace.o) (_ctype_)
c:/j-tagit/arduino-1.8.18/portable/packages/eicon/tools/xpack-arm-none-eabi-gcc/bin/../lib/gcc/arm-none-eabi/10.3.1/../../../../arm-none-eabi/lib/thumb/v7-m/nofp\libc_nano.a(lib_a-errno.o)
                              c:/j-tagit/arduino-1.8.18/portable/packages/eicon/tools/xpack-arm-none-eabi-gcc/bin/../lib/gcc/arm-none-eabi/10.3.1/../../../../arm-none-eabi/lib/thumb/v7-m/nofp\libc_nano.a(lib_a-strtol.o) (__errno)
c:/j-tagit/arduino-1.8.18/portable/packages/eicon/tools/xpack-arm-none-eabi-gcc/bin/../lib/gcc/arm-none-eabi/10.3.1/../../../../arm-none-eabi/lib/thumb/v7-m/nofp\libc_nano.a(lib_a-findfp.o)
                              c:/j-tagit/arduino-1.8.18/portable/packages/eicon/tools/xpack-arm-none-eabi-gcc/bin/../lib/gcc/arm-none-eabi/10.3.1/../../../../arm-none-eabi/lib/thumb/v7-m/nofp\libc_nano.a(lib_a-vdprintf.o) (__sinit)
c:/j-tagit/arduino-1.8.18/portable/packages/eicon/tools/xpack-arm-none-eabi-gcc/bin/../lib/gcc/arm-none-eabi/10.3.1/../../../../arm-none-eabi/lib/thumb/v7-m/nofp\libc_nano.a(lib_a-fwalk.o)
                              c:/j-tagit/arduino-1.8.18/portable/packages/eicon/tools/xpack-arm-none-eabi-gcc/bin/../lib/gcc/arm-none-eabi/10.3.1/../../../../arm-none-eabi/lib/thumb/v7-m/nofp\libc_nano.a(lib_a-findfp.o) (_fwalk)
c:/j-tagit/arduino-1.8.18/portable/packages/eicon/tools/xpack-arm-none-eabi-gcc/bin/../lib/gcc/arm-none-eabi/10.3.1/../../../../arm-none-eabi/lib/thumb/v7-m/nofp\libc_nano.a(lib_a-gdtoa-gethex.o)
                              c:/j-tagit/arduino-1.8.18/portable/packages/eicon/tools/xpack-arm-none-eabi-gcc/bin/../lib/gcc/arm-none-eabi/10.3.1/../../../../arm-none-eabi/lib/thumb/v7-m/nofp\libc_nano.a(lib_a-strtod.o) (__gethex)
c:/j-tagit/arduino-1.8.18/portable/packages/eicon/tools/xpack-arm-none-eabi-gcc/bin/../lib/gcc/arm-none-eabi/10.3.1/../../../../arm-none-eabi/lib/thumb/v7-m/nofp\libc_nano.a(lib_a-gdtoa-hexnan.o)
                              c:/j-tagit/arduino-1.8.18/portable/packages/eicon/tools/xpack-arm-none-eabi-gcc/bin/../lib/gcc/arm-none-eabi/10.3.1/../../../../arm-none-eabi/lib/thumb/v7-m/nofp\libc_nano.a(lib_a-strtod.o) (__match)
c:/j-tagit/arduino-1.8.18/portable/packages/eicon/tools/xpack-arm-none-eabi-gcc/bin/../lib/gcc/arm-none-eabi/10.3.1/../../../../arm-none-eabi/lib/thumb/v7-m/nofp\libc_nano.a(lib_a-lnumeric.o)
                              c:/j-tagit/arduino-1.8.18/portable/packages/eicon/tools/xpack-arm-none-eabi-gcc/bin/../lib/gcc/arm-none-eabi/10.3.1/../../../../arm-none-eabi/lib/thumb/v7-m/nofp\libc_nano.a(lib_a-strtod.o) (_C_numeric_locale)
c:/j-tagit/arduino-1.8.18/portable/packages/eicon/tools/xpack-arm-none-eabi-gcc/bin/../lib/gcc/arm-none-eabi/10.3.1/../../../../arm-none-eabi/lib/thumb/v7-m/nofp\libc_nano.a(lib_a-locale.o)
                              c:/j-tagit/arduino-1.8.18/portable/packages/eicon/tools/xpack-arm-none-eabi-gcc/bin/../lib/gcc/arm-none-eabi/10.3.1/../../../../arm-none-eabi/lib/thumb/v7-m/nofp\libc_nano.a(lib_a-strtod.o) (__global_locale)
c:/j-tagit/arduino-1.8.18/portable/packages/eicon/tools/xpack-arm-none-eabi-gcc/bin/../lib/gcc/arm-none-eabi/10.3.1/../../../../arm-none-eabi/lib/thumb/v7-m/nofp\libc_nano.a(lib_a-lock.o)
                              c:/j-tagit/arduino-1.8.18/portable/packages/eicon/tools/xpack-arm-none-eabi-gcc/bin/../lib/gcc/arm-none-eabi/10.3.1/../../../../arm-none-eabi/lib/thumb/v7-m/nofp\libc_nano.a(lib_a-findfp.o) (__retarget_lock_init_recursive)
c:/j-tagit/arduino-1.8.18/portable/packages/eicon/tools/xpack-arm-none-eabi-gcc/bin/../lib/gcc/arm-none-eabi/10.3.1/../../../../arm-none-eabi/lib/thumb/v7-m/nofp\libc_nano.a(lib_a-mbtowc_r.o)
                              c:/j-tagit/arduino-1.8.18/portable/packages/eicon/tools/xpack-arm-none-eabi-gcc/bin/../lib/gcc/arm-none-eabi/10.3.1/../../../../arm-none-eabi/lib/thumb/v7-m/nofp\libc_nano.a(lib_a-locale.o) (__ascii_mbtowc)
c:/j-tagit/arduino-1.8.18/portable/packages/eicon/tools/xpack-arm-none-eabi-gcc/bin/../lib/gcc/arm-none-eabi/10.3.1/../../../../arm-none-eabi/lib/thumb/v7-m/nofp\libc_nano.a(lib_a-mlock.o)
                              c:/j-tagit/arduino-1.8.18/portable/packages/eicon/tools/xpack-arm-none-eabi-gcc/bin/../lib/gcc/arm-none-eabi/10.3.1/../../../../arm-none-eabi/lib/thumb/v7-m/nofp\libc_nano.a(lib_a-nano-freer.o) (__malloc_lock)
c:/j-tagit/arduino-1.8.18/portable/packages/eicon/tools/xpack-arm-none-eabi-gcc/bin/../lib/gcc/arm-none-eabi/10.3.1/../../../../arm-none-eabi/lib/thumb/v7-m/nofp\libc_nano.a(lib_a-mprec.o)
                              c:/j-tagit/arduino-1.8.18/portable/packages/eicon/tools/xpack-arm-none-eabi-gcc/bin/../lib/gcc/arm-none-eabi/10.3.1/../../../../arm-none-eabi/lib/thumb/v7-m/nofp\libc_nano.a(lib_a-strtod.o) (_Balloc)
c:/j-tagit/arduino-1.8.18/portable/packages/eicon/tools/xpack-arm-none-eabi-gcc/bin/../lib/gcc/arm-none-eabi/10.3.1/../../../../arm-none-eabi/lib/thumb/v7-m/nofp\libc_nano.a(lib_a-nano-callocr.o)
                              c:/j-tagit/arduino-1.8.18/portable/packages/eicon/tools/xpack-arm-none-eabi-gcc/bin/../lib/gcc/arm-none-eabi/10.3.1/../../../../arm-none-eabi/lib/thumb/v7-m/nofp\libc_nano.a(lib_a-mprec.o) (_calloc_r)
c:/j-tagit/arduino-1.8.18/portable/packages/eicon/tools/xpack-arm-none-eabi-gcc/bin/../lib/gcc/arm-none-eabi/10.3.1/../../../../arm-none-eabi/lib/thumb/v7-m/nofp\libc_nano.a(lib_a-nano-reallocr.o)
                              c:/j-tagit/arduino-1.8.18/portable/packages/eicon/tools/xpack-arm-none-eabi-gcc/bin/../lib/gcc/arm-none-eabi/10.3.1/../../../../arm-none-eabi/lib/thumb/v7-m/nofp\libc_nano.a(lib_a-realloc.o) (_realloc_r)
c:/j-tagit/arduino-1.8.18/portable/packages/eicon/tools/xpack-arm-none-eabi-gcc/bin/../lib/gcc/arm-none-eabi/10.3.1/../../../../arm-none-eabi/lib/thumb/v7-m/nofp\libc_nano.a(lib_a-nano-svfprintf.o)
                              c:/j-tagit/arduino-1.8.18/portable/packages/eicon/tools/xpack-arm-none-eabi-gcc/bin/../lib/gcc/arm-none-eabi/10.3.1/../../../../arm-none-eabi/lib/thumb/v7-m/nofp\libc_nano.a(lib_a-sprintf.o) (_svfprintf_r)
c:/j-tagit/arduino-1.8.18/portable/packages/eicon/tools/xpack-arm-none-eabi-gcc/bin/../lib/gcc/arm-none-eabi/10.3.1/../../../../arm-none-eabi/lib/thumb/v7-m/nofp\libc_nano.a(lib_a-nano-vfprintf_i.o)
                              c:/j-tagit/arduino-1.8.18/portable/packages/eicon/tools/xpack-arm-none-eabi-gcc/bin/../lib/gcc/arm-none-eabi/10.3.1/../../../../arm-none-eabi/lib/thumb/v7-m/nofp\libc_nano.a(lib_a-nano-svfprintf.o) (_printf_i)
c:/j-tagit/arduino-1.8.18/portable/packages/eicon/tools/xpack-arm-none-eabi-gcc/bin/../lib/gcc/arm-none-eabi/10.3.1/../../../../arm-none-eabi/lib/thumb/v7-m/nofp\libc_nano.a(lib_a-sf_nan.o)
                              c:/j-tagit/arduino-1.8.18/portable/packages/eicon/tools/xpack-arm-none-eabi-gcc/bin/../lib/gcc/arm-none-eabi/10.3.1/../../../../arm-none-eabi/lib/thumb/v7-m/nofp\libc_nano.a(lib_a-strtod.o) (nanf)
c:/j-tagit/arduino-1.8.18/portable/packages/eicon/tools/xpack-arm-none-eabi-gcc/bin/../lib/gcc/arm-none-eabi/10.3.1/../../../../arm-none-eabi/lib/thumb/v7-m/nofp\libc_nano.a(lib_a-s_nan.o)
                              c:/j-tagit/arduino-1.8.18/portable/packages/eicon/tools/xpack-arm-none-eabi-gcc/bin/../lib/gcc/arm-none-eabi/10.3.1/../../../../arm-none-eabi/lib/thumb/v7-m/nofp\libc_nano.a(lib_a-strtod.o) (nan)
c:/j-tagit/arduino-1.8.18/portable/packages/eicon/tools/xpack-arm-none-eabi-gcc/bin/../lib/gcc/arm-none-eabi/10.3.1/../../../../arm-none-eabi/lib/thumb/v7-m/nofp\libc_nano.a(lib_a-stdio.o)
                              c:/j-tagit/arduino-1.8.18/portable/packages/eicon/tools/xpack-arm-none-eabi-gcc/bin/../lib/gcc/arm-none-eabi/10.3.1/../../../../arm-none-eabi/lib/thumb/v7-m/nofp\libc_nano.a(lib_a-findfp.o) (__sread)
c:/j-tagit/arduino-1.8.18/portable/packages/eicon/tools/xpack-arm-none-eabi-gcc/bin/../lib/gcc/arm-none-eabi/10.3.1/../../../../arm-none-eabi/lib/thumb/v7-m/nofp\libc_nano.a(lib_a-vasnprintf.o)
                              c:/j-tagit/arduino-1.8.18/portable/packages/eicon/tools/xpack-arm-none-eabi-gcc/bin/../lib/gcc/arm-none-eabi/10.3.1/../../../../arm-none-eabi/lib/thumb/v7-m/nofp\libc_nano.a(lib_a-vdprintf.o) (_vasnprintf_r)
c:/j-tagit/arduino-1.8.18/portable/packages/eicon/tools/xpack-arm-none-eabi-gcc/bin/../lib/gcc/arm-none-eabi/10.3.1/../../../../arm-none-eabi/lib/thumb/v7-m/nofp\libc_nano.a(lib_a-wctomb_r.o)
                              c:/j-tagit/arduino-1.8.18/portable/packages/eicon/tools/xpack-arm-none-eabi-gcc/bin/../lib/gcc/arm-none-eabi/10.3.1/../../../../arm-none-eabi/lib/thumb/v7-m/nofp\libc_nano.a(lib_a-locale.o) (__ascii_wctomb)
c:/j-tagit/arduino-1.8.18/portable/packages/eicon/tools/xpack-arm-none-eabi-gcc/bin/../lib/gcc/arm-none-eabi/10.3.1/../../../../arm-none-eabi/lib/thumb/v7-m/nofp\libc_nano.a(lib_a-assert.o)
                              c:/j-tagit/arduino-1.8.18/portable/packages/eicon/tools/xpack-arm-none-eabi-gcc/bin/../lib/gcc/arm-none-eabi/10.3.1/../../../../arm-none-eabi/lib/thumb/v7-m/nofp\libc_nano.a(lib_a-gdtoa-gethex.o) (__assert_func)
c:/j-tagit/arduino-1.8.18/portable/packages/eicon/tools/xpack-arm-none-eabi-gcc/bin/../lib/gcc/arm-none-eabi/10.3.1/../../../../arm-none-eabi/lib/thumb/v7-m/nofp\libc_nano.a(lib_a-closer.o)
                              c:/j-tagit/arduino-1.8.18/portable/packages/eicon/tools/xpack-arm-none-eabi-gcc/bin/../lib/gcc/arm-none-eabi/10.3.1/../../../../arm-none-eabi/lib/thumb/v7-m/nofp\libc_nano.a(lib_a-stdio.o) (_close_r)
c:/j-tagit/arduino-1.8.18/portable/packages/eicon/tools/xpack-arm-none-eabi-gcc/bin/../lib/gcc/arm-none-eabi/10.3.1/../../../../arm-none-eabi/lib/thumb/v7-m/nofp\libc_nano.a(lib_a-fflush.o)
                              c:/j-tagit/arduino-1.8.18/portable/packages/eicon/tools/xpack-arm-none-eabi-gcc/bin/../lib/gcc/arm-none-eabi/10.3.1/../../../../arm-none-eabi/lib/thumb/v7-m/nofp\libc_nano.a(lib_a-findfp.o) (_fflush_r)
c:/j-tagit/arduino-1.8.18/portable/packages/eicon/tools/xpack-arm-none-eabi-gcc/bin/../lib/gcc/arm-none-eabi/10.3.1/../../../../arm-none-eabi/lib/thumb/v7-m/nofp\libc_nano.a(lib_a-fprintf.o)
                              c:/j-tagit/arduino-1.8.18/portable/packages/eicon/tools/xpack-arm-none-eabi-gcc/bin/../lib/gcc/arm-none-eabi/10.3.1/../../../../arm-none-eabi/lib/thumb/v7-m/nofp\libc_nano.a(lib_a-assert.o) (fiprintf)
c:/j-tagit/arduino-1.8.18/portable/packages/eicon/tools/xpack-arm-none-eabi-gcc/bin/../lib/gcc/arm-none-eabi/10.3.1/../../../../arm-none-eabi/lib/thumb/v7-m/nofp\libc_nano.a(lib_a-lseekr.o)
                              c:/j-tagit/arduino-1.8.18/portable/packages/eicon/tools/xpack-arm-none-eabi-gcc/bin/../lib/gcc/arm-none-eabi/10.3.1/../../../../arm-none-eabi/lib/thumb/v7-m/nofp\libc_nano.a(lib_a-stdio.o) (_lseek_r)
c:/j-tagit/arduino-1.8.18/portable/packages/eicon/tools/xpack-arm-none-eabi-gcc/bin/../lib/gcc/arm-none-eabi/10.3.1/../../../../arm-none-eabi/lib/thumb/v7-m/nofp\libc_nano.a(lib_a-memchr-stub.o)
                              c:/j-tagit/arduino-1.8.18/portable/packages/eicon/tools/xpack-arm-none-eabi-gcc/bin/../lib/gcc/arm-none-eabi/10.3.1/../../../../arm-none-eabi/lib/thumb/v7-m/nofp\libc_nano.a(lib_a-nano-svfprintf.o) (memchr)
c:/j-tagit/arduino-1.8.18/portable/packages/eicon/tools/xpack-arm-none-eabi-gcc/bin/../lib/gcc/arm-none-eabi/10.3.1/../../../../arm-none-eabi/lib/thumb/v7-m/nofp\libc_nano.a(lib_a-nano-msizer.o)
                              c:/j-tagit/arduino-1.8.18/portable/packages/eicon/tools/xpack-arm-none-eabi-gcc/bin/../lib/gcc/arm-none-eabi/10.3.1/../../../../arm-none-eabi/lib/thumb/v7-m/nofp\libc_nano.a(lib_a-nano-reallocr.o) (_malloc_usable_size_r)
c:/j-tagit/arduino-1.8.18/portable/packages/eicon/tools/xpack-arm-none-eabi-gcc/bin/../lib/gcc/arm-none-eabi/10.3.1/../../../../arm-none-eabi/lib/thumb/v7-m/nofp\libc_nano.a(lib_a-nano-vfprintf.o)
                              c:/j-tagit/arduino-1.8.18/portable/packages/eicon/tools/xpack-arm-none-eabi-gcc/bin/../lib/gcc/arm-none-eabi/10.3.1/../../../../arm-none-eabi/lib/thumb/v7-m/nofp\libc_nano.a(lib_a-fprintf.o) (_vfprintf_r)
c:/j-tagit/arduino-1.8.18/portable/packages/eicon/tools/xpack-arm-none-eabi-gcc/bin/../lib/gcc/arm-none-eabi/10.3.1/../../../../arm-none-eabi/lib/thumb/v7-m/nofp\libc_nano.a(lib_a-readr.o)
                              c:/j-tagit/arduino-1.8.18/portable/packages/eicon/tools/xpack-arm-none-eabi-gcc/bin/../lib/gcc/arm-none-eabi/10.3.1/../../../../arm-none-eabi/lib/thumb/v7-m/nofp\libc_nano.a(lib_a-stdio.o) (_read_r)
c:/j-tagit/arduino-1.8.18/portable/packages/eicon/tools/xpack-arm-none-eabi-gcc/bin/../lib/gcc/arm-none-eabi/10.3.1/../../../../arm-none-eabi/lib/thumb/v7-m/nofp\libc_nano.a(lib_a-wbuf.o)
                              c:/j-tagit/arduino-1.8.18/portable/packages/eicon/tools/xpack-arm-none-eabi-gcc/bin/../lib/gcc/arm-none-eabi/10.3.1/../../../../arm-none-eabi/lib/thumb/v7-m/nofp\libc_nano.a(lib_a-nano-vfprintf.o) (__swbuf_r)
c:/j-tagit/arduino-1.8.18/portable/packages/eicon/tools/xpack-arm-none-eabi-gcc/bin/../lib/gcc/arm-none-eabi/10.3.1/../../../../arm-none-eabi/lib/thumb/v7-m/nofp\libc_nano.a(lib_a-wsetup.o)
                              c:/j-tagit/arduino-1.8.18/portable/packages/eicon/tools/xpack-arm-none-eabi-gcc/bin/../lib/gcc/arm-none-eabi/10.3.1/../../../../arm-none-eabi/lib/thumb/v7-m/nofp\libc_nano.a(lib_a-nano-vfprintf.o) (__swsetup_r)
c:/j-tagit/arduino-1.8.18/portable/packages/eicon/tools/xpack-arm-none-eabi-gcc/bin/../lib/gcc/arm-none-eabi/10.3.1/../../../../arm-none-eabi/lib/thumb/v7-m/nofp\libc_nano.a(lib_a-abort.o)
                              c:/j-tagit/arduino-1.8.18/portable/packages/eicon/tools/xpack-arm-none-eabi-gcc/bin/../lib/gcc/arm-none-eabi/10.3.1/../../../../arm-none-eabi/lib/thumb/v7-m/nofp\libc_nano.a(lib_a-assert.o) (abort)
c:/j-tagit/arduino-1.8.18/portable/packages/eicon/tools/xpack-arm-none-eabi-gcc/bin/../lib/gcc/arm-none-eabi/10.3.1/../../../../arm-none-eabi/lib/thumb/v7-m/nofp\libc_nano.a(lib_a-fvwrite.o)
                              c:/j-tagit/arduino-1.8.18/portable/packages/eicon/tools/xpack-arm-none-eabi-gcc/bin/../lib/gcc/arm-none-eabi/10.3.1/../../../../arm-none-eabi/lib/thumb/v7-m/nofp\libc_nano.a(lib_a-nano-vfprintf.o) (__sfvwrite_r)
c:/j-tagit/arduino-1.8.18/portable/packages/eicon/tools/xpack-arm-none-eabi-gcc/bin/../lib/gcc/arm-none-eabi/10.3.1/../../../../arm-none-eabi/lib/thumb/v7-m/nofp\libc_nano.a(lib_a-makebuf.o)
                              c:/j-tagit/arduino-1.8.18/portable/packages/eicon/tools/xpack-arm-none-eabi-gcc/bin/../lib/gcc/arm-none-eabi/10.3.1/../../../../arm-none-eabi/lib/thumb/v7-m/nofp\libc_nano.a(lib_a-wsetup.o) (__smakebuf_r)
c:/j-tagit/arduino-1.8.18/portable/packages/eicon/tools/xpack-arm-none-eabi-gcc/bin/../lib/gcc/arm-none-eabi/10.3.1/../../../../arm-none-eabi/lib/thumb/v7-m/nofp\libc_nano.a(lib_a-signal.o)
                              c:/j-tagit/arduino-1.8.18/portable/packages/eicon/tools/xpack-arm-none-eabi-gcc/bin/../lib/gcc/arm-none-eabi/10.3.1/../../../../arm-none-eabi/lib/thumb/v7-m/nofp\libc_nano.a(lib_a-abort.o) (raise)
c:/j-tagit/arduino-1.8.18/portable/packages/eicon/tools/xpack-arm-none-eabi-gcc/bin/../lib/gcc/arm-none-eabi/10.3.1/../../../../arm-none-eabi/lib/thumb/v7-m/nofp\libc_nano.a(lib_a-signalr.o)
                              c:/j-tagit/arduino-1.8.18/portable/packages/eicon/tools/xpack-arm-none-eabi-gcc/bin/../lib/gcc/arm-none-eabi/10.3.1/../../../../arm-none-eabi/lib/thumb/v7-m/nofp\libc_nano.a(lib_a-signal.o) (_kill_r)
c:/j-tagit/arduino-1.8.18/portable/packages/eicon/tools/xpack-arm-none-eabi-gcc/bin/../lib/gcc/arm-none-eabi/10.3.1/../../../../arm-none-eabi/lib/thumb/v7-m/nofp\libc_nano.a(lib_a-fstatr.o)
                              c:/j-tagit/arduino-1.8.18/portable/packages/eicon/tools/xpack-arm-none-eabi-gcc/bin/../lib/gcc/arm-none-eabi/10.3.1/../../../../arm-none-eabi/lib/thumb/v7-m/nofp\libc_nano.a(lib_a-makebuf.o) (_fstat_r)
c:/j-tagit/arduino-1.8.18/portable/packages/eicon/tools/xpack-arm-none-eabi-gcc/bin/../lib/gcc/arm-none-eabi/10.3.1/../../../../arm-none-eabi/lib/thumb/v7-m/nofp\libc_nano.a(lib_a-isattyr.o)
                              c:/j-tagit/arduino-1.8.18/portable/packages/eicon/tools/xpack-arm-none-eabi-gcc/bin/../lib/gcc/arm-none-eabi/10.3.1/../../../../arm-none-eabi/lib/thumb/v7-m/nofp\libc_nano.a(lib_a-makebuf.o) (_isatty_r)
c:/j-tagit/arduino-1.8.18/portable/packages/eicon/tools/xpack-arm-none-eabi-gcc/bin/../lib/gcc/arm-none-eabi/10.3.1/thumb/v7-m/nofp\libgcc.a(_arm_muldf3.o)
                              C:\J-Tagit\arduino-1.8.18\portable\sketchbook\arduino\Eicon\F103CBT6-BluePill-HelloW\build\core\core.a(HardwareTimer.cpp.o) (__aeabi_dmul)
c:/j-tagit/arduino-1.8.18/portable/packages/eicon/tools/xpack-arm-none-eabi-gcc/bin/../lib/gcc/arm-none-eabi/10.3.1/thumb/v7-m/nofp\libgcc.a(_arm_mulsf3.o)
                              C:\J-Tagit\arduino-1.8.18\portable\sketchbook\arduino\Eicon\F103CBT6-BluePill-HelloW\build\core\core.a(Stream.cpp.o) (__aeabi_fmul)
c:/j-tagit/arduino-1.8.18/portable/packages/eicon/tools/xpack-arm-none-eabi-gcc/bin/../lib/gcc/arm-none-eabi/10.3.1/thumb/v7-m/nofp\libgcc.a(_arm_addsubdf3.o)
                              C:\J-Tagit\arduino-1.8.18\portable\sketchbook\arduino\Eicon\F103CBT6-BluePill-HelloW\build\core\core.a(Print.cpp.o) (__aeabi_dsub)
c:/j-tagit/arduino-1.8.18/portable/packages/eicon/tools/xpack-arm-none-eabi-gcc/bin/../lib/gcc/arm-none-eabi/10.3.1/thumb/v7-m/nofp\libgcc.a(_arm_muldivdf3.o)
                              C:\J-Tagit\arduino-1.8.18\portable\sketchbook\arduino\Eicon\F103CBT6-BluePill-HelloW\build\core\core.a(HardwareTimer.cpp.o) (__aeabi_ddiv)
c:/j-tagit/arduino-1.8.18/portable/packages/eicon/tools/xpack-arm-none-eabi-gcc/bin/../lib/gcc/arm-none-eabi/10.3.1/thumb/v7-m/nofp\libgcc.a(_arm_cmpdf2.o)
                              c:/j-tagit/arduino-1.8.18/portable/packages/eicon/tools/xpack-arm-none-eabi-gcc/bin/../lib/gcc/arm-none-eabi/10.3.1/../../../../arm-none-eabi/lib/thumb/v7-m/nofp\libc_nano.a(lib_a-strtod.o) (__aeabi_dcmpeq)
c:/j-tagit/arduino-1.8.18/portable/packages/eicon/tools/xpack-arm-none-eabi-gcc/bin/../lib/gcc/arm-none-eabi/10.3.1/thumb/v7-m/nofp\libgcc.a(_arm_unorddf2.o)
                              C:\J-Tagit\arduino-1.8.18\portable\sketchbook\arduino\Eicon\F103CBT6-BluePill-HelloW\build\core\core.a(Print.cpp.o) (__aeabi_dcmpun)
c:/j-tagit/arduino-1.8.18/portable/packages/eicon/tools/xpack-arm-none-eabi-gcc/bin/../lib/gcc/arm-none-eabi/10.3.1/thumb/v7-m/nofp\libgcc.a(_arm_fixdfsi.o)
                              C:\J-Tagit\arduino-1.8.18\portable\sketchbook\arduino\Eicon\F103CBT6-BluePill-HelloW\build\core\core.a(dtostrf.c.o) (__aeabi_d2iz)
c:/j-tagit/arduino-1.8.18/portable/packages/eicon/tools/xpack-arm-none-eabi-gcc/bin/../lib/gcc/arm-none-eabi/10.3.1/thumb/v7-m/nofp\libgcc.a(_arm_fixunsdfsi.o)
                              C:\J-Tagit\arduino-1.8.18\portable\sketchbook\arduino\Eicon\F103CBT6-BluePill-HelloW\build\core\core.a(HardwareTimer.cpp.o) (__aeabi_d2uiz)
c:/j-tagit/arduino-1.8.18/portable/packages/eicon/tools/xpack-arm-none-eabi-gcc/bin/../lib/gcc/arm-none-eabi/10.3.1/thumb/v7-m/nofp\libgcc.a(_arm_truncdfsf2.o)
                              C:\J-Tagit\arduino-1.8.18\portable\sketchbook\arduino\Eicon\F103CBT6-BluePill-HelloW\build\core\core.a(Stream.cpp.o) (__aeabi_d2f)
c:/j-tagit/arduino-1.8.18/portable/packages/eicon/tools/xpack-arm-none-eabi-gcc/bin/../lib/gcc/arm-none-eabi/10.3.1/thumb/v7-m/nofp\libgcc.a(_arm_addsubsf3.o)
                              C:\J-Tagit\arduino-1.8.18\portable\sketchbook\arduino\Eicon\F103CBT6-BluePill-HelloW\build\core\core.a(Stream.cpp.o) (__aeabi_i2f)
c:/j-tagit/arduino-1.8.18/portable/packages/eicon/tools/xpack-arm-none-eabi-gcc/bin/../lib/gcc/arm-none-eabi/10.3.1/thumb/v7-m/nofp\libgcc.a(_arm_cmpsf2.o)
                              c:/j-tagit/arduino-1.8.18/portable/packages/eicon/tools/xpack-arm-none-eabi-gcc/bin/../lib/gcc/arm-none-eabi/10.3.1/../../../../arm-none-eabi/lib/thumb/v7-m/nofp\libc_nano.a(lib_a-strtod.o) (__aeabi_fcmple)
c:/j-tagit/arduino-1.8.18/portable/packages/eicon/tools/xpack-arm-none-eabi-gcc/bin/../lib/gcc/arm-none-eabi/10.3.1/thumb/v7-m/nofp\libgcc.a(_arm_unordsf2.o)
                              c:/j-tagit/arduino-1.8.18/portable/packages/eicon/tools/xpack-arm-none-eabi-gcc/bin/../lib/gcc/arm-none-eabi/10.3.1/../../../../arm-none-eabi/lib/thumb/v7-m/nofp\libc_nano.a(lib_a-strtod.o) (__aeabi_fcmpun)
c:/j-tagit/arduino-1.8.18/portable/packages/eicon/tools/xpack-arm-none-eabi-gcc/bin/../lib/gcc/arm-none-eabi/10.3.1/thumb/v7-m/nofp\libgcc.a(_aeabi_uldivmod.o)
                              C:\J-Tagit\arduino-1.8.18\portable\sketchbook\arduino\Eicon\F103CBT6-BluePill-HelloW\build\core\core.a(Print.cpp.o) (__aeabi_uldivmod)
c:/j-tagit/arduino-1.8.18/portable/packages/eicon/tools/xpack-arm-none-eabi-gcc/bin/../lib/gcc/arm-none-eabi/10.3.1/thumb/v7-m/nofp\libgcc.a(_fixdfdi.o)
                              c:/j-tagit/arduino-1.8.18/portable/packages/eicon/tools/xpack-arm-none-eabi-gcc/bin/../lib/gcc/arm-none-eabi/10.3.1/../../../../arm-none-eabi/lib/thumb/v7-m/nofp\libc_nano.a(lib_a-strtod.o) (__aeabi_d2lz)
c:/j-tagit/arduino-1.8.18/portable/packages/eicon/tools/xpack-arm-none-eabi-gcc/bin/../lib/gcc/arm-none-eabi/10.3.1/thumb/v7-m/nofp\libgcc.a(_fixunsdfdi.o)
                              c:/j-tagit/arduino-1.8.18/portable/packages/eicon/tools/xpack-arm-none-eabi-gcc/bin/../lib/gcc/arm-none-eabi/10.3.1/thumb/v7-m/nofp\libgcc.a(_fixdfdi.o) (__aeabi_d2ulz)
c:/j-tagit/arduino-1.8.18/portable/packages/eicon/tools/xpack-arm-none-eabi-gcc/bin/../lib/gcc/arm-none-eabi/10.3.1/thumb/v7-m/nofp\libgcc.a(_udivmoddi4.o)
                              c:/j-tagit/arduino-1.8.18/portable/packages/eicon/tools/xpack-arm-none-eabi-gcc/bin/../lib/gcc/arm-none-eabi/10.3.1/thumb/v7-m/nofp\libgcc.a(_aeabi_uldivmod.o) (__udivmoddi4)
c:/j-tagit/arduino-1.8.18/portable/packages/eicon/tools/xpack-arm-none-eabi-gcc/bin/../lib/gcc/arm-none-eabi/10.3.1/thumb/v7-m/nofp\libgcc.a(unwind-arm.o)
                              c:/j-tagit/arduino-1.8.18/portable/packages/eicon/tools/xpack-arm-none-eabi-gcc/bin/../lib/gcc/arm-none-eabi/10.3.1/thumb/v7-m/nofp\libgcc.a(_fixdfdi.o) (__aeabi_unwind_cpp_pr0)
c:/j-tagit/arduino-1.8.18/portable/packages/eicon/tools/xpack-arm-none-eabi-gcc/bin/../lib/gcc/arm-none-eabi/10.3.1/thumb/v7-m/nofp\libgcc.a(libunwind.o)
                              c:/j-tagit/arduino-1.8.18/portable/packages/eicon/tools/xpack-arm-none-eabi-gcc/bin/../lib/gcc/arm-none-eabi/10.3.1/thumb/v7-m/nofp\libgcc.a(unwind-arm.o) (restore_core_regs)
c:/j-tagit/arduino-1.8.18/portable/packages/eicon/tools/xpack-arm-none-eabi-gcc/bin/../lib/gcc/arm-none-eabi/10.3.1/thumb/v7-m/nofp\libgcc.a(pr-support.o)
                              c:/j-tagit/arduino-1.8.18/portable/packages/eicon/tools/xpack-arm-none-eabi-gcc/bin/../lib/gcc/arm-none-eabi/10.3.1/thumb/v7-m/nofp\libgcc.a(unwind-arm.o) (__gnu_unwind_execute)
c:/j-tagit/arduino-1.8.18/portable/packages/eicon/tools/xpack-arm-none-eabi-gcc/bin/../lib/gcc/arm-none-eabi/10.3.1/thumb/v7-m/nofp\libgcc.a(_dvmd_tls.o)
                              c:/j-tagit/arduino-1.8.18/portable/packages/eicon/tools/xpack-arm-none-eabi-gcc/bin/../lib/gcc/arm-none-eabi/10.3.1/thumb/v7-m/nofp\libgcc.a(_aeabi_uldivmod.o) (__aeabi_ldiv0)
c:/j-tagit/arduino-1.8.18/portable/packages/eicon/tools/xpack-arm-none-eabi-gcc/bin/../lib/gcc/arm-none-eabi/10.3.1/../../../../arm-none-eabi/lib/thumb/v7-m/nofp\libstdc++_nano.a(functional.o)
                              C:\J-Tagit\arduino-1.8.18\portable\sketchbook\arduino\Eicon\F103CBT6-BluePill-HelloW\build\core\core.a(HardwareTimer.cpp.o) (std::__throw_bad_function_call())
c:/j-tagit/arduino-1.8.18/portable/packages/eicon/tools/xpack-arm-none-eabi-gcc/bin/../lib/gcc/arm-none-eabi/10.3.1/../../../../arm-none-eabi/lib/thumb/v7-m/nofp\libstdc++_nano.a(eh_exception.o)
                              c:/j-tagit/arduino-1.8.18/portable/packages/eicon/tools/xpack-arm-none-eabi-gcc/bin/../lib/gcc/arm-none-eabi/10.3.1/../../../../arm-none-eabi/lib/thumb/v7-m/nofp\libstdc++_nano.a(functional.o) (std::exception::~exception())
c:/j-tagit/arduino-1.8.18/portable/packages/eicon/tools/xpack-arm-none-eabi-gcc/bin/../lib/gcc/arm-none-eabi/10.3.1/../../../../arm-none-eabi/lib/thumb/v7-m/nofp\libstdc++_nano.a(si_class_type_info.o)
                              c:/j-tagit/arduino-1.8.18/portable/packages/eicon/tools/xpack-arm-none-eabi-gcc/bin/../lib/gcc/arm-none-eabi/10.3.1/../../../../arm-none-eabi/lib/thumb/v7-m/nofp\libstdc++_nano.a(functional.o) (vtable for __cxxabiv1::__si_class_type_info)
c:/j-tagit/arduino-1.8.18/portable/packages/eicon/tools/xpack-arm-none-eabi-gcc/bin/../lib/gcc/arm-none-eabi/10.3.1/../../../../arm-none-eabi/lib/thumb/v7-m/nofp\libstdc++_nano.a(tinfo.o)
                              c:/j-tagit/arduino-1.8.18/portable/packages/eicon/tools/xpack-arm-none-eabi-gcc/bin/../lib/gcc/arm-none-eabi/10.3.1/../../../../arm-none-eabi/lib/thumb/v7-m/nofp\libstdc++_nano.a(si_class_type_info.o) (std::type_info::__is_pointer_p() const)
c:/j-tagit/arduino-1.8.18/portable/packages/eicon/tools/xpack-arm-none-eabi-gcc/bin/../lib/gcc/arm-none-eabi/10.3.1/../../../../arm-none-eabi/lib/thumb/v7-m/nofp\libstdc++_nano.a(class_type_info.o)
                              c:/j-tagit/arduino-1.8.18/portable/packages/eicon/tools/xpack-arm-none-eabi-gcc/bin/../lib/gcc/arm-none-eabi/10.3.1/../../../../arm-none-eabi/lib/thumb/v7-m/nofp\libstdc++_nano.a(si_class_type_info.o) (__cxxabiv1::__class_type_info::__do_upcast(__cxxabiv1::__class_type_info const*, void**) const)

Discarded input sections

 .text          0x00000000        0x0 c:/j-tagit/arduino-1.8.18/portable/packages/eicon/tools/xpack-arm-none-eabi-gcc/bin/../lib/gcc/arm-none-eabi/10.3.1/thumb/v7-m/nofp/crti.o
 .data          0x00000000        0x0 c:/j-tagit/arduino-1.8.18/portable/packages/eicon/tools/xpack-arm-none-eabi-gcc/bin/../lib/gcc/arm-none-eabi/10.3.1/thumb/v7-m/nofp/crti.o
 .bss           0x00000000        0x0 c:/j-tagit/arduino-1.8.18/portable/packages/eicon/tools/xpack-arm-none-eabi-gcc/bin/../lib/gcc/arm-none-eabi/10.3.1/thumb/v7-m/nofp/crti.o
 .text          0x00000000        0x0 c:/j-tagit/arduino-1.8.18/portable/packages/eicon/tools/xpack-arm-none-eabi-gcc/bin/../lib/gcc/arm-none-eabi/10.3.1/thumb/v7-m/nofp/crtbegin.o
 .data          0x00000000        0x0 c:/j-tagit/arduino-1.8.18/portable/packages/eicon/tools/xpack-arm-none-eabi-gcc/bin/../lib/gcc/arm-none-eabi/10.3.1/thumb/v7-m/nofp/crtbegin.o
 .bss           0x00000000        0x0 c:/j-tagit/arduino-1.8.18/portable/packages/eicon/tools/xpack-arm-none-eabi-gcc/bin/../lib/gcc/arm-none-eabi/10.3.1/thumb/v7-m/nofp/crtbegin.o
 .rodata.all_implied_fbits
                0x00000000       0x24 c:/j-tagit/arduino-1.8.18/portable/packages/eicon/tools/xpack-arm-none-eabi-gcc/bin/../lib/gcc/arm-none-eabi/10.3.1/thumb/v7-m/nofp/crtbegin.o
 .data.__dso_handle
                0x00000000        0x4 c:/j-tagit/arduino-1.8.18/portable/packages/eicon/tools/xpack-arm-none-eabi-gcc/bin/../lib/gcc/arm-none-eabi/10.3.1/thumb/v7-m/nofp/crtbegin.o
 .text          0x00000000       0x7c c:/j-tagit/arduino-1.8.18/portable/packages/eicon/tools/xpack-arm-none-eabi-gcc/bin/../lib/gcc/arm-none-eabi/10.3.1/../../../../arm-none-eabi/lib/thumb/v7-m/nofp/crt0.o
 .data          0x00000000        0x0 c:/j-tagit/arduino-1.8.18/portable/packages/eicon/tools/xpack-arm-none-eabi-gcc/bin/../lib/gcc/arm-none-eabi/10.3.1/../../../../arm-none-eabi/lib/thumb/v7-m/nofp/crt0.o
 .bss           0x00000000        0x0 c:/j-tagit/arduino-1.8.18/portable/packages/eicon/tools/xpack-arm-none-eabi-gcc/bin/../lib/gcc/arm-none-eabi/10.3.1/../../../../arm-none-eabi/lib/thumb/v7-m/nofp/crt0.o
 .ARM.extab     0x00000000        0x0 c:/j-tagit/arduino-1.8.18/portable/packages/eicon/tools/xpack-arm-none-eabi-gcc/bin/../lib/gcc/arm-none-eabi/10.3.1/../../../../arm-none-eabi/lib/thumb/v7-m/nofp/crt0.o
 .ARM.exidx     0x00000000       0x10 c:/j-tagit/arduino-1.8.18/portable/packages/eicon/tools/xpack-arm-none-eabi-gcc/bin/../lib/gcc/arm-none-eabi/10.3.1/../../../../arm-none-eabi/lib/thumb/v7-m/nofp/crt0.o
 .ARM.attributes
                0x00000000       0x1b c:/j-tagit/arduino-1.8.18/portable/packages/eicon/tools/xpack-arm-none-eabi-gcc/bin/../lib/gcc/arm-none-eabi/10.3.1/../../../../arm-none-eabi/lib/thumb/v7-m/nofp/crt0.o
 .text          0x00000000        0x0 C:\J-Tagit\arduino-1.8.18\portable\sketchbook\arduino\Eicon\F103CBT6-BluePill-HelloW\build\sketch\F103CBT6-BluePill-HelloW.ino.cpp.o
Memory Configuration

Name             Origin             Length             Attributes
*default*        0x00000000         0xffffffff
RAM              0x20000000         0x00005000         xrw
FLASH            0x08000000         0x00020000         xr

Linker script and memory map

LOAD C:\J-Tagit\arduino-1.8.18/portable/packages/Eicon/tools/CMSIS/CMSIS/DSP/Lib/GCC/\libarm_cortexM3l_math.a
START GROUP
LOAD C:\J-Tagit\arduino-1.8.18\portable\sketchbook\arduino\Eicon\F103CBT6-BluePill-HelloW\build\sketch\F103CBT6-BluePill-HelloW.ino.cpp.o
LOAD C:\J-Tagit\arduino-1.8.18\portable\sketchbook\arduino\Eicon\F103CBT6-BluePill-HelloW\build\sketch\SrcWrapper.cpp.o
LOAD C:\J-Tagit\arduino-1.8.18\portable\sketchbook\arduino\Eicon\F103CBT6-BluePill-HelloW\build\libraries\SrcWrapper\syscalls.c.o
LOAD C:\J-Tagit\arduino-1.8.18\portable\sketchbook\arduino\Eicon\F103CBT6-BluePill-HelloW\build\libraries\SrcWrapper\HAL\stm32yyxx_hal.c.o
LOAD C:\J-Tagit\arduino-1.8.18\portable\sketchbook\arduino\Eicon\F103CBT6-BluePill-HelloW\build\libraries\SrcWrapper\HAL\stm32yyxx_hal_adc.c.o
LOAD C:\J-Tagit\arduino-1.8.18\portable\sketchbook\arduino\Eicon\F103CBT6-BluePill-HelloW\build\libraries\SrcWrapper\HAL\stm32yyxx_hal_adc_ex.c.o
LOAD C:\J-Tagit\arduino-1.8.18\portable\sketchbook\arduino\Eicon\F103CBT6-BluePill-HelloW\build\libraries\SrcWrapper\HAL\stm32yyxx_hal_can.c.o
LOAD C:\J-Tagit\arduino-1.8.18\portable\sketchbook\arduino\Eicon\F103CBT6-BluePill-HelloW\build\libraries\SrcWrapper\HAL\stm32yyxx_hal_cec.c.o
LOAD C:\J-Tagit\arduino-1.8.18\portable\sketchbook\arduino\Eicon\F103CBT6-BluePill-HelloW\build\libraries\SrcWrapper\HAL\stm32yyxx_hal_comp.c.o
LOAD C:\J-Tagit\arduino-1.8.18\portable\sketchbook\arduino\Eicon\F103CBT6-BluePill-HelloW\build\libraries\SrcWrapper\HAL\stm32yyxx_hal_comp_ex.c.o
LOAD C:\J-Tagit\arduino-1.8.18\portable\sketchbook\arduino\Eicon\F103CBT6-BluePill-HelloW\build\libraries\SrcWrapper\HAL\stm32yyxx_hal_cordic.c.o
LOAD C:\J-Tagit\arduino-1.8.18\portable\sketchbook\arduino\Eicon\F103CBT6-BluePill-HelloW\build\libraries\SrcWrapper\HAL\stm32yyxx_hal_cortex.c.o
LOAD C:\J-Tagit\arduino-1.8.18\portable\sketchbook\arduino\Eicon\F103CBT6-BluePill-HelloW\build\libraries\SrcWrapper\HAL\stm32yyxx_hal_crc.c.o
LOAD C:\J-Tagit\arduino-1.8.18\portable\sketchbook\arduino\Eicon\F103CBT6-BluePill-HelloW\build\libraries\SrcWrapper\HAL\stm32yyxx_hal_crc_ex.c.o
LOAD C:\J-Tagit\arduino-1.8.18\portable\sketchbook\arduino\Eicon\F103CBT6-BluePill-HelloW\build\libraries\SrcWrapper\HAL\stm32yyxx_hal_cryp.c.o
LOAD C:\J-Tagit\arduino-1.8.18\portable\sketchbook\arduino\Eicon\F103CBT6-BluePill-HelloW\build\libraries\SrcWrapper\HAL\stm32yyxx_hal_cryp_ex.c.o
LOAD C:\J-Tagit\arduino-1.8.18\portable\sketchbook\arduino\Eicon\F103CBT6-BluePill-HelloW\build\libraries\SrcWrapper\HAL\stm32yyxx_hal_dac.c.o
LOAD C:\J-Tagit\arduino-1.8.18\portable\sketchbook\arduino\Eicon\F103CBT6-BluePill-HelloW\build\libraries\SrcWrapper\HAL\stm32yyxx_hal_dac_ex.c.o
LOAD C:\J-Tagit\arduino-1.8.18\portable\sketchbook\arduino\Eicon\F103CBT6-BluePill-HelloW\build\libraries\SrcWrapper\HAL\stm32yyxx_hal_dcache.c.o
LOAD C:\J-Tagit\arduino-1.8.18\portable\sketchbook\arduino\Eicon\F103CBT6-BluePill-HelloW\build\libraries\SrcWrapper\HAL\stm32yyxx_hal_dcmi.c.o
LOAD C:\J-Tagit\arduino-1.8.18\portable\sketchbook\arduino\Eicon\F103CBT6-BluePill-HelloW\build\libraries\SrcWrapper\HAL\stm32yyxx_hal_dcmi_ex.c.o
LOAD C:\J-Tagit\arduino-1.8.18\portable\sketchbook\arduino\Eicon\F103CBT6-BluePill-HelloW\build\libraries\SrcWrapper\HAL\stm32yyxx_hal_dfsdm.c.o
LOAD C:\J-Tagit\arduino-1.8.18\portable\sketchbook\arduino\Eicon\F103CBT6-BluePill-HelloW\build\libraries\SrcWrapper\HAL\stm32yyxx_hal_dfsdm_ex.c.o
LOAD C:\J-Tagit\arduino-1.8.18\portable\sketchbook\arduino\Eicon\F103CBT6-BluePill-HelloW\build\libraries\SrcWrapper\HAL\stm32yyxx_hal_dma.c.o
LOAD C:\J-Tagit\arduino-1.8.18\portable\sketchbook\arduino\Eicon\F103CBT6-BluePill-HelloW\build\libraries\SrcWrapper\HAL\stm32yyxx_hal_dma2d.c.o
LOAD C:\J-Tagit\arduino-1.8.18\portable\sketchbook\arduino\Eicon\F103CBT6-BluePill-HelloW\build\libraries\SrcWrapper\HAL\stm32yyxx_hal_dma_ex.c.o
LOAD C:\J-Tagit\arduino-1.8.18\portable\sketchbook\arduino\Eicon\F103CBT6-BluePill-HelloW\build\libraries\SrcWrapper\HAL\stm32yyxx_hal_dsi.c.o
LOAD C:\J-Tagit\arduino-1.8.18\portable\sketchbook\arduino\Eicon\F103CBT6-BluePill-HelloW\build\libraries\SrcWrapper\HAL\stm32yyxx_hal_dts.c.o
LOAD C:\J-Tagit\arduino-1.8.18\portable\sketchbook\arduino\Eicon\F103CBT6-BluePill-HelloW\build\libraries\SrcWrapper\HAL\stm32yyxx_hal_eth.c.o
LOAD C:\J-Tagit\arduino-1.8.18\portable\sketchbook\arduino\Eicon\F103CBT6-BluePill-HelloW\build\libraries\SrcWrapper\HAL\stm32yyxx_hal_eth_ex.c.o
LOAD C:\J-Tagit\arduino-1.8.18\portable\sketchbook\arduino\Eicon\F103CBT6-BluePill-HelloW\build\libraries\SrcWrapper\HAL\stm32yyxx_hal_exti.c.o
LOAD C:\J-Tagit\arduino-1.8.18\portable\sketchbook\arduino\Eicon\F103CBT6-BluePill-HelloW\build\libraries\SrcWrapper\HAL\stm32yyxx_hal_fdcan.c.o
LOAD C:\J-Tagit\arduino-1.8.18\portable\sketchbook\arduino\Eicon\F103CBT6-BluePill-HelloW\build\libraries\SrcWrapper\HAL\stm32yyxx_hal_firewall.c.o
LOAD C:\J-Tagit\arduino-1.8.18\portable\sketchbook\arduino\Eicon\F103CBT6-BluePill-HelloW\build\libraries\SrcWrapper\HAL\stm32yyxx_hal_flash.c.o
LOAD C:\J-Tagit\arduino-1.8.18\portable\sketchbook\arduino\Eicon\F103CBT6-BluePill-HelloW\build\libraries\SrcWrapper\HAL\stm32yyxx_hal_flash_ex.c.o
LOAD C:\J-Tagit\arduino-1.8.18\portable\sketchbook\arduino\Eicon\F103CBT6-BluePill-HelloW\build\libraries\SrcWrapper\HAL\stm32yyxx_hal_flash_ramfunc.c.o
LOAD C:\J-Tagit\arduino-1.8.18\portable\sketchbook\arduino\Eicon\F103CBT6-BluePill-HelloW\build\libraries\SrcWrapper\HAL\stm32yyxx_hal_fmac.c.o
LOAD C:\J-Tagit\arduino-1.8.18\portable\sketchbook\arduino\Eicon\F103CBT6-BluePill-HelloW\build\libraries\SrcWrapper\HAL\stm32yyxx_hal_fmpi2c.c.o
LOAD C:\J-Tagit\arduino-1.8.18\portable\sketchbook\arduino\Eicon\F103CBT6-BluePill-HelloW\build\libraries\SrcWrapper\HAL\stm32yyxx_hal_fmpi2c_ex.c.o
LOAD C:\J-Tagit\arduino-1.8.18\portable\sketchbook\arduino\Eicon\F103CBT6-BluePill-HelloW\build\libraries\SrcWrapper\HAL\stm32yyxx_hal_fmpsmbus.c.o
LOAD C:\J-Tagit\arduino-1.8.18\portable\sketchbook\arduino\Eicon\F103CBT6-BluePill-HelloW\build\libraries\SrcWrapper\HAL\stm32yyxx_hal_fmpsmbus_ex.c.o
LOAD C:\J-Tagit\arduino-1.8.18\portable\sketchbook\arduino\Eicon\F103CBT6-BluePill-HelloW\build\libraries\SrcWrapper\HAL\stm32yyxx_hal_gfxmmu.c.o
LOAD C:\J-Tagit\arduino-1.8.18\portable\sketchbook\arduino\Eicon\F103CBT6-BluePill-HelloW\build\libraries\SrcWrapper\HAL\stm32yyxx_hal_gpio.c.o
LOAD C:\J-Tagit\arduino-1.8.18\portable\sketchbook\arduino\Eicon\F103CBT6-BluePill-HelloW\build\libraries\SrcWrapper\HAL\stm32yyxx_hal_gpio_ex.c.o
LOAD C:\J-Tagit\arduino-1.8.18\portable\sketchbook\arduino\Eicon\F103CBT6-BluePill-HelloW\build\libraries\SrcWrapper\HAL\stm32yyxx_hal_gtzc.c.o
LOAD C:\J-Tagit\arduino-1.8.18\portable\sketchbook\arduino\Eicon\F103CBT6-BluePill-HelloW\build\libraries\SrcWrapper\HAL\stm32yyxx_hal_hash.c.o
LOAD C:\J-Tagit\arduino-1.8.18\portable\sketchbook\arduino\Eicon\F103CBT6-BluePill-HelloW\build\libraries\SrcWrapper\HAL\stm32yyxx_hal_hash_ex.c.o
LOAD C:\J-Tagit\arduino-1.8.18\portable\sketchbook\arduino\Eicon\F103CBT6-BluePill-HelloW\build\libraries\SrcWrapper\HAL\stm32yyxx_hal_hcd.c.o
LOAD C:\J-Tagit\arduino-1.8.18\portable\sketchbook\arduino\Eicon\F103CBT6-BluePill-HelloW\build\libraries\SrcWrapper\HAL\stm32yyxx_hal_hrtim.c.o
LOAD C:\J-Tagit\arduino-1.8.18\portable\sketchbook\arduino\Eicon\F103CBT6-BluePill-HelloW\build\libraries\SrcWrapper\HAL\stm32yyxx_hal_hsem.c.o
LOAD C:\J-Tagit\arduino-1.8.18\portable\sketchbook\arduino\Eicon\F103CBT6-BluePill-HelloW\build\libraries\SrcWrapper\HAL\stm32yyxx_hal_i2c.c.o
LOAD C:\J-Tagit\arduino-1.8.18\portable\sketchbook\arduino\Eicon\F103CBT6-BluePill-HelloW\build\libraries\SrcWrapper\HAL\stm32yyxx_hal_i2c_ex.c.o
LOAD C:\J-Tagit\arduino-1.8.18\portable\sketchbook\arduino\Eicon\F103CBT6-BluePill-HelloW\build\libraries\SrcWrapper\HAL\stm32yyxx_hal_i2s.c.o
LOAD C:\J-Tagit\arduino-1.8.18\portable\sketchbook\arduino\Eicon\F103CBT6-BluePill-HelloW\build\libraries\SrcWrapper\HAL\stm32yyxx_hal_i2s_ex.c.o
LOAD C:\J-Tagit\arduino-1.8.18\portable\sketchbook\arduino\Eicon\F103CBT6-BluePill-HelloW\build\libraries\SrcWrapper\HAL\stm32yyxx_hal_icache.c.o
LOAD C:\J-Tagit\arduino-1.8.18\portable\sketchbook\arduino\Eicon\F103CBT6-BluePill-HelloW\build\libraries\SrcWrapper\HAL\stm32yyxx_hal_ipcc.c.o
LOAD C:\J-Tagit\arduino-1.8.18\portable\sketchbook\arduino\Eicon\F103CBT6-BluePill-HelloW\build\libraries\SrcWrapper\HAL\stm32yyxx_hal_irda.c.o
LOAD C:\J-Tagit\arduino-1.8.18\portable\sketchbook\arduino\Eicon\F103CBT6-BluePill-HelloW\build\libraries\SrcWrapper\HAL\stm32yyxx_hal_iwdg.c.o
LOAD C:\J-Tagit\arduino-1.8.18\portable\sketchbook\arduino\Eicon\F103CBT6-BluePill-HelloW\build\libraries\SrcWrapper\HAL\stm32yyxx_hal_jpeg.c.o
LOAD C:\J-Tagit\arduino-1.8.18\portable\sketchbook\arduino\Eicon\F103CBT6-BluePill-HelloW\build\libraries\SrcWrapper\HAL\stm32yyxx_hal_lcd.c.o
LOAD C:\J-Tagit\arduino-1.8.18\portable\sketchbook\arduino\Eicon\F103CBT6-BluePill-HelloW\build\libraries\SrcWrapper\HAL\stm32yyxx_hal_lptim.c.o
LOAD C:\J-Tagit\arduino-1.8.18\portable\sketchbook\arduino\Eicon\F103CBT6-BluePill-HelloW\build\libraries\SrcWrapper\HAL\stm32yyxx_hal_ltdc.c.o
LOAD C:\J-Tagit\arduino-1.8.18\portable\sketchbook\arduino\Eicon\F103CBT6-BluePill-HelloW\build\libraries\SrcWrapper\HAL\stm32yyxx_hal_ltdc_ex.c.o
LOAD C:\J-Tagit\arduino-1.8.18\portable\sketchbook\arduino\Eicon\F103CBT6-BluePill-HelloW\build\libraries\SrcWrapper\HAL\stm32yyxx_hal_mdf.c.o
LOAD C:\J-Tagit\arduino-1.8.18\portable\sketchbook\arduino\Eicon\F103CBT6-BluePill-HelloW\build\libraries\SrcWrapper\HAL\stm32yyxx_hal_mdios.c.o
LOAD C:\J-Tagit\arduino-1.8.18\portable\sketchbook\arduino\Eicon\F103CBT6-BluePill-HelloW\build\libraries\SrcWrapper\HAL\stm32yyxx_hal_mdma.c.o
LOAD C:\J-Tagit\arduino-1.8.18\portable\sketchbook\arduino\Eicon\F103CBT6-BluePill-HelloW\build\libraries\SrcWrapper\HAL\stm32yyxx_hal_mmc.c.o
LOAD C:\J-Tagit\arduino-1.8.18\portable\sketchbook\arduino\Eicon\F103CBT6-BluePill-HelloW\build\libraries\SrcWrapper\HAL\stm32yyxx_hal_mmc_ex.c.o
LOAD C:\J-Tagit\arduino-1.8.18\portable\sketchbook\arduino\Eicon\F103CBT6-BluePill-HelloW\build\libraries\SrcWrapper\HAL\stm32yyxx_hal_nand.c.o
LOAD C:\J-Tagit\arduino-1.8.18\portable\sketchbook\arduino\Eicon\F103CBT6-BluePill-HelloW\build\libraries\SrcWrapper\HAL\stm32yyxx_hal_nor.c.o
LOAD C:\J-Tagit\arduino-1.8.18\portable\sketchbook\arduino\Eicon\F103CBT6-BluePill-HelloW\build\libraries\SrcWrapper\HAL\stm32yyxx_hal_opamp.c.o
LOAD C:\J-Tagit\arduino-1.8.18\portable\sketchbook\arduino\Eicon\F103CBT6-BluePill-HelloW\build\libraries\SrcWrapper\HAL\stm32yyxx_hal_opamp_ex.c.o
LOAD C:\J-Tagit\arduino-1.8.18\portable\sketchbook\arduino\Eicon\F103CBT6-BluePill-HelloW\build\libraries\SrcWrapper\HAL\stm32yyxx_hal_ospi.c.o
LOAD C:\J-Tagit\arduino-1.8.18\portable\sketchbook\arduino\Eicon\F103CBT6-BluePill-HelloW\build\libraries\SrcWrapper\HAL\stm32yyxx_hal_otfdec.c.o
LOAD C:\J-Tagit\arduino-1.8.18\portable\sketchbook\arduino\Eicon\F103CBT6-BluePill-HelloW\build\libraries\SrcWrapper\HAL\stm32yyxx_hal_pccard.c.o
LOAD C:\J-Tagit\arduino-1.8.18\portable\sketchbook\arduino\Eicon\F103CBT6-BluePill-HelloW\build\libraries\SrcWrapper\HAL\stm32yyxx_hal_pcd.c.o
LOAD C:\J-Tagit\arduino-1.8.18\portable\sketchbook\arduino\Eicon\F103CBT6-BluePill-HelloW\build\libraries\SrcWrapper\HAL\stm32yyxx_hal_pcd_ex.c.o
LOAD C:\J-Tagit\arduino-1.8.18\portable\sketchbook\arduino\Eicon\F103CBT6-BluePill-HelloW\build\libraries\SrcWrapper\HAL\stm32yyxx_hal_pka.c.o
LOAD C:\J-Tagit\arduino-1.8.18\portable\sketchbook\arduino\Eicon\F103CBT6-BluePill-HelloW\build\libraries\SrcWrapper\HAL\stm32yyxx_hal_pssi.c.o
LOAD C:\J-Tagit\arduino-1.8.18\portable\sketchbook\arduino\Eicon\F103CBT6-BluePill-HelloW\build\libraries\SrcWrapper\HAL\stm32yyxx_hal_pwr.c.o
LOAD C:\J-Tagit\arduino-1.8.18\portable\sketchbook\arduino\Eicon\F103CBT6-BluePill-HelloW\build\libraries\SrcWrapper\HAL\stm32yyxx_hal_pwr_ex.c.o
LOAD C:\J-Tagit\arduino-1.8.18\portable\sketchbook\arduino\Eicon\F103CBT6-BluePill-HelloW\build\libraries\SrcWrapper\HAL\stm32yyxx_hal_qspi.c.o
LOAD C:\J-Tagit\arduino-1.8.18\portable\sketchbook\arduino\Eicon\F103CBT6-BluePill-HelloW\build\libraries\SrcWrapper\HAL\stm32yyxx_hal_ramcfg.c.o
LOAD C:\J-Tagit\arduino-1.8.18\portable\sketchbook\arduino\Eicon\F103CBT6-BluePill-HelloW\build\libraries\SrcWrapper\HAL\stm32yyxx_hal_ramecc.c.o
LOAD C:\J-Tagit\arduino-1.8.18\portable\sketchbook\arduino\Eicon\F103CBT6-BluePill-HelloW\build\libraries\SrcWrapper\HAL\stm32yyxx_hal_rcc.c.o
LOAD C:\J-Tagit\arduino-1.8.18\portable\sketchbook\arduino\Eicon\F103CBT6-BluePill-HelloW\build\libraries\SrcWrapper\HAL\stm32yyxx_hal_rcc_ex.c.o
LOAD C:\J-Tagit\arduino-1.8.18\portable\sketchbook\arduino\Eicon\F103CBT6-BluePill-HelloW\build\libraries\SrcWrapper\HAL\stm32yyxx_hal_rng.c.o
LOAD C:\J-Tagit\arduino-1.8.18\portable\sketchbook\arduino\Eicon\F103CBT6-BluePill-HelloW\build\libraries\SrcWrapper\HAL\stm32yyxx_hal_rng_ex.c.o
LOAD C:\J-Tagit\arduino-1.8.18\portable\sketchbook\arduino\Eicon\F103CBT6-BluePill-HelloW\build\libraries\SrcWrapper\HAL\stm32yyxx_hal_rtc.c.o
LOAD C:\J-Tagit\arduino-1.8.18\portable\sketchbook\arduino\Eicon\F103CBT6-BluePill-HelloW\build\libraries\SrcWrapper\HAL\stm32yyxx_hal_rtc_ex.c.o
LOAD C:\J-Tagit\arduino-1.8.18\portable\sketchbook\arduino\Eicon\F103CBT6-BluePill-HelloW\build\libraries\SrcWrapper\HAL\stm32yyxx_hal_sai.c.o
LOAD C:\J-Tagit\arduino-1.8.18\portable\sketchbook\arduino\Eicon\F103CBT6-BluePill-HelloW\build\libraries\SrcWrapper\HAL\stm32yyxx_hal_sai_ex.c.o
LOAD C:\J-Tagit\arduino-1.8.18\portable\sketchbook\arduino\Eicon\F103CBT6-BluePill-HelloW\build\libraries\SrcWrapper\HAL\stm32yyxx_hal_sd.c.o
LOAD C:\J-Tagit\arduino-1.8.18\portable\sketchbook\arduino\Eicon\F103CBT6-BluePill-HelloW\build\libraries\SrcWrapper\HAL\stm32yyxx_hal_sd_ex.c.o
LOAD C:\J-Tagit\arduino-1.8.18\portable\sketchbook\arduino\Eicon\F103CBT6-BluePill-HelloW\build\libraries\SrcWrapper\HAL\stm32yyxx_hal_sdadc.c.o
LOAD C:\J-Tagit\arduino-1.8.18\portable\sketchbook\arduino\Eicon\F103CBT6-BluePill-HelloW\build\libraries\SrcWrapper\HAL\stm32yyxx_hal_sdram.c.o
LOAD C:\J-Tagit\arduino-1.8.18\portable\sketchbook\arduino\Eicon\F103CBT6-BluePill-HelloW\build\libraries\SrcWrapper\HAL\stm32yyxx_hal_smartcard.c.o
LOAD C:\J-Tagit\arduino-1.8.18\portable\sketchbook\arduino\Eicon\F103CBT6-BluePill-HelloW\build\libraries\SrcWrapper\HAL\stm32yyxx_hal_smartcard_ex.c.o
LOAD C:\J-Tagit\arduino-1.8.18\portable\sketchbook\arduino\Eicon\F103CBT6-BluePill-HelloW\build\libraries\SrcWrapper\HAL\stm32yyxx_hal_smbus.c.o
LOAD C:\J-Tagit\arduino-1.8.18\portable\sketchbook\arduino\Eicon\F103CBT6-BluePill-HelloW\build\libraries\SrcWrapper\HAL\stm32yyxx_hal_smbus_ex.c.o
LOAD C:\J-Tagit\arduino-1.8.18\portable\sketchbook\arduino\Eicon\F103CBT6-BluePill-HelloW\build\libraries\SrcWrapper\HAL\stm32yyxx_hal_spdifrx.c.o
LOAD C:\J-Tagit\arduino-1.8.18\portable\sketchbook\arduino\Eicon\F103CBT6-BluePill-HelloW\build\libraries\SrcWrapper\HAL\stm32yyxx_hal_spi.c.o
LOAD C:\J-Tagit\arduino-1.8.18\portable\sketchbook\arduino\Eicon\F103CBT6-BluePill-HelloW\build\libraries\SrcWrapper\HAL\stm32yyxx_hal_spi_ex.c.o
LOAD C:\J-Tagit\arduino-1.8.18\portable\sketchbook\arduino\Eicon\F103CBT6-BluePill-HelloW\build\libraries\SrcWrapper\HAL\stm32yyxx_hal_sram.c.o
LOAD C:\J-Tagit\arduino-1.8.18\portable\sketchbook\arduino\Eicon\F103CBT6-BluePill-HelloW\build\libraries\SrcWrapper\HAL\stm32yyxx_hal_subghz.c.o
LOAD C:\J-Tagit\arduino-1.8.18\portable\sketchbook\arduino\Eicon\F103CBT6-BluePill-HelloW\build\libraries\SrcWrapper\HAL\stm32yyxx_hal_swpmi.c.o
LOAD C:\J-Tagit\arduino-1.8.18\portable\sketchbook\arduino\Eicon\F103CBT6-BluePill-HelloW\build\libraries\SrcWrapper\HAL\stm32yyxx_hal_tim.c.o
LOAD C:\J-Tagit\arduino-1.8.18\portable\sketchbook\arduino\Eicon\F103CBT6-BluePill-HelloW\build\libraries\SrcWrapper\HAL\stm32yyxx_hal_tim_ex.c.o
LOAD C:\J-Tagit\arduino-1.8.18\portable\sketchbook\arduino\Eicon\F103CBT6-BluePill-HelloW\build\libraries\SrcWrapper\HAL\stm32yyxx_hal_tsc.c.o
LOAD C:\J-Tagit\arduino-1.8.18\portable\sketchbook\arduino\Eicon\F103CBT6-BluePill-HelloW\build\libraries\SrcWrapper\HAL\stm32yyxx_hal_uart.c.o
LOAD C:\J-Tagit\arduino-1.8.18\portable\sketchbook\arduino\Eicon\F103CBT6-BluePill-HelloW\build\libraries\SrcWrapper\HAL\stm32yyxx_hal_uart_ex.c.o
LOAD C:\J-Tagit\arduino-1.8.18\portable\sketchbook\arduino\Eicon\F103CBT6-BluePill-HelloW\build\libraries\SrcWrapper\HAL\stm32yyxx_hal_usart.c.o
LOAD C:\J-Tagit\arduino-1.8.18\portable\sketchbook\arduino\Eicon\F103CBT6-BluePill-HelloW\build\libraries\SrcWrapper\HAL\stm32yyxx_hal_usart_ex.c.o
LOAD C:\J-Tagit\arduino-1.8.18\portable\sketchbook\arduino\Eicon\F103CBT6-BluePill-HelloW\build\libraries\SrcWrapper\HAL\stm32yyxx_hal_wwdg.c.o
LOAD C:\J-Tagit\arduino-1.8.18\portable\sketchbook\arduino\Eicon\F103CBT6-BluePill-HelloW\build\libraries\SrcWrapper\LL\stm32yyxx_ll_adc.c.o
LOAD C:\J-Tagit\arduino-1.8.18\portable\sketchbook\arduino\Eicon\F103CBT6-BluePill-HelloW\build\libraries\SrcWrapper\LL\stm32yyxx_ll_bdma.c.o
LOAD C:\J-Tagit\arduino-1.8.18\portable\sketchbook\arduino\Eicon\F103CBT6-BluePill-HelloW\build\libraries\SrcWrapper\LL\stm32yyxx_ll_comp.c.o
LOAD C:\J-Tagit\arduino-1.8.18\portable\sketchbook\arduino\Eicon\F103CBT6-BluePill-HelloW\build\libraries\SrcWrapper\LL\stm32yyxx_ll_cordic.c.o
LOAD C:\J-Tagit\arduino-1.8.18\portable\sketchbook\arduino\Eicon\F103CBT6-BluePill-HelloW\build\libraries\SrcWrapper\LL\stm32yyxx_ll_crc.c.o
LOAD C:\J-Tagit\arduino-1.8.18\portable\sketchbook\arduino\Eicon\F103CBT6-BluePill-HelloW\build\libraries\SrcWrapper\LL\stm32yyxx_ll_crs.c.o
LOAD C:\J-Tagit\arduino-1.8.18\portable\sketchbook\arduino\Eicon\F103CBT6-BluePill-HelloW\build\libraries\SrcWrapper\LL\stm32yyxx_ll_dac.c.o
LOAD C:\J-Tagit\arduino-1.8.18\portable\sketchbook\arduino\Eicon\F103CBT6-BluePill-HelloW\build\libraries\SrcWrapper\LL\stm32yyxx_ll_delayblock.c.o
LOAD C:\J-Tagit\arduino-1.8.18\portable\sketchbook\arduino\Eicon\F103CBT6-BluePill-HelloW\build\libraries\SrcWrapper\LL\stm32yyxx_ll_dlyb.c.o
LOAD C:\J-Tagit\arduino-1.8.18\portable\sketchbook\arduino\Eicon\F103CBT6-BluePill-HelloW\build\libraries\SrcWrapper\LL\stm32yyxx_ll_dma.c.o
LOAD C:\J-Tagit\arduino-1.8.18\portable\sketchbook\arduino\Eicon\F103CBT6-BluePill-HelloW\build\libraries\SrcWrapper\LL\stm32yyxx_ll_dma2d.c.o
LOAD C:\J-Tagit\arduino-1.8.18\portable\sketchbook\arduino\Eicon\F103CBT6-BluePill-HelloW\build\libraries\SrcWrapper\LL\stm32yyxx_ll_exti.c.o
LOAD C:\J-Tagit\arduino-1.8.18\portable\sketchbook\arduino\Eicon\F103CBT6-BluePill-HelloW\build\libraries\SrcWrapper\LL\stm32yyxx_ll_fmac.c.o
LOAD C:\J-Tagit\arduino-1.8.18\portable\sketchbook\arduino\Eicon\F103CBT6-BluePill-HelloW\build\libraries\SrcWrapper\LL\stm32yyxx_ll_fmc.c.o
LOAD C:\J-Tagit\arduino-1.8.18\portable\sketchbook\arduino\Eicon\F103CBT6-BluePill-HelloW\build\libraries\SrcWrapper\LL\stm32yyxx_ll_fmpi2c.c.o
LOAD C:\J-Tagit\arduino-1.8.18\portable\sketchbook\arduino\Eicon\F103CBT6-BluePill-HelloW\build\libraries\SrcWrapper\LL\stm32yyxx_ll_fsmc.c.o
LOAD C:\J-Tagit\arduino-1.8.18\portable\sketchbook\arduino\Eicon\F103CBT6-BluePill-HelloW\build\libraries\SrcWrapper\LL\stm32yyxx_ll_gpio.c.o
LOAD C:\J-Tagit\arduino-1.8.18\portable\sketchbook\arduino\Eicon\F103CBT6-BluePill-HelloW\build\libraries\SrcWrapper\LL\stm32yyxx_ll_hrtim.c.o
LOAD C:\J-Tagit\arduino-1.8.18\portable\sketchbook\arduino\Eicon\F103CBT6-BluePill-HelloW\build\libraries\SrcWrapper\LL\stm32yyxx_ll_i2c.c.o
LOAD C:\J-Tagit\arduino-1.8.18\portable\sketchbook\arduino\Eicon\F103CBT6-BluePill-HelloW\build\libraries\SrcWrapper\LL\stm32yyxx_ll_icache.c.o
LOAD C:\J-Tagit\arduino-1.8.18\portable\sketchbook\arduino\Eicon\F103CBT6-BluePill-HelloW\build\libraries\SrcWrapper\LL\stm32yyxx_ll_lpgpio.c.o
LOAD C:\J-Tagit\arduino-1.8.18\portable\sketchbook\arduino\Eicon\F103CBT6-BluePill-HelloW\build\libraries\SrcWrapper\LL\stm32yyxx_ll_lptim.c.o
LOAD C:\J-Tagit\arduino-1.8.18\portable\sketchbook\arduino\Eicon\F103CBT6-BluePill-HelloW\build\libraries\SrcWrapper\LL\stm32yyxx_ll_lpuart.c.o
LOAD C:\J-Tagit\arduino-1.8.18\portable\sketchbook\arduino\Eicon\F103CBT6-BluePill-HelloW\build\libraries\SrcWrapper\LL\stm32yyxx_ll_mdma.c.o
LOAD C:\J-Tagit\arduino-1.8.18\portable\sketchbook\arduino\Eicon\F103CBT6-BluePill-HelloW\build\libraries\SrcWrapper\LL\stm32yyxx_ll_opamp.c.o
LOAD C:\J-Tagit\arduino-1.8.18\portable\sketchbook\arduino\Eicon\F103CBT6-BluePill-HelloW\build\libraries\SrcWrapper\LL\stm32yyxx_ll_pka.c.o
LOAD C:\J-Tagit\arduino-1.8.18\portable\sketchbook\arduino\Eicon\F103CBT6-BluePill-HelloW\build\libraries\SrcWrapper\LL\stm32yyxx_ll_pwr.c.o
LOAD C:\J-Tagit\arduino-1.8.18\portable\sketchbook\arduino\Eicon\F103CBT6-BluePill-HelloW\build\libraries\SrcWrapper\LL\stm32yyxx_ll_rcc.c.o
LOAD C:\J-Tagit\arduino-1.8.18\portable\sketchbook\arduino\Eicon\F103CBT6-BluePill-HelloW\build\libraries\SrcWrapper\LL\stm32yyxx_ll_rng.c.o
LOAD C:\J-Tagit\arduino-1.8.18\portable\sketchbook\arduino\Eicon\F103CBT6-BluePill-HelloW\build\libraries\SrcWrapper\LL\stm32yyxx_ll_rtc.c.o
LOAD C:\J-Tagit\arduino-1.8.18\portable\sketchbook\arduino\Eicon\F103CBT6-BluePill-HelloW\build\libraries\SrcWrapper\LL\stm32yyxx_ll_sdmmc.c.o
LOAD C:\J-Tagit\arduino-1.8.18\portable\sketchbook\arduino\Eicon\F103CBT6-BluePill-HelloW\build\libraries\SrcWrapper\LL\stm32yyxx_ll_spi.c.o
LOAD C:\J-Tagit\arduino-1.8.18\portable\sketchbook\arduino\Eicon\F103CBT6-BluePill-HelloW\build\libraries\SrcWrapper\LL\stm32yyxx_ll_swpmi.c.o
LOAD C:\J-Tagit\arduino-1.8.18\portable\sketchbook\arduino\Eicon\F103CBT6-BluePill-HelloW\build\libraries\SrcWrapper\LL\stm32yyxx_ll_tim.c.o
LOAD C:\J-Tagit\arduino-1.8.18\portable\sketchbook\arduino\Eicon\F103CBT6-BluePill-HelloW\build\libraries\SrcWrapper\LL\stm32yyxx_ll_ucpd.c.o
LOAD C:\J-Tagit\arduino-1.8.18\portable\sketchbook\arduino\Eicon\F103CBT6-BluePill-HelloW\build\libraries\SrcWrapper\LL\stm32yyxx_ll_usart.c.o
LOAD C:\J-Tagit\arduino-1.8.18\portable\sketchbook\arduino\Eicon\F103CBT6-BluePill-HelloW\build\libraries\SrcWrapper\LL\stm32yyxx_ll_usb.c.o
LOAD C:\J-Tagit\arduino-1.8.18\portable\sketchbook\arduino\Eicon\F103CBT6-BluePill-HelloW\build\libraries\SrcWrapper\LL\stm32yyxx_ll_utils.c.o
LOAD C:\J-Tagit\arduino-1.8.18\portable\sketchbook\arduino\Eicon\F103CBT6-BluePill-HelloW\build\libraries\SrcWrapper\stm32\PortNames.c.o
LOAD C:\J-Tagit\arduino-1.8.18\portable\sketchbook\arduino\Eicon\F103CBT6-BluePill-HelloW\build\libraries\SrcWrapper\stm32\bootloader.c.o
LOAD C:\J-Tagit\arduino-1.8.18\portable\sketchbook\arduino\Eicon\F103CBT6-BluePill-HelloW\build\libraries\SrcWrapper\stm32\clock.c.o
LOAD C:\J-Tagit\arduino-1.8.18\portable\sketchbook\arduino\Eicon\F103CBT6-BluePill-HelloW\build\libraries\SrcWrapper\stm32\core_callback.c.o
LOAD C:\J-Tagit\arduino-1.8.18\portable\sketchbook\arduino\Eicon\F103CBT6-BluePill-HelloW\build\libraries\SrcWrapper\stm32\dwt.c.o
LOAD C:\J-Tagit\arduino-1.8.18\portable\sketchbook\arduino\Eicon\F103CBT6-BluePill-HelloW\build\libraries\SrcWrapper\stm32\hw_config.c.o
LOAD C:\J-Tagit\arduino-1.8.18\portable\sketchbook\arduino\Eicon\F103CBT6-BluePill-HelloW\build\libraries\SrcWrapper\stm32\otp.c.o
LOAD C:\J-Tagit\arduino-1.8.18\portable\sketchbook\arduino\Eicon\F103CBT6-BluePill-HelloW\build\libraries\SrcWrapper\stm32\pinmap.c.o
LOAD C:\J-Tagit\arduino-1.8.18\portable\sketchbook\arduino\Eicon\F103CBT6-BluePill-HelloW\build\libraries\SrcWrapper\stm32\stm32_def.c.o
LOAD C:\J-Tagit\arduino-1.8.18\portable\sketchbook\arduino\Eicon\F103CBT6-BluePill-HelloW\build\libraries\SrcWrapper\stm32\system_stm32yyxx.c.o
LOAD C:\J-Tagit\arduino-1.8.18\portable\sketchbook\arduino\Eicon\F103CBT6-BluePill-HelloW\build\libraries\SrcWrapper\stm32\timer.c.o
LOAD C:\J-Tagit\arduino-1.8.18\portable\sketchbook\arduino\Eicon\F103CBT6-BluePill-HelloW\build\libraries\SrcWrapper\stm32\uart.c.o
LOAD C:\J-Tagit\arduino-1.8.18\portable\sketchbook\arduino\Eicon\F103CBT6-BluePill-HelloW\build\libraries\SrcWrapper\stm32\analog.cpp.o
LOAD C:\J-Tagit\arduino-1.8.18\portable\sketchbook\arduino\Eicon\F103CBT6-BluePill-HelloW\build\libraries\SrcWrapper\stm32\interrupt.cpp.o
LOAD C:\J-Tagit\arduino-1.8.18\portable\sketchbook\arduino\Eicon\F103CBT6-BluePill-HelloW\build\core\startup_M200_f103xb.S.o
LOAD C:\J-Tagit\arduino-1.8.18\portable\sketchbook\arduino\Eicon\F103CBT6-BluePill-HelloW\build\core\PeripheralPins.c.o
LOAD C:\J-Tagit\arduino-1.8.18\portable\sketchbook\arduino\Eicon\F103CBT6-BluePill-HelloW\build\core\variant_F103CBT6.cpp.o
LOAD C:\J-Tagit\arduino-1.8.18\portable\sketchbook\arduino\Eicon\F103CBT6-BluePill-HelloW\build\core\core.a
LOAD c:/j-tagit/arduino-1.8.18/portable/packages/eicon/tools/xpack-arm-none-eabi-gcc/bin/../lib/gcc/arm-none-eabi/10.3.1/../../../../arm-none-eabi/lib/thumb/v7-m/nofp\libc_nano.a
END GROUP
LOAD c:/j-tagit/arduino-1.8.18/portable/packages/eicon/tools/xpack-arm-none-eabi-gcc/bin/../lib/gcc/arm-none-eabi/10.3.1/../../../../arm-none-eabi/lib/thumb/v7-m/nofp\libm.a
LOAD c:/j-tagit/arduino-1.8.18/portable/packages/eicon/tools/xpack-arm-none-eabi-gcc/bin/../lib/gcc/arm-none-eabi/10.3.1/thumb/v7-m/nofp\libgcc.a
LOAD c:/j-tagit/arduino-1.8.18/portable/packages/eicon/tools/xpack-arm-none-eabi-gcc/bin/../lib/gcc/arm-none-eabi/10.3.1/../../../../arm-none-eabi/lib/thumb/v7-m/nofp\libstdc++_nano.a
START GROUP
LOAD c:/j-tagit/arduino-1.8.18/portable/packages/eicon/tools/xpack-arm-none-eabi-gcc/bin/../lib/gcc/arm-none-eabi/10.3.1/thumb/v7-m/nofp\libgcc.a
LOAD c:/j-tagit/arduino-1.8.18/portable/packages/eicon/tools/xpack-arm-none-eabi-gcc/bin/../lib/gcc/arm-none-eabi/10.3.1/../../../../arm-none-eabi/lib/thumb/v7-m/nofp\libc_nano.a
END GROUP
START GROUP
LOAD c:/j-tagit/arduino-1.8.18/portable/packages/eicon/tools/xpack-arm-none-eabi-gcc/bin/../lib/gcc/arm-none-eabi/10.3.1/thumb/v7-m/nofp\libgcc.a
LOAD c:/j-tagit/arduino-1.8.18/portable/packages/eicon/tools/xpack-arm-none-eabi-gcc/bin/../lib/gcc/arm-none-eabi/10.3.1/../../../../arm-none-eabi/lib/thumb/v7-m/nofp\libc_nano.a
END GROUP
LOAD c:/j-tagit/arduino-1.8.18/portable/packages/eicon/tools/xpack-arm-none-eabi-gcc/bin/../lib/gcc/arm-none-eabi/10.3.1/thumb/v7-m/nofp/crtend.o
LOAD c:/j-tagit/arduino-1.8.18/portable/packages/eicon/tools/xpack-arm-none-eabi-gcc/bin/../lib/gcc/arm-none-eabi/10.3.1/thumb/v7-m/nofp/crtn.o
                0x20005000                _estack = (ORIGIN (RAM) + LENGTH (RAM))
                0x00000200                _Min_Heap_Size = 0x200
                0x00000400                _Min_Stack_Size = 0x400

.isr_vector     0x08000000      0x10c
                0x08000000                . = ALIGN (0x4)
 *(.isr_vector)
 .isr_vector    0x08000000      0x10c C:\J-Tagit\arduino-1.8.18\portable\sketchbook\arduino\Eicon\F103CBT6-BluePill-HelloW\build\core\startup_M200_f103xb.S.o
                0x08000000                g_pfnVectors
                0x0800010c                . = ALIGN (0x4)

.text           0x0800010c     0x2a6c
                0x0800010c                . = ALIGN (0x4)
 *(.text)
 .text          0x0800010c       0x10 c:/j-tagit/arduino-1.8.18/portable/packages/eicon/tools/xpack-arm-none-eabi-gcc/bin/../lib/gcc/arm-none-eabi/10.3.1/../../../../arm-none-eabi/lib/thumb/v7-m/nofp\libc_nano.a(lib_a-strlen.o)
                0x0800010c                strlen
 *(.text*)
 .text.__do_global_dtors_aux
                0x0800011c       0x24 c:/j-tagit/arduino-1.8.18/portable/packages/eicon/tools/xpack-arm-none-eabi-gcc/bin/../lib/gcc/arm-none-eabi/10.3.1/thumb/v7-m/nofp/crtbegin.o
 .text.frame_dummy
                0x08000140       0x1c c:/j-tagit/arduino-1.8.18/portable/packages/eicon/tools/xpack-arm-none-eabi-gcc/bin/../lib/gcc/arm-none-eabi/10.3.1/thumb/v7-m/nofp/crtbegin.o
 .text.setup    0x0800015c       0x20 C:\J-Tagit\arduino-1.8.18\portable\sketchbook\arduino\Eicon\F103CBT6-BluePill-HelloW\build\sketch\F103CBT6-BluePill-HelloW.ino.cpp.o
                0x0800015c                setup
 .text.loop     0x0800017c       0x44 C:\J-Tagit\arduino-1.8.18\portable\sketchbook\arduino\Eicon\F103CBT6-BluePill-HelloW\build\sketch\F103CBT6-BluePill-HelloW.ino.cpp.o
                0x0800017c                loop
 .text._sbrk    0x080001c0       0x3c C:\J-Tagit\arduino-1.8.18\portable\sketchbook\arduino\Eicon\F103CBT6-BluePill-HelloW\build\libraries\SrcWrapper\syscalls.c.o
                0x080001c0                _sbrk
 .text._exit    0x080001fc        0x2 C:\J-Tagit\arduino-1.8.18\portable\sketchbook\arduino\Eicon\F103CBT6-BluePill-HelloW\build\libraries\SrcWrapper\syscalls.c.o
                0x080001fc                _exit
 *fill*         0x080001fe        0x2 
 .text._kill    0x08000200       0x10 C:\J-Tagit\arduino-1.8.18\portable\sketchbook\arduino\Eicon\F103CBT6-BluePill-HelloW\build\libraries\SrcWrapper\syscalls.c.o
                0x08000200                _kill
 .text._getpid  0x08000210        0x4 C:\J-Tagit\arduino-1.8.18\portable\sketchbook\arduino\Eicon\F103CBT6-BluePill-HelloW\build\libraries\SrcWrapper\syscalls.c.o
                0x08000210                _getpid
 .text.HAL_MspInit
                0x08000214        0x2 C:\J-Tagit\arduino-1.8.18\portable\sketchbook\arduino\Eicon\F103CBT6-BluePill-HelloW\build\libraries\SrcWrapper\HAL\stm32yyxx_hal.c.o
                0x08000214                HAL_MspInit
 *fill*         0x08000216        0x2 
 .text.HAL_InitTick
                0x08000218       0x48 C:\J-Tagit\arduino-1.8.18\portable\sketchbook\arduino\Eicon\F103CBT6-BluePill-HelloW\build\libraries\SrcWrapper\HAL\stm32yyxx_hal.c.o
                0x08000218                HAL_InitTick
 .text.HAL_Init
                0x08000260       0x24 C:\J-Tagit\arduino-1.8.18\portable\sketchbook\arduino\Eicon\F103CBT6-BluePill-HelloW\build\libraries\SrcWrapper\HAL\stm32yyxx_hal.c.o
                0x08000260                HAL_Init
 .text.HAL_IncTick
                0x08000284       0x18 C:\J-Tagit\arduino-1.8.18\portable\sketchbook\arduino\Eicon\F103CBT6-BluePill-HelloW\build\libraries\SrcWrapper\HAL\stm32yyxx_hal.c.o
                0x08000284                HAL_IncTick
 .text.HAL_GetTick
                0x0800029c        0xc C:\J-Tagit\arduino-1.8.18\portable\sketchbook\arduino\Eicon\F103CBT6-BluePill-HelloW\build\libraries\SrcWrapper\HAL\stm32yyxx_hal.c.o
                0x0800029c                HAL_GetTick
 .text.HAL_NVIC_SetPriorityGrouping
                0x080002a8       0x24 C:\J-Tagit\arduino-1.8.18\portable\sketchbook\arduino\Eicon\F103CBT6-BluePill-HelloW\build\libraries\SrcWrapper\HAL\stm32yyxx_hal_cortex.c.o
                0x080002a8                HAL_NVIC_SetPriorityGrouping
 .text.HAL_NVIC_SetPriority
                0x080002cc       0x64 C:\J-Tagit\arduino-1.8.18\portable\sketchbook\arduino\Eicon\F103CBT6-BluePill-HelloW\build\libraries\SrcWrapper\HAL\stm32yyxx_hal_cortex.c.o
                0x080002cc                HAL_NVIC_SetPriority
 .text.HAL_NVIC_EnableIRQ
                0x08000330       0x1c C:\J-Tagit\arduino-1.8.18\portable\sketchbook\arduino\Eicon\F103CBT6-BluePill-HelloW\build\libraries\SrcWrapper\HAL\stm32yyxx_hal_cortex.c.o
                0x08000330                HAL_NVIC_EnableIRQ
 .text.HAL_NVIC_DisableIRQ
                0x0800034c       0x28 C:\J-Tagit\arduino-1.8.18\portable\sketchbook\arduino\Eicon\F103CBT6-BluePill-HelloW\build\libraries\SrcWrapper\HAL\stm32yyxx_hal_cortex.c.o
                0x0800034c                HAL_NVIC_DisableIRQ
 .text.HAL_SYSTICK_Config
                0x08000374       0x28 C:\J-Tagit\arduino-1.8.18\portable\sketchbook\arduino\Eicon\F103CBT6-BluePill-HelloW\build\libraries\SrcWrapper\HAL\stm32yyxx_hal_cortex.c.o
                0x08000374                HAL_SYSTICK_Config
 .text.HAL_NVIC_ClearPendingIRQ
                0x0800039c       0x20 C:\J-Tagit\arduino-1.8.18\portable\sketchbook\arduino\Eicon\F103CBT6-BluePill-HelloW\build\libraries\SrcWrapper\HAL\stm32yyxx_hal_cortex.c.o
                0x0800039c                HAL_NVIC_ClearPendingIRQ
 .text.HAL_SYSTICK_Callback
                0x080003bc        0x2 C:\J-Tagit\arduino-1.8.18\portable\sketchbook\arduino\Eicon\F103CBT6-BluePill-HelloW\build\libraries\SrcWrapper\HAL\stm32yyxx_hal_cortex.c.o
                0x080003bc                HAL_SYSTICK_Callback
 .text.HAL_SYSTICK_IRQHandler
                0x080003be        0x8 C:\J-Tagit\arduino-1.8.18\portable\sketchbook\arduino\Eicon\F103CBT6-BluePill-HelloW\build\libraries\SrcWrapper\HAL\stm32yyxx_hal_cortex.c.o
                0x080003be                HAL_SYSTICK_IRQHandler
 .text.HAL_DMA_Abort
                0x080003c6       0x3c C:\J-Tagit\arduino-1.8.18\portable\sketchbook\arduino\Eicon\F103CBT6-BluePill-HelloW\build\libraries\SrcWrapper\HAL\stm32yyxx_hal_dma.c.o
                0x080003c6                HAL_DMA_Abort
 *fill*         0x08000402        0x2 
 .text.HAL_DMA_Abort_IT
                0x08000404       0x8c C:\J-Tagit\arduino-1.8.18\portable\sketchbook\arduino\Eicon\F103CBT6-BluePill-HelloW\build\libraries\SrcWrapper\HAL\stm32yyxx_hal_dma.c.o
                0x08000404                HAL_DMA_Abort_IT
 .text.HAL_GPIO_EXTI_IRQHandler
                0x08000490       0x18 C:\J-Tagit\arduino-1.8.18\portable\sketchbook\arduino\Eicon\F103CBT6-BluePill-HelloW\build\libraries\SrcWrapper\HAL\stm32yyxx_hal_gpio.c.o
                0x08000490                HAL_GPIO_EXTI_IRQHandler
 .text.HAL_RCC_OscConfig
                0x080004a8      0x338 C:\J-Tagit\arduino-1.8.18\portable\sketchbook\arduino\Eicon\F103CBT6-BluePill-HelloW\build\libraries\SrcWrapper\HAL\stm32yyxx_hal_rcc.c.o
                0x080004a8                HAL_RCC_OscConfig
 .text.HAL_RCC_GetSysClockFreq
                0x080007e0       0x74 C:\J-Tagit\arduino-1.8.18\portable\sketchbook\arduino\Eicon\F103CBT6-BluePill-HelloW\build\libraries\SrcWrapper\HAL\stm32yyxx_hal_rcc.c.o
                0x080007e0                HAL_RCC_GetSysClockFreq
 .text.HAL_RCC_ClockConfig
                0x08000854      0x138 C:\J-Tagit\arduino-1.8.18\portable\sketchbook\arduino\Eicon\F103CBT6-BluePill-HelloW\build\libraries\SrcWrapper\HAL\stm32yyxx_hal_rcc.c.o
                0x08000854                HAL_RCC_ClockConfig
 .text.HAL_RCC_GetPCLK1Freq
                0x0800098c       0x20 C:\J-Tagit\arduino-1.8.18\portable\sketchbook\arduino\Eicon\F103CBT6-BluePill-HelloW\build\libraries\SrcWrapper\HAL\stm32yyxx_hal_rcc.c.o
                0x0800098c                HAL_RCC_GetPCLK1Freq
 .text.HAL_RCC_GetPCLK2Freq
                0x080009ac       0x20 C:\J-Tagit\arduino-1.8.18\portable\sketchbook\arduino\Eicon\F103CBT6-BluePill-HelloW\build\libraries\SrcWrapper\HAL\stm32yyxx_hal_rcc.c.o
                0x080009ac                HAL_RCC_GetPCLK2Freq
 .text.HAL_RCCEx_PeriphCLKConfig
                0x080009cc       0xf4 C:\J-Tagit\arduino-1.8.18\portable\sketchbook\arduino\Eicon\F103CBT6-BluePill-HelloW\build\libraries\SrcWrapper\HAL\stm32yyxx_hal_rcc_ex.c.o
                0x080009cc                HAL_RCCEx_PeriphCLKConfig
 .text.HAL_TIM_PWM_PulseFinishedCallback
                0x08000ac0        0x2 C:\J-Tagit\arduino-1.8.18\portable\sketchbook\arduino\Eicon\F103CBT6-BluePill-HelloW\build\libraries\SrcWrapper\HAL\stm32yyxx_hal_tim.c.o
                0x08000ac0                HAL_TIM_PWM_PulseFinishedCallback
 .text.HAL_TIM_TriggerCallback
                0x08000ac2        0x2 C:\J-Tagit\arduino-1.8.18\portable\sketchbook\arduino\Eicon\F103CBT6-BluePill-HelloW\build\libraries\SrcWrapper\HAL\stm32yyxx_hal_tim.c.o
                0x08000ac2                HAL_TIM_TriggerCallback
 .text.HAL_TIM_IRQHandler
                0x08000ac4      0x144 C:\J-Tagit\arduino-1.8.18\portable\sketchbook\arduino\Eicon\F103CBT6-BluePill-HelloW\build\libraries\SrcWrapper\HAL\stm32yyxx_hal_tim.c.o
                0x08000ac4                HAL_TIM_IRQHandler
 .text.TIM_Base_SetConfig
                0x08000c08       0x70 C:\J-Tagit\arduino-1.8.18\portable\sketchbook\arduino\Eicon\F103CBT6-BluePill-HelloW\build\libraries\SrcWrapper\HAL\stm32yyxx_hal_tim.c.o
                0x08000c08                TIM_Base_SetConfig
 .text.HAL_TIM_Base_Init
                0x08000c78       0x58 C:\J-Tagit\arduino-1.8.18\portable\sketchbook\arduino\Eicon\F103CBT6-BluePill-HelloW\build\libraries\SrcWrapper\HAL\stm32yyxx_hal_tim.c.o
                0x08000c78                HAL_TIM_Base_Init
 .text.HAL_TIMEx_CommutCallback
                0x08000cd0        0x2 C:\J-Tagit\arduino-1.8.18\portable\sketchbook\arduino\Eicon\F103CBT6-BluePill-HelloW\build\libraries\SrcWrapper\HAL\stm32yyxx_hal_tim_ex.c.o
                0x08000cd0                HAL_TIMEx_CommutCallback
 .text.HAL_TIMEx_BreakCallback
                0x08000cd2        0x2 C:\J-Tagit\arduino-1.8.18\portable\sketchbook\arduino\Eicon\F103CBT6-BluePill-HelloW\build\libraries\SrcWrapper\HAL\stm32yyxx_hal_tim_ex.c.o
                0x08000cd2                HAL_TIMEx_BreakCallback
 .text.UART_EndRxTransfer
                0x08000cd4       0x2c C:\J-Tagit\arduino-1.8.18\portable\sketchbook\arduino\Eicon\F103CBT6-BluePill-HelloW\build\libraries\SrcWrapper\HAL\stm32yyxx_hal_uart.c.o
 .text.UART_SetConfig
                0x08000d00       0x74 C:\J-Tagit\arduino-1.8.18\portable\sketchbook\arduino\Eicon\F103CBT6-BluePill-HelloW\build\libraries\SrcWrapper\HAL\stm32yyxx_hal_uart.c.o
 .text.HAL_UART_MspInit
                0x08000d74        0x2 C:\J-Tagit\arduino-1.8.18\portable\sketchbook\arduino\Eicon\F103CBT6-BluePill-HelloW\build\libraries\SrcWrapper\HAL\stm32yyxx_hal_uart.c.o
                0x08000d74                HAL_UART_MspInit
 .text.HAL_UART_Init
                0x08000d76       0x5c C:\J-Tagit\arduino-1.8.18\portable\sketchbook\arduino\Eicon\F103CBT6-BluePill-HelloW\build\libraries\SrcWrapper\HAL\stm32yyxx_hal_uart.c.o
                0x08000d76                HAL_UART_Init
 .text.HAL_HalfDuplex_Init
                0x08000dd2       0x64 C:\J-Tagit\arduino-1.8.18\portable\sketchbook\arduino\Eicon\F103CBT6-BluePill-HelloW\build\libraries\SrcWrapper\HAL\stm32yyxx_hal_uart.c.o
                0x08000dd2                HAL_HalfDuplex_Init
 .text.HAL_UART_Transmit_IT
                0x08000e36       0x3e C:\J-Tagit\arduino-1.8.18\portable\sketchbook\arduino\Eicon\F103CBT6-BluePill-HelloW\build\libraries\SrcWrapper\HAL\stm32yyxx_hal_uart.c.o
                0x08000e36                HAL_UART_Transmit_IT
 .text.UART_DMAAbortOnError
                0x08000e74       0x10 C:\J-Tagit\arduino-1.8.18\portable\sketchbook\arduino\Eicon\F103CBT6-BluePill-HelloW\build\libraries\SrcWrapper\HAL\stm32yyxx_hal_uart.c.o
 .text.HAL_UARTEx_RxEventCallback
                0x08000e84        0x2 C:\J-Tagit\arduino-1.8.18\portable\sketchbook\arduino\Eicon\F103CBT6-BluePill-HelloW\build\libraries\SrcWrapper\HAL\stm32yyxx_hal_uart.c.o
                0x08000e84                HAL_UARTEx_RxEventCallback
 .text.UART_Receive_IT.part.0.isra.0
                0x08000e86       0x98 C:\J-Tagit\arduino-1.8.18\portable\sketchbook\arduino\Eicon\F103CBT6-BluePill-HelloW\build\libraries\SrcWrapper\HAL\stm32yyxx_hal_uart.c.o
 *fill*         0x08000f1e        0x2 
 .text.HAL_UART_IRQHandler
                0x08000f20      0x210 C:\J-Tagit\arduino-1.8.18\portable\sketchbook\arduino\Eicon\F103CBT6-BluePill-HelloW\build\libraries\SrcWrapper\HAL\stm32yyxx_hal_uart.c.o
                0x08000f20                HAL_UART_IRQHandler
 .text.HAL_HalfDuplex_EnableTransmitter
                0x08001130       0x30 C:\J-Tagit\arduino-1.8.18\portable\sketchbook\arduino\Eicon\F103CBT6-BluePill-HelloW\build\libraries\SrcWrapper\HAL\stm32yyxx_hal_uart.c.o
                0x08001130                HAL_HalfDuplex_EnableTransmitter
 .text.HAL_HalfDuplex_EnableReceiver
                0x08001160       0x30 C:\J-Tagit\arduino-1.8.18\portable\sketchbook\arduino\Eicon\F103CBT6-BluePill-HelloW\build\libraries\SrcWrapper\HAL\stm32yyxx_hal_uart.c.o
                0x08001160                HAL_HalfDuplex_EnableReceiver
 .text.HAL_UART_GetState
                0x08001190        0xc C:\J-Tagit\arduino-1.8.18\portable\sketchbook\arduino\Eicon\F103CBT6-BluePill-HelloW\build\libraries\SrcWrapper\HAL\stm32yyxx_hal_uart.c.o
                0x08001190                HAL_UART_GetState
 .text.UART_Start_Receive_IT
                0x0800119c       0x32 C:\J-Tagit\arduino-1.8.18\portable\sketchbook\arduino\Eicon\F103CBT6-BluePill-HelloW\build\libraries\SrcWrapper\HAL\stm32yyxx_hal_uart.c.o
                0x0800119c                UART_Start_Receive_IT
 .text.HAL_UART_Receive_IT
                0x080011ce       0x30 C:\J-Tagit\arduino-1.8.18\portable\sketchbook\arduino\Eicon\F103CBT6-BluePill-HelloW\build\libraries\SrcWrapper\HAL\stm32yyxx_hal_uart.c.o
                0x080011ce                HAL_UART_Receive_IT
 *fill*         0x080011fe        0x2 
 .text.set_GPIO_Port_Clock
                0x08001200       0xa8 C:\J-Tagit\arduino-1.8.18\portable\sketchbook\arduino\Eicon\F103CBT6-BluePill-HelloW\build\libraries\SrcWrapper\stm32\PortNames.c.o
                0x08001200                set_GPIO_Port_Clock
 .text.getCurrentMillis
                0x080012a8        0x4 C:\J-Tagit\arduino-1.8.18\portable\sketchbook\arduino\Eicon\F103CBT6-BluePill-HelloW\build\libraries\SrcWrapper\stm32\clock.c.o
                0x080012a8                getCurrentMillis
 .text.noOsSystickHandler
                0x080012ac        0x2 C:\J-Tagit\arduino-1.8.18\portable\sketchbook\arduino\Eicon\F103CBT6-BluePill-HelloW\build\libraries\SrcWrapper\stm32\clock.c.o
                0x080012ac                osSystickHandler
                0x080012ac                noOsSystickHandler
 .text.SysTick_Handler
                0x080012ae       0x10 C:\J-Tagit\arduino-1.8.18\portable\sketchbook\arduino\Eicon\F103CBT6-BluePill-HelloW\build\libraries\SrcWrapper\stm32\clock.c.o
                0x080012ae                SysTick_Handler
 .text.configHSECapacitorTuning
                0x080012be        0x2 C:\J-Tagit\arduino-1.8.18\portable\sketchbook\arduino\Eicon\F103CBT6-BluePill-HelloW\build\libraries\SrcWrapper\stm32\clock.c.o
                0x080012be                configHSECapacitorTuning
 .text.configIPClock
                0x080012c0       0x30 C:\J-Tagit\arduino-1.8.18\portable\sketchbook\arduino\Eicon\F103CBT6-BluePill-HelloW\build\libraries\SrcWrapper\stm32\clock.c.o
                0x080012c0                configIPClock
 .text.dwt_init
                0x080012f0       0x3c C:\J-Tagit\arduino-1.8.18\portable\sketchbook\arduino\Eicon\F103CBT6-BluePill-HelloW\build\libraries\SrcWrapper\stm32\dwt.c.o
                0x080012f0                dwt_init
 .text.hw_config_init
                0x0800132c       0x1a C:\J-Tagit\arduino-1.8.18\portable\sketchbook\arduino\Eicon\F103CBT6-BluePill-HelloW\build\libraries\SrcWrapper\stm32\hw_config.c.o
                0x0800132c                hw_config_init
 *fill*         0x08001346        0x2 
 .text.pin_SetF1AFPin
                0x08001348      0x1f8 C:\J-Tagit\arduino-1.8.18\portable\sketchbook\arduino\Eicon\F103CBT6-BluePill-HelloW\build\libraries\SrcWrapper\stm32\pinmap.c.o
 .text.LL_GPIO_SetPinMode
                0x08001540       0x2e C:\J-Tagit\arduino-1.8.18\portable\sketchbook\arduino\Eicon\F103CBT6-BluePill-HelloW\build\libraries\SrcWrapper\stm32\pinmap.c.o
 .text.LL_GPIO_SetPinOutputType
                0x0800156e       0x2e C:\J-Tagit\arduino-1.8.18\portable\sketchbook\arduino\Eicon\F103CBT6-BluePill-HelloW\build\libraries\SrcWrapper\stm32\pinmap.c.o
 .text.pin_in_pinmap
                0x0800159c       0x1e C:\J-Tagit\arduino-1.8.18\portable\sketchbook\arduino\Eicon\F103CBT6-BluePill-HelloW\build\libraries\SrcWrapper\stm32\pinmap.c.o
                0x0800159c                pin_in_pinmap
 *fill*         0x080015ba        0x2 
 .text.pin_function
                0x080015bc      0x18c C:\J-Tagit\arduino-1.8.18\portable\sketchbook\arduino\Eicon\F103CBT6-BluePill-HelloW\build\libraries\SrcWrapper\stm32\pinmap.c.o
                0x080015bc                pin_function
 .text.pinmap_pinout
                0x08001748       0x28 C:\J-Tagit\arduino-1.8.18\portable\sketchbook\arduino\Eicon\F103CBT6-BluePill-HelloW\build\libraries\SrcWrapper\stm32\pinmap.c.o
                0x08001748                pinmap_pinout
 .text.pinmap_find_peripheral
                0x08001770       0x16 C:\J-Tagit\arduino-1.8.18\portable\sketchbook\arduino\Eicon\F103CBT6-BluePill-HelloW\build\libraries\SrcWrapper\stm32\pinmap.c.o
                0x08001770                pinmap_find_peripheral
 .text.pinmap_peripheral
                0x08001786        0xc C:\J-Tagit\arduino-1.8.18\portable\sketchbook\arduino\Eicon\F103CBT6-BluePill-HelloW\build\libraries\SrcWrapper\stm32\pinmap.c.o
                0x08001786                pinmap_peripheral
 .text.pinmap_find_pin
                0x08001792       0x16 C:\J-Tagit\arduino-1.8.18\portable\sketchbook\arduino\Eicon\F103CBT6-BluePill-HelloW\build\libraries\SrcWrapper\stm32\pinmap.c.o
                0x08001792                pinmap_find_pin
 .text.pinmap_pin
                0x080017a8        0xc C:\J-Tagit\arduino-1.8.18\portable\sketchbook\arduino\Eicon\F103CBT6-BluePill-HelloW\build\libraries\SrcWrapper\stm32\pinmap.c.o
                0x080017a8                pinmap_pin
 .text.pinmap_merge_peripheral
                0x080017b4       0x14 C:\J-Tagit\arduino-1.8.18\portable\sketchbook\arduino\Eicon\F103CBT6-BluePill-HelloW\build\libraries\SrcWrapper\stm32\pinmap.c.o
                0x080017b4                pinmap_merge_peripheral
 .text._Error_Handler
                0x080017c8        0x2 C:\J-Tagit\arduino-1.8.18\portable\sketchbook\arduino\Eicon\F103CBT6-BluePill-HelloW\build\libraries\SrcWrapper\stm32\stm32_def.c.o
                0x080017c8                _Error_Handler
 *fill*         0x080017ca        0x2 
 .text.SystemInit
                0x080017cc       0x4c C:\J-Tagit\arduino-1.8.18\portable\sketchbook\arduino\Eicon\F103CBT6-BluePill-HelloW\build\libraries\SrcWrapper\stm32\system_stm32yyxx.c.o
                0x080017cc                SystemInit
 .text.get_timer_obj
                0x08001818        0x4 C:\J-Tagit\arduino-1.8.18\portable\sketchbook\arduino\Eicon\F103CBT6-BluePill-HelloW\build\libraries\SrcWrapper\stm32\timer.c.o
                0x08001818                get_timer_obj
 .text.enableTimerClock
                0x0800181c       0x88 C:\J-Tagit\arduino-1.8.18\portable\sketchbook\arduino\Eicon\F103CBT6-BluePill-HelloW\build\libraries\SrcWrapper\stm32\timer.c.o
                0x0800181c                enableTimerClock
 .text.disableTimerClock
                0x080018a4       0x5c C:\J-Tagit\arduino-1.8.18\portable\sketchbook\arduino\Eicon\F103CBT6-BluePill-HelloW\build\libraries\SrcWrapper\stm32\timer.c.o
                0x080018a4                disableTimerClock
 .text.getTimerUpIrq
                0x08001900       0x4c C:\J-Tagit\arduino-1.8.18\portable\sketchbook\arduino\Eicon\F103CBT6-BluePill-HelloW\build\libraries\SrcWrapper\stm32\timer.c.o
                0x08001900                getTimerUpIrq
 .text.getTimerCCIrq
                0x0800194c       0x4c C:\J-Tagit\arduino-1.8.18\portable\sketchbook\arduino\Eicon\F103CBT6-BluePill-HelloW\build\libraries\SrcWrapper\stm32\timer.c.o
                0x0800194c                getTimerCCIrq
 .text.HAL_TIM_Base_MspInit
                0x08001998       0x50 C:\J-Tagit\arduino-1.8.18\portable\sketchbook\arduino\Eicon\F103CBT6-BluePill-HelloW\build\libraries\SrcWrapper\stm32\timer.c.o
                0x08001998                HAL_TIM_Base_MspInit
 .text.uart_init.part.0
                0x080019e8      0x150 C:\J-Tagit\arduino-1.8.18\portable\sketchbook\arduino\Eicon\F103CBT6-BluePill-HelloW\build\libraries\SrcWrapper\stm32\uart.c.o
 .text.uart_init
                0x08001b38        0xe C:\J-Tagit\arduino-1.8.18\portable\sketchbook\arduino\Eicon\F103CBT6-BluePill-HelloW\build\libraries\SrcWrapper\stm32\uart.c.o
                0x08001b38                uart_init
 *fill*         0x08001b46        0x2 
 .text.serial_rx_active
                0x08001b48       0x24 C:\J-Tagit\arduino-1.8.18\portable\sketchbook\arduino\Eicon\F103CBT6-BluePill-HelloW\build\libraries\SrcWrapper\stm32\uart.c.o
                0x08001b48                serial_rx_active
 .text.serial_tx_active
                0x08001b6c       0x24 C:\J-Tagit\arduino-1.8.18\portable\sketchbook\arduino\Eicon\F103CBT6-BluePill-HelloW\build\libraries\SrcWrapper\stm32\uart.c.o
                0x08001b6c                serial_tx_active
 .text.uart_getc
                0x08001b90       0x38 C:\J-Tagit\arduino-1.8.18\portable\sketchbook\arduino\Eicon\F103CBT6-BluePill-HelloW\build\libraries\SrcWrapper\stm32\uart.c.o
                0x08001b90                uart_getc
 .text.uart_attach_rx_callback
                0x08001bc8       0x40 C:\J-Tagit\arduino-1.8.18\portable\sketchbook\arduino\Eicon\F103CBT6-BluePill-HelloW\build\libraries\SrcWrapper\stm32\uart.c.o
                0x08001bc8                uart_attach_rx_callback
 .text.uart_attach_tx_callback
                0x08001c08       0x40 C:\J-Tagit\arduino-1.8.18\portable\sketchbook\arduino\Eicon\F103CBT6-BluePill-HelloW\build\libraries\SrcWrapper\stm32\uart.c.o
                0x08001c08                uart_attach_tx_callback
 .text.uart_enable_tx
                0x08001c48       0x1c C:\J-Tagit\arduino-1.8.18\portable\sketchbook\arduino\Eicon\F103CBT6-BluePill-HelloW\build\libraries\SrcWrapper\stm32\uart.c.o
                0x08001c48                uart_enable_tx
 .text.uart_enable_rx
                0x08001c64       0x1c C:\J-Tagit\arduino-1.8.18\portable\sketchbook\arduino\Eicon\F103CBT6-BluePill-HelloW\build\libraries\SrcWrapper\stm32\uart.c.o
                0x08001c64                uart_enable_rx
 .text.HAL_UART_RxCpltCallback
                0x08001c80        0x6 C:\J-Tagit\arduino-1.8.18\portable\sketchbook\arduino\Eicon\F103CBT6-BluePill-HelloW\build\libraries\SrcWrapper\stm32\uart.c.o
                0x08001c80                HAL_UART_RxCpltCallback
 .text.HAL_UART_TxCpltCallback
                0x08001c86        0x6 C:\J-Tagit\arduino-1.8.18\portable\sketchbook\arduino\Eicon\F103CBT6-BluePill-HelloW\build\libraries\SrcWrapper\stm32\uart.c.o
                0x08001c86                HAL_UART_TxCpltCallback
 .text.HAL_UART_ErrorCallback
                0x08001c8c       0x7a C:\J-Tagit\arduino-1.8.18\portable\sketchbook\arduino\Eicon\F103CBT6-BluePill-HelloW\build\libraries\SrcWrapper\stm32\uart.c.o
                0x08001c8c                HAL_UART_ErrorCallback
 *fill*         0x08001d06        0x2 
 .text.USART1_IRQHandler
                0x08001d08       0x18 C:\J-Tagit\arduino-1.8.18\portable\sketchbook\arduino\Eicon\F103CBT6-BluePill-HelloW\build\libraries\SrcWrapper\stm32\uart.c.o
                0x08001d08                USART1_IRQHandler
 .text.USART2_IRQHandler
                0x08001d20       0x1c C:\J-Tagit\arduino-1.8.18\portable\sketchbook\arduino\Eicon\F103CBT6-BluePill-HelloW\build\libraries\SrcWrapper\stm32\uart.c.o
                0x08001d20                USART2_IRQHandler
 .text.USART3_IRQHandler
                0x08001d3c       0x1c C:\J-Tagit\arduino-1.8.18\portable\sketchbook\arduino\Eicon\F103CBT6-BluePill-HelloW\build\libraries\SrcWrapper\stm32\uart.c.o
                0x08001d3c                USART3_IRQHandler
 .text.pwm_stop
                0x08001d58       0x5c C:\J-Tagit\arduino-1.8.18\portable\sketchbook\arduino\Eicon\F103CBT6-BluePill-HelloW\build\libraries\SrcWrapper\stm32\analog.cpp.o
                0x08001d58                pwm_stop
 .text._ZNSt14_Function_baseD2Ev
                0x08001db4       0x12 C:\J-Tagit\arduino-1.8.18\portable\sketchbook\arduino\Eicon\F103CBT6-BluePill-HelloW\build\libraries\SrcWrapper\stm32\interrupt.cpp.o
                0x08001db4                std::_Function_base::~_Function_base()
                0x08001db4                std::_Function_base::~_Function_base()
 *fill*         0x08001dc6        0x2 
 .text.HAL_GPIO_EXTI_Callback
                0x08001dc8       0x2c C:\J-Tagit\arduino-1.8.18\portable\sketchbook\arduino\Eicon\F103CBT6-BluePill-HelloW\build\libraries\SrcWrapper\stm32\interrupt.cpp.o
                0x08001dc8                HAL_GPIO_EXTI_Callback
 .text.EXTI0_IRQHandler
                0x08001df4        0x6 C:\J-Tagit\arduino-1.8.18\portable\sketchbook\arduino\Eicon\F103CBT6-BluePill-HelloW\build\libraries\SrcWrapper\stm32\interrupt.cpp.o
                0x08001df4                EXTI0_IRQHandler
 .text.EXTI1_IRQHandler
                0x08001dfa        0x6 C:\J-Tagit\arduino-1.8.18\portable\sketchbook\arduino\Eicon\F103CBT6-BluePill-HelloW\build\libraries\SrcWrapper\stm32\interrupt.cpp.o
                0x08001dfa                EXTI1_IRQHandler
 .text.EXTI2_IRQHandler
                0x08001e00        0x6 C:\J-Tagit\arduino-1.8.18\portable\sketchbook\arduino\Eicon\F103CBT6-BluePill-HelloW\build\libraries\SrcWrapper\stm32\interrupt.cpp.o
                0x08001e00                EXTI2_IRQHandler
 .text.EXTI3_IRQHandler
                0x08001e06        0x6 C:\J-Tagit\arduino-1.8.18\portable\sketchbook\arduino\Eicon\F103CBT6-BluePill-HelloW\build\libraries\SrcWrapper\stm32\interrupt.cpp.o
                0x08001e06                EXTI3_IRQHandler
 .text.EXTI4_IRQHandler
                0x08001e0c        0x6 C:\J-Tagit\arduino-1.8.18\portable\sketchbook\arduino\Eicon\F103CBT6-BluePill-HelloW\build\libraries\SrcWrapper\stm32\interrupt.cpp.o
                0x08001e0c                EXTI4_IRQHandler
 .text.EXTI9_5_IRQHandler
                0x08001e12       0x16 C:\J-Tagit\arduino-1.8.18\portable\sketchbook\arduino\Eicon\F103CBT6-BluePill-HelloW\build\libraries\SrcWrapper\stm32\interrupt.cpp.o
                0x08001e12                EXTI9_5_IRQHandler
 .text.EXTI15_10_IRQHandler
                0x08001e28       0x18 C:\J-Tagit\arduino-1.8.18\portable\sketchbook\arduino\Eicon\F103CBT6-BluePill-HelloW\build\libraries\SrcWrapper\stm32\interrupt.cpp.o
                0x08001e28                EXTI15_10_IRQHandler
 .text.startup._GLOBAL__sub_I__Z22stm32_interrupt_enableP12GPIO_TypeDeftSt8functionIFvvEEm
                0x08001e40       0x88 C:\J-Tagit\arduino-1.8.18\portable\sketchbook\arduino\Eicon\F103CBT6-BluePill-HelloW\build\libraries\SrcWrapper\stm32\interrupt.cpp.o
 .text.exit._GLOBAL__sub_D__Z22stm32_interrupt_enableP12GPIO_TypeDeftSt8functionIFvvEEm
                0x08001ec8       0x1c C:\J-Tagit\arduino-1.8.18\portable\sketchbook\arduino\Eicon\F103CBT6-BluePill-HelloW\build\libraries\SrcWrapper\stm32\interrupt.cpp.o
 .text.Reset_Handler
                0x08001ee4       0x60 C:\J-Tagit\arduino-1.8.18\portable\sketchbook\arduino\Eicon\F103CBT6-BluePill-HelloW\build\core\startup_M200_f103xb.S.o
                0x08001ee4                Reset_Handler
 .text.Default_Handler
                0x08001f44        0x4 C:\J-Tagit\arduino-1.8.18\portable\sketchbook\arduino\Eicon\F103CBT6-BluePill-HelloW\build\core\startup_M200_f103xb.S.o
                0x08001f44                RTC_Alarm_IRQHandler
                0x08001f44                DebugMon_Handler
                0x08001f44                HardFault_Handler
                0x08001f44                PVD_IRQHandler
                0x08001f44                PendSV_Handler
                0x08001f44                NMI_Handler
                0x08001f44                I2C2_EV_IRQHandler
                0x08001f44                UsageFault_Handler
                0x08001f44                ADC1_2_IRQHandler
                0x08001f44                SPI1_IRQHandler
                0x08001f44                TAMPER_IRQHandler
                0x08001f44                DMA1_Channel4_IRQHandler
                0x08001f44                RTC_IRQHandler
                0x08001f44                DMA1_Channel7_IRQHandler
                0x08001f44                CAN1_RX1_IRQHandler
                0x08001f44                I2C1_EV_IRQHandler
                0x08001f44                DMA1_Channel6_IRQHandler
                0x08001f44                RCC_IRQHandler
                0x08001f44                TIM1_TRG_COM_IRQHandler
                0x08001f44                DMA1_Channel1_IRQHandler
                0x08001f44                Default_Handler
                0x08001f44                SPI2_IRQHandler
                0x08001f44                MemManage_Handler
                0x08001f44                SVC_Handler
                0x08001f44                DMA1_Channel5_IRQHandler
                0x08001f44                USB_LP_CAN1_RX0_IRQHandler
                0x08001f44                USB_HP_CAN1_TX_IRQHandler
                0x08001f44                DMA1_Channel3_IRQHandler
                0x08001f44                WWDG_IRQHandler
                0x08001f44                TIM1_BRK_IRQHandler
                0x08001f44                I2C2_ER_IRQHandler
                0x08001f44                DMA1_Channel2_IRQHandler
                0x08001f44                CAN1_SCE_IRQHandler
                0x08001f44                FLASH_IRQHandler
                0x08001f44                BusFault_Handler
                0x08001f44                I2C1_ER_IRQHandler
                0x08001f44                USBWakeUp_IRQHandler
 .text.SystemClock_Config
                0x08001f48       0x98 C:\J-Tagit\arduino-1.8.18\portable\sketchbook\arduino\Eicon\F103CBT6-BluePill-HelloW\build\core\variant_F103CBT6.cpp.o
                0x08001f48                SystemClock_Config
 .text.pinMode  0x08001fe0       0xc8 C:\J-Tagit\arduino-1.8.18\portable\sketchbook\arduino\Eicon\F103CBT6-BluePill-HelloW\build\core\core.a(wiring_digital.c.o)
                0x08001fe0                pinMode
 .text.digitalWrite
                0x080020a8       0x78 C:\J-Tagit\arduino-1.8.18\portable\sketchbook\arduino\Eicon\F103CBT6-BluePill-HelloW\build\core\core.a(wiring_digital.c.o)
                0x080020a8                digitalWrite
 .text.millis   0x08002120        0x4 C:\J-Tagit\arduino-1.8.18\portable\sketchbook\arduino\Eicon\F103CBT6-BluePill-HelloW\build\core\core.a(wiring_time.c.o)
                0x08002120                millis
 .text.delay    0x08002124       0x1c C:\J-Tagit\arduino-1.8.18\portable\sketchbook\arduino\Eicon\F103CBT6-BluePill-HelloW\build\core\core.a(wiring_time.c.o)
                0x08002124                delay
 .text._ZN14HardwareSerial9availableEv
                0x08002140       0x10 C:\J-Tagit\arduino-1.8.18\portable\sketchbook\arduino\Eicon\F103CBT6-BluePill-HelloW\build\core\core.a(HardwareSerial.cpp.o)
                0x08002140                HardwareSerial::available()
 .text._ZN14HardwareSerial4peekEv
                0x08002150       0x1a C:\J-Tagit\arduino-1.8.18\portable\sketchbook\arduino\Eicon\F103CBT6-BluePill-HelloW\build\core\core.a(HardwareSerial.cpp.o)
                0x08002150                HardwareSerial::peek()
 .text._ZN14HardwareSerial17availableForWriteEv
                0x0800216a       0x1c C:\J-Tagit\arduino-1.8.18\portable\sketchbook\arduino\Eicon\F103CBT6-BluePill-HelloW\build\core\core.a(HardwareSerial.cpp.o)
                0x0800216a                HardwareSerial::availableForWrite()
 .text._ZN14HardwareSerial5writeEh
                0x08002186       0x18 C:\J-Tagit\arduino-1.8.18\portable\sketchbook\arduino\Eicon\F103CBT6-BluePill-HelloW\build\core\core.a(HardwareSerial.cpp.o)
                0x08002186                HardwareSerial::write(unsigned char)
 .text._ZN14HardwareSerial16_rx_complete_irqEP8serial_s
                0x0800219e       0x38 C:\J-Tagit\arduino-1.8.18\portable\sketchbook\arduino\Eicon\F103CBT6-BluePill-HelloW\build\core\core.a(HardwareSerial.cpp.o)
                0x0800219e                HardwareSerial::_rx_complete_irq(serial_s*)
 *fill*         0x080021d6        0x2 
 .text._ZN14HardwareSerial16_tx_complete_irqEP8serial_s
                0x080021d8       0x60 C:\J-Tagit\arduino-1.8.18\portable\sketchbook\arduino\Eicon\F103CBT6-BluePill-HelloW\build\core\core.a(HardwareSerial.cpp.o)
                0x080021d8                HardwareSerial::_tx_complete_irq(serial_s*)
 .text._ZN14HardwareSerial5writeEPKhj
                0x08002238       0xe4 C:\J-Tagit\arduino-1.8.18\portable\sketchbook\arduino\Eicon\F103CBT6-BluePill-HelloW\build\core\core.a(HardwareSerial.cpp.o)
                0x08002238                HardwareSerial::write(unsigned char const*, unsigned int)
 .text._ZN14HardwareSerial5flushEv
                0x0800231c       0x14 C:\J-Tagit\arduino-1.8.18\portable\sketchbook\arduino\Eicon\F103CBT6-BluePill-HelloW\build\core\core.a(HardwareSerial.cpp.o)
                0x0800231c                HardwareSerial::flush()
 .text._ZN14HardwareSerial4initE7PinNameS0_
                0x08002330       0x28 C:\J-Tagit\arduino-1.8.18\portable\sketchbook\arduino\Eicon\F103CBT6-BluePill-HelloW\build\core\core.a(HardwareSerial.cpp.o)
                0x08002330                HardwareSerial::init(PinName, PinName)
 .text._ZN14HardwareSerialC2EPv16HalfDuplexMode_t
                0x08002358       0x78 C:\J-Tagit\arduino-1.8.18\portable\sketchbook\arduino\Eicon\F103CBT6-BluePill-HelloW\build\core\core.a(HardwareSerial.cpp.o)
                0x08002358                HardwareSerial::HardwareSerial(void*, HalfDuplexMode_t)
                0x08002358                HardwareSerial::HardwareSerial(void*, HalfDuplexMode_t)
 .text._ZN14HardwareSerial18enableHalfDuplexRxEv
                0x080023d0       0x2c C:\J-Tagit\arduino-1.8.18\portable\sketchbook\arduino\Eicon\F103CBT6-BluePill-HelloW\build\core\core.a(HardwareSerial.cpp.o)
                0x080023d0                HardwareSerial::enableHalfDuplexRx()
 .text._ZN14HardwareSerial5beginEmh
                0x080023fc       0x9c C:\J-Tagit\arduino-1.8.18\portable\sketchbook\arduino\Eicon\F103CBT6-BluePill-HelloW\build\core\core.a(HardwareSerial.cpp.o)
                0x080023fc                HardwareSerial::begin(unsigned long, unsigned char)
 .text._ZN14HardwareSerial4readEv
                0x08002498       0x2e C:\J-Tagit\arduino-1.8.18\portable\sketchbook\arduino\Eicon\F103CBT6-BluePill-HelloW\build\core\core.a(HardwareSerial.cpp.o)
                0x08002498                HardwareSerial::read()
 *fill*         0x080024c6        0x2 
 .text.startup._GLOBAL__sub_I_Serial1
                0x080024c8       0x14 C:\J-Tagit\arduino-1.8.18\portable\sketchbook\arduino\Eicon\F103CBT6-BluePill-HelloW\build\core\core.a(HardwareSerial.cpp.o)
 .text._ZNSt8functionIFvvEEaSEDn.isra.0
                0x080024dc       0x16 C:\J-Tagit\arduino-1.8.18\portable\sketchbook\arduino\Eicon\F103CBT6-BluePill-HelloW\build\core\core.a(HardwareTimer.cpp.o)
 *fill*         0x080024f2        0x2 
 .text._Z15get_timer_indexP11TIM_TypeDef
                0x080024f4       0x38 C:\J-Tagit\arduino-1.8.18\portable\sketchbook\arduino\Eicon\F103CBT6-BluePill-HelloW\build\core\core.a(HardwareTimer.cpp.o)
                0x080024f4                get_timer_index(TIM_TypeDef*)
 .text._ZN13HardwareTimerD2Ev
                0x0800252c       0x40 C:\J-Tagit\arduino-1.8.18\portable\sketchbook\arduino\Eicon\F103CBT6-BluePill-HelloW\build\core\core.a(HardwareTimer.cpp.o)
                0x0800252c                HardwareTimer::~HardwareTimer()
                0x0800252c                HardwareTimer::~HardwareTimer()
 .text._ZN13HardwareTimer5setupEP11TIM_TypeDef
                0x0800256c       0xa4 C:\J-Tagit\arduino-1.8.18\portable\sketchbook\arduino\Eicon\F103CBT6-BluePill-HelloW\build\core\core.a(HardwareTimer.cpp.o)
                0x0800256c                HardwareTimer::setup(TIM_TypeDef*)
 .text._ZN13HardwareTimerC2EP11TIM_TypeDef
                0x08002610       0x20 C:\J-Tagit\arduino-1.8.18\portable\sketchbook\arduino\Eicon\F103CBT6-BluePill-HelloW\build\core\core.a(HardwareTimer.cpp.o)
                0x08002610                HardwareTimer::HardwareTimer(TIM_TypeDef*)
                0x08002610                HardwareTimer::HardwareTimer(TIM_TypeDef*)
 .text.TIM1_UP_IRQHandler
                0x08002630       0x14 C:\J-Tagit\arduino-1.8.18\portable\sketchbook\arduino\Eicon\F103CBT6-BluePill-HelloW\build\core\core.a(HardwareTimer.cpp.o)
                0x08002630                TIM1_UP_IRQHandler
 .text.TIM1_CC_IRQHandler
                0x08002644        0x4 C:\J-Tagit\arduino-1.8.18\portable\sketchbook\arduino\Eicon\F103CBT6-BluePill-HelloW\build\core\core.a(HardwareTimer.cpp.o)
                0x08002644                TIM1_CC_IRQHandler
 .text.TIM2_IRQHandler
                0x08002648       0x14 C:\J-Tagit\arduino-1.8.18\portable\sketchbook\arduino\Eicon\F103CBT6-BluePill-HelloW\build\core\core.a(HardwareTimer.cpp.o)
                0x08002648                TIM2_IRQHandler
 .text.TIM3_IRQHandler
                0x0800265c       0x14 C:\J-Tagit\arduino-1.8.18\portable\sketchbook\arduino\Eicon\F103CBT6-BluePill-HelloW\build\core\core.a(HardwareTimer.cpp.o)
                0x0800265c                TIM3_IRQHandler
 .text.TIM4_IRQHandler
                0x08002670       0x14 C:\J-Tagit\arduino-1.8.18\portable\sketchbook\arduino\Eicon\F103CBT6-BluePill-HelloW\build\core\core.a(HardwareTimer.cpp.o)
                0x08002670                TIM4_IRQHandler
 .text._ZNKSt8functionIFvvEEclEv
                0x08002684       0x12 C:\J-Tagit\arduino-1.8.18\portable\sketchbook\arduino\Eicon\F103CBT6-BluePill-HelloW\build\core\core.a(HardwareTimer.cpp.o)
                0x08002684                std::function<void ()>::operator()() const
 *fill*         0x08002696        0x2 
 .text._ZN13HardwareTimer14updateCallbackEP17TIM_HandleTypeDef
                0x08002698       0x28 C:\J-Tagit\arduino-1.8.18\portable\sketchbook\arduino\Eicon\F103CBT6-BluePill-HelloW\build\core\core.a(HardwareTimer.cpp.o)
                0x08002698                HardwareTimer::updateCallback(TIM_HandleTypeDef*)
 .text.HAL_TIM_PeriodElapsedCallback
                0x080026c0        0x4 C:\J-Tagit\arduino-1.8.18\portable\sketchbook\arduino\Eicon\F103CBT6-BluePill-HelloW\build\core\core.a(HardwareTimer.cpp.o)
                0x080026c0                HAL_TIM_PeriodElapsedCallback
 .text._ZN13HardwareTimer22captureCompareCallbackEP17TIM_HandleTypeDef
                0x080026c4       0x50 C:\J-Tagit\arduino-1.8.18\portable\sketchbook\arduino\Eicon\F103CBT6-BluePill-HelloW\build\core\core.a(HardwareTimer.cpp.o)
                0x080026c4                HardwareTimer::captureCompareCallback(TIM_HandleTypeDef*)
 .text.HAL_TIM_OC_DelayElapsedCallback
                0x08002714        0x4 C:\J-Tagit\arduino-1.8.18\portable\sketchbook\arduino\Eicon\F103CBT6-BluePill-HelloW\build\core\core.a(HardwareTimer.cpp.o)
                0x08002714                HAL_TIM_OC_DelayElapsedCallback
 .text.HAL_TIM_IC_CaptureCallback
                0x08002718        0x4 C:\J-Tagit\arduino-1.8.18\portable\sketchbook\arduino\Eicon\F103CBT6-BluePill-HelloW\build\core\core.a(HardwareTimer.cpp.o)
                0x08002718                HAL_TIM_IC_CaptureCallback
 .text._ZN5Print5writeEPKc
                0x0800271c       0x20 C:\J-Tagit\arduino-1.8.18\portable\sketchbook\arduino\Eicon\F103CBT6-BluePill-HelloW\build\core\core.a(Print.cpp.o)
                0x0800271c                Print::write(char const*)
 .text._ZN5Print7printlnEv
                0x0800273c       0x10 C:\J-Tagit\arduino-1.8.18\portable\sketchbook\arduino\Eicon\F103CBT6-BluePill-HelloW\build\core\core.a(Print.cpp.o)
                0x0800273c                Print::println()
 .text._ZN5Print7printlnEPK19__FlashStringHelper
                0x0800274c       0x14 C:\J-Tagit\arduino-1.8.18\portable\sketchbook\arduino\Eicon\F103CBT6-BluePill-HelloW\build\core\core.a(Print.cpp.o)
                0x0800274c                Print::println(__FlashStringHelper const*)
 .text._ZN5Print7printlnEPKc
                0x08002760        0x4 C:\J-Tagit\arduino-1.8.18\portable\sketchbook\arduino\Eicon\F103CBT6-BluePill-HelloW\build\core\core.a(Print.cpp.o)
                0x08002760                Print::println(char const*)
 .text._ZN6Stream9timedReadEv
                0x08002764       0x2a C:\J-Tagit\arduino-1.8.18\portable\sketchbook\arduino\Eicon\F103CBT6-BluePill-HelloW\build\core\core.a(Stream.cpp.o)
                0x08002764                Stream::timedRead()
 .text._ZN6Stream9readBytesEPcj
                0x0800278e       0x2a C:\J-Tagit\arduino-1.8.18\portable\sketchbook\arduino\Eicon\F103CBT6-BluePill-HelloW\build\core\core.a(Stream.cpp.o)
                0x0800278e                Stream::readBytes(char*, unsigned int)
 .text._ZN6Stream14readBytesUntilEcPcj
                0x080027b8       0x30 C:\J-Tagit\arduino-1.8.18\portable\sketchbook\arduino\Eicon\F103CBT6-BluePill-HelloW\build\core\core.a(Stream.cpp.o)
                0x080027b8                Stream::readBytesUntil(char, char*, unsigned int)
 .text.startup._Z7premainv
                0x080027e8       0x10 C:\J-Tagit\arduino-1.8.18\portable\sketchbook\arduino\Eicon\F103CBT6-BluePill-HelloW\build\core\core.a(main.cpp.o)
                0x080027e8                premain()
 .text.startup.main
                0x080027f8       0x14 C:\J-Tagit\arduino-1.8.18\portable\sketchbook\arduino\Eicon\F103CBT6-BluePill-HelloW\build\core\core.a(main.cpp.o)
                0x080027f8                main
 .text._Znwj    0x0800280c        0x4 C:\J-Tagit\arduino-1.8.18\portable\sketchbook\arduino\Eicon\F103CBT6-BluePill-HelloW\build\core\core.a(new.cpp.o)
                0x0800280c                operator new(unsigned int)
 .text._ZdlPvj  0x08002810        0x4 C:\J-Tagit\arduino-1.8.18\portable\sketchbook\arduino\Eicon\F103CBT6-BluePill-HelloW\build\core\core.a(new.cpp.o)
                0x08002810                operator delete(void*, unsigned int)
 .text.init     0x08002814        0x4 C:\J-Tagit\arduino-1.8.18\portable\sketchbook\arduino\Eicon\F103CBT6-BluePill-HelloW\build\core\core.a(board.c.o)
                0x08002814                init
 .text.__empty  0x08002818        0x2 C:\J-Tagit\arduino-1.8.18\portable\sketchbook\arduino\Eicon\F103CBT6-BluePill-HelloW\build\core\core.a(hooks.c.o)
                0x08002818                yield
 *fill*         0x0800281a        0x2 
 .text._Z14serialEventRunv
                0x0800281c       0x1c C:\J-Tagit\arduino-1.8.18\portable\sketchbook\arduino\Eicon\F103CBT6-BluePill-HelloW\build\core\core.a(WSerial.cpp.o)
                0x0800281c                serialEventRun()
 .text.__libc_init_array
                0x08002838       0x48 c:/j-tagit/arduino-1.8.18/portable/packages/eicon/tools/xpack-arm-none-eabi-gcc/bin/../lib/gcc/arm-none-eabi/10.3.1/../../../../arm-none-eabi/lib/thumb/v7-m/nofp\libc_nano.a(lib_a-init.o)
                0x08002838                __libc_init_array
 .text.malloc   0x08002880       0x10 c:/j-tagit/arduino-1.8.18/portable/packages/eicon/tools/xpack-arm-none-eabi-gcc/bin/../lib/gcc/arm-none-eabi/10.3.1/../../../../arm-none-eabi/lib/thumb/v7-m/nofp\libc_nano.a(lib_a-malloc.o)
                0x08002880                malloc
 .text.free     0x08002890       0x10 c:/j-tagit/arduino-1.8.18/portable/packages/eicon/tools/xpack-arm-none-eabi-gcc/bin/../lib/gcc/arm-none-eabi/10.3.1/../../../../arm-none-eabi/lib/thumb/v7-m/nofp\libc_nano.a(lib_a-malloc.o)
                0x08002890                free
 .text.memcpy   0x080028a0       0x1c c:/j-tagit/arduino-1.8.18/portable/packages/eicon/tools/xpack-arm-none-eabi-gcc/bin/../lib/gcc/arm-none-eabi/10.3.1/../../../../arm-none-eabi/lib/thumb/v7-m/nofp\libc_nano.a(lib_a-memcpy-stub.o)
                0x080028a0                memcpy
 .text.memset   0x080028bc       0x10 c:/j-tagit/arduino-1.8.18/portable/packages/eicon/tools/xpack-arm-none-eabi-gcc/bin/../lib/gcc/arm-none-eabi/10.3.1/../../../../arm-none-eabi/lib/thumb/v7-m/nofp\libc_nano.a(lib_a-memset.o)
                0x080028bc                memset
 .text._free_r  0x080028cc       0x90 c:/j-tagit/arduino-1.8.18/portable/packages/eicon/tools/xpack-arm-none-eabi-gcc/bin/../lib/gcc/arm-none-eabi/10.3.1/../../../../arm-none-eabi/lib/thumb/v7-m/nofp\libc_nano.a(lib_a-nano-freer.o)
                0x080028cc                _free_r
 .text.sbrk_aligned
                0x0800295c       0x40 c:/j-tagit/arduino-1.8.18/portable/packages/eicon/tools/xpack-arm-none-eabi-gcc/bin/../lib/gcc/arm-none-eabi/10.3.1/../../../../arm-none-eabi/lib/thumb/v7-m/nofp\libc_nano.a(lib_a-nano-mallocr.o)
 .text._malloc_r
                0x0800299c       0xe8 c:/j-tagit/arduino-1.8.18/portable/packages/eicon/tools/xpack-arm-none-eabi-gcc/bin/../lib/gcc/arm-none-eabi/10.3.1/../../../../arm-none-eabi/lib/thumb/v7-m/nofp\libc_nano.a(lib_a-nano-mallocr.o)
                0x0800299c                _malloc_r
 .text._sbrk_r  0x08002a84       0x20 c:/j-tagit/arduino-1.8.18/portable/packages/eicon/tools/xpack-arm-none-eabi-gcc/bin/../lib/gcc/arm-none-eabi/10.3.1/../../../../arm-none-eabi/lib/thumb/v7-m/nofp\libc_nano.a(lib_a-sbrkr.o)
                0x08002a84                _sbrk_r
 .text.__retarget_lock_acquire_recursive
                0x08002aa4        0x2 c:/j-tagit/arduino-1.8.18/portable/packages/eicon/tools/xpack-arm-none-eabi-gcc/bin/../lib/gcc/arm-none-eabi/10.3.1/../../../../arm-none-eabi/lib/thumb/v7-m/nofp\libc_nano.a(lib_a-lock.o)
                0x08002aa4                __retarget_lock_acquire_recursive
 .text.__retarget_lock_release_recursive
                0x08002aa6        0x2 c:/j-tagit/arduino-1.8.18/portable/packages/eicon/tools/xpack-arm-none-eabi-gcc/bin/../lib/gcc/arm-none-eabi/10.3.1/../../../../arm-none-eabi/lib/thumb/v7-m/nofp\libc_nano.a(lib_a-lock.o)
                0x08002aa6                __retarget_lock_release_recursive
 .text.__malloc_lock
                0x08002aa8        0xc c:/j-tagit/arduino-1.8.18/portable/packages/eicon/tools/xpack-arm-none-eabi-gcc/bin/../lib/gcc/arm-none-eabi/10.3.1/../../../../arm-none-eabi/lib/thumb/v7-m/nofp\libc_nano.a(lib_a-mlock.o)
                0x08002aa8                __malloc_lock
 .text.__malloc_unlock
                0x08002ab4        0xc c:/j-tagit/arduino-1.8.18/portable/packages/eicon/tools/xpack-arm-none-eabi-gcc/bin/../lib/gcc/arm-none-eabi/10.3.1/../../../../arm-none-eabi/lib/thumb/v7-m/nofp\libc_nano.a(lib_a-mlock.o)
                0x08002ab4                __malloc_unlock
 .text.abort    0x08002ac0        0xe c:/j-tagit/arduino-1.8.18/portable/packages/eicon/tools/xpack-arm-none-eabi-gcc/bin/../lib/gcc/arm-none-eabi/10.3.1/../../../../arm-none-eabi/lib/thumb/v7-m/nofp\libc_nano.a(lib_a-abort.o)
                0x08002ac0                abort
 .text._raise_r
                0x08002ace       0x50 c:/j-tagit/arduino-1.8.18/portable/packages/eicon/tools/xpack-arm-none-eabi-gcc/bin/../lib/gcc/arm-none-eabi/10.3.1/../../../../arm-none-eabi/lib/thumb/v7-m/nofp\libc_nano.a(lib_a-signal.o)
                0x08002ace                _raise_r
 *fill*         0x08002b1e        0x2 
 .text.raise    0x08002b20       0x10 c:/j-tagit/arduino-1.8.18/portable/packages/eicon/tools/xpack-arm-none-eabi-gcc/bin/../lib/gcc/arm-none-eabi/10.3.1/../../../../arm-none-eabi/lib/thumb/v7-m/nofp\libc_nano.a(lib_a-signal.o)
                0x08002b20                raise
 .text._kill_r  0x08002b30       0x24 c:/j-tagit/arduino-1.8.18/portable/packages/eicon/tools/xpack-arm-none-eabi-gcc/bin/../lib/gcc/arm-none-eabi/10.3.1/../../../../arm-none-eabi/lib/thumb/v7-m/nofp\libc_nano.a(lib_a-signalr.o)
                0x08002b30                _kill_r
 .text._getpid_r
                0x08002b54        0x4 c:/j-tagit/arduino-1.8.18/portable/packages/eicon/tools/xpack-arm-none-eabi-gcc/bin/../lib/gcc/arm-none-eabi/10.3.1/../../../../arm-none-eabi/lib/thumb/v7-m/nofp\libc_nano.a(lib_a-signalr.o)
                0x08002b54                _getpid_r
 .text.unlikely._ZSt25__throw_bad_function_callv
                0x08002b58        0x6 c:/j-tagit/arduino-1.8.18/portable/packages/eicon/tools/xpack-arm-none-eabi-gcc/bin/../lib/gcc/arm-none-eabi/10.3.1/../../../../arm-none-eabi/lib/thumb/v7-m/nofp\libstdc++_nano.a(functional.o)
                0x08002b58                std::__throw_bad_function_call()
 *(.glue_7)
 .glue_7        0x08002b5e        0x0 linker stubs
 *(.glue_7t)
 .glue_7t       0x08002b5e        0x0 linker stubs
 *(.eh_frame)
 *fill*         0x08002b5e        0x2 
 .eh_frame      0x08002b60        0x0 c:/j-tagit/arduino-1.8.18/portable/packages/eicon/tools/xpack-arm-none-eabi-gcc/bin/../lib/gcc/arm-none-eabi/10.3.1/thumb/v7-m/nofp/crtbegin.o
 *(.init)
 .init          0x08002b60        0x4 c:/j-tagit/arduino-1.8.18/portable/packages/eicon/tools/xpack-arm-none-eabi-gcc/bin/../lib/gcc/arm-none-eabi/10.3.1/thumb/v7-m/nofp/crti.o
                0x08002b60                _init
 .init          0x08002b64        0x8 c:/j-tagit/arduino-1.8.18/portable/packages/eicon/tools/xpack-arm-none-eabi-gcc/bin/../lib/gcc/arm-none-eabi/10.3.1/thumb/v7-m/nofp/crtn.o
 *(.fini)
 .fini          0x08002b6c        0x4 c:/j-tagit/arduino-1.8.18/portable/packages/eicon/tools/xpack-arm-none-eabi-gcc/bin/../lib/gcc/arm-none-eabi/10.3.1/thumb/v7-m/nofp/crti.o
                0x08002b6c                _fini
 .fini          0x08002b70        0x8 c:/j-tagit/arduino-1.8.18/portable/packages/eicon/tools/xpack-arm-none-eabi-gcc/bin/../lib/gcc/arm-none-eabi/10.3.1/thumb/v7-m/nofp/crtn.o
                0x08002b78                . = ALIGN (0x4)
                0x08002b78                _etext = .

.vfp11_veneer   0x08002b78        0x0
 .vfp11_veneer  0x08002b78        0x0 linker stubs

.v4_bx          0x08002b78        0x0
 .v4_bx         0x08002b78        0x0 linker stubs

.iplt           0x08002b78        0x0
 .iplt          0x08002b78        0x0 c:/j-tagit/arduino-1.8.18/portable/packages/eicon/tools/xpack-arm-none-eabi-gcc/bin/../lib/gcc/arm-none-eabi/10.3.1/thumb/v7-m/nofp/crtbegin.o

.rodata         0x08002b78      0x670
                0x08002b78                . = ALIGN (0x4)
 *(.rodata)
 *(.rodata*)
 .rodata.loop.str1.1
                0x08002b78       0x10 C:\J-Tagit\arduino-1.8.18\portable\sketchbook\arduino\Eicon\F103CBT6-BluePill-HelloW\build\sketch\F103CBT6-BluePill-HelloW.ino.cpp.o
 .rodata.HAL_RCC_GetSysClockFreq.str1.1
                0x08002b88       0x11 C:\J-Tagit\arduino-1.8.18\portable\sketchbook\arduino\Eicon\F103CBT6-BluePill-HelloW\build\libraries\SrcWrapper\HAL\stm32yyxx_hal_rcc.c.o
 .rodata.pin_function.str1.1
                0x08002b99       0x6f C:\J-Tagit\arduino-1.8.18\portable\sketchbook\arduino\Eicon\F103CBT6-BluePill-HelloW\build\libraries\SrcWrapper\stm32\pinmap.c.o
 .rodata.pin_map_ll
                0x08002c08       0x40 C:\J-Tagit\arduino-1.8.18\portable\sketchbook\arduino\Eicon\F103CBT6-BluePill-HelloW\build\libraries\SrcWrapper\stm32\pinmap.c.o
                0x08002c08                pin_map_ll
 .rodata.AHBPrescTable
                0x08002c48       0x10 C:\J-Tagit\arduino-1.8.18\portable\sketchbook\arduino\Eicon\F103CBT6-BluePill-HelloW\build\libraries\SrcWrapper\stm32\system_stm32yyxx.c.o
                0x08002c48                AHBPrescTable
 .rodata.APBPrescTable
                0x08002c58        0x8 C:\J-Tagit\arduino-1.8.18\portable\sketchbook\arduino\Eicon\F103CBT6-BluePill-HelloW\build\libraries\SrcWrapper\stm32\system_stm32yyxx.c.o
                0x08002c58                APBPrescTable
 .rodata.getTimerUpIrq.str1.1
                0x08002c60       0x18 C:\J-Tagit\arduino-1.8.18\portable\sketchbook\arduino\Eicon\F103CBT6-BluePill-HelloW\build\libraries\SrcWrapper\stm32\timer.c.o
 .rodata.PinMap_TIM
                0x08002c78      0x204 C:\J-Tagit\arduino-1.8.18\portable\sketchbook\arduino\Eicon\F103CBT6-BluePill-HelloW\build\core\PeripheralPins.c.o
                0x08002c78                PinMap_TIM
 .rodata.PinMap_UART_RX
                0x08002e7c       0x3c C:\J-Tagit\arduino-1.8.18\portable\sketchbook\arduino\Eicon\F103CBT6-BluePill-HelloW\build\core\PeripheralPins.c.o
                0x08002e7c                PinMap_UART_RX
 .rodata.PinMap_UART_TX
                0x08002eb8       0x3c C:\J-Tagit\arduino-1.8.18\portable\sketchbook\arduino\Eicon\F103CBT6-BluePill-HelloW\build\core\PeripheralPins.c.o
                0x08002eb8                PinMap_UART_TX
 .rodata.SystemClock_Config.str1.1
                0x08002ef4       0x78 C:\J-Tagit\arduino-1.8.18\portable\sketchbook\arduino\Eicon\F103CBT6-BluePill-HelloW\build\core\variant_F103CBT6.cpp.o
 .rodata.analogInputPin
                0x08002f6c       0x28 C:\J-Tagit\arduino-1.8.18\portable\sketchbook\arduino\Eicon\F103CBT6-BluePill-HelloW\build\core\variant_F103CBT6.cpp.o
                0x08002f6c                analogInputPin
 .rodata.digitalPin
                0x08002f94       0x8c C:\J-Tagit\arduino-1.8.18\portable\sketchbook\arduino\Eicon\F103CBT6-BluePill-HelloW\build\core\variant_F103CBT6.cpp.o
                0x08002f94                digitalPin
 .rodata.pinMode.str1.1
                0x08003020       0x66 C:\J-Tagit\arduino-1.8.18\portable\sketchbook\arduino\Eicon\F103CBT6-BluePill-HelloW\build\core\core.a(wiring_digital.c.o)
 .rodata._ZN14HardwareSerial5beginEmh.str1.1
                0x08003086       0x68 C:\J-Tagit\arduino-1.8.18\portable\sketchbook\arduino\Eicon\F103CBT6-BluePill-HelloW\build\core\core.a(HardwareSerial.cpp.o)
 .rodata.CSWTCH.50
                0x080030ee        0x5 C:\J-Tagit\arduino-1.8.18\portable\sketchbook\arduino\Eicon\F103CBT6-BluePill-HelloW\build\core\core.a(HardwareSerial.cpp.o)
 *fill*         0x080030f3        0x1 
 .rodata._ZTV14HardwareSerial
                0x080030f4       0x2c C:\J-Tagit\arduino-1.8.18\portable\sketchbook\arduino\Eicon\F103CBT6-BluePill-HelloW\build\core\core.a(HardwareSerial.cpp.o)
                0x080030f4                vtable for HardwareSerial
 .rodata._ZN13HardwareTimer12pauseChannelEm.str1.1
                0x08003120       0x67 C:\J-Tagit\arduino-1.8.18\portable\sketchbook\arduino\Eicon\F103CBT6-BluePill-HelloW\build\core\core.a(HardwareTimer.cpp.o)
 .rodata._ZN5Print7printlnEv.str1.1
                0x08003187       0x67 C:\J-Tagit\arduino-1.8.18\portable\sketchbook\arduino\Eicon\F103CBT6-BluePill-HelloW\build\core\core.a(Print.cpp.o)
                                  0x3 (size before relaxing)
 *fill*         0x08003187        0x1 
 .rodata.__sf_fake_stderr
                0x08003188       0x20 c:/j-tagit/arduino-1.8.18/portable/packages/eicon/tools/xpack-arm-none-eabi-gcc/bin/../lib/gcc/arm-none-eabi/10.3.1/../../../../arm-none-eabi/lib/thumb/v7-m/nofp\libc_nano.a(lib_a-findfp.o)
                0x08003188                __sf_fake_stderr
 .rodata.__sf_fake_stdin
                0x080031a8       0x20 c:/j-tagit/arduino-1.8.18/portable/packages/eicon/tools/xpack-arm-none-eabi-gcc/bin/../lib/gcc/arm-none-eabi/10.3.1/../../../../arm-none-eabi/lib/thumb/v7-m/nofp\libc_nano.a(lib_a-findfp.o)
                0x080031a8                __sf_fake_stdin
 .rodata.__sf_fake_stdout
                0x080031c8       0x20 c:/j-tagit/arduino-1.8.18/portable/packages/eicon/tools/xpack-arm-none-eabi-gcc/bin/../lib/gcc/arm-none-eabi/10.3.1/../../../../arm-none-eabi/lib/thumb/v7-m/nofp\libc_nano.a(lib_a-findfp.o)
                0x080031c8                __sf_fake_stdout
                0x080031e8                . = ALIGN (0x4)

.rel.dyn        0x080031e8        0x0
 .rel.iplt      0x080031e8        0x0 c:/j-tagit/arduino-1.8.18/portable/packages/eicon/tools/xpack-arm-none-eabi-gcc/bin/../lib/gcc/arm-none-eabi/10.3.1/thumb/v7-m/nofp/crtbegin.o

.ARM.extab      0x080031e8        0x0
                0x080031e8                . = ALIGN (0x4)
 *(.ARM.extab* .gnu.linkonce.armextab.*)
                0x080031e8                . = ALIGN (0x4)

.ARM            0x080031e8        0x0
                0x080031e8                . = ALIGN (0x4)
                0x080031e8                __exidx_start = .
 *(.ARM.exidx*)
                0x080031e8                __exidx_end = .
                0x080031e8                . = ALIGN (0x4)

.preinit_array  0x080031e8        0x0
                0x080031e8                . = ALIGN (0x4)
                0x080031e8                PROVIDE (__preinit_array_start = .)
 *(.preinit_array*)
                0x080031e8                PROVIDE (__preinit_array_end = .)
                0x080031e8                . = ALIGN (0x4)

.init_array     0x080031e8       0x10
                0x080031e8                . = ALIGN (0x4)
                0x080031e8                PROVIDE (__init_array_start = .)
 *(SORT_BY_NAME(.init_array.*))
 .init_array.00101
                0x080031e8        0x4 C:\J-Tagit\arduino-1.8.18\portable\sketchbook\arduino\Eicon\F103CBT6-BluePill-HelloW\build\core\core.a(main.cpp.o)
 *(.init_array*)
 .init_array    0x080031ec        0x4 c:/j-tagit/arduino-1.8.18/portable/packages/eicon/tools/xpack-arm-none-eabi-gcc/bin/../lib/gcc/arm-none-eabi/10.3.1/thumb/v7-m/nofp/crtbegin.o
 .init_array    0x080031f0        0x4 C:\J-Tagit\arduino-1.8.18\portable\sketchbook\arduino\Eicon\F103CBT6-BluePill-HelloW\build\libraries\SrcWrapper\stm32\interrupt.cpp.o
 .init_array    0x080031f4        0x4 C:\J-Tagit\arduino-1.8.18\portable\sketchbook\arduino\Eicon\F103CBT6-BluePill-HelloW\build\core\core.a(HardwareSerial.cpp.o)
                0x080031f8                PROVIDE (__init_array_end = .)
                0x080031f8                . = ALIGN (0x4)

.fini_array     0x080031f8        0x8
                0x080031f8                . = ALIGN (0x4)
                [!provide]                PROVIDE (__fini_array_start = .)
 *(SORT_BY_NAME(.fini_array.*))
 *(.fini_array*)
 .fini_array    0x080031f8        0x4 c:/j-tagit/arduino-1.8.18/portable/packages/eicon/tools/xpack-arm-none-eabi-gcc/bin/../lib/gcc/arm-none-eabi/10.3.1/thumb/v7-m/nofp/crtbegin.o
 .fini_array    0x080031fc        0x4 C:\J-Tagit\arduino-1.8.18\portable\sketchbook\arduino\Eicon\F103CBT6-BluePill-HelloW\build\libraries\SrcWrapper\stm32\interrupt.cpp.o
                [!provide]                PROVIDE (__fini_array_end = .)
                0x08003200                . = ALIGN (0x4)
                0x08003200                _sidata = LOADADDR (.data)

.data           0x20000000       0x88 load address 0x08003200
                0x20000000                . = ALIGN (0x4)
                0x20000000                _sdata = .
 *(.data)
 *(.data*)
 .data.heap_end.0
                0x20000000        0x4 C:\J-Tagit\arduino-1.8.18\portable\sketchbook\arduino\Eicon\F103CBT6-BluePill-HelloW\build\libraries\SrcWrapper\syscalls.c.o
 .data.uwTickFreq
                0x20000004        0x1 C:\J-Tagit\arduino-1.8.18\portable\sketchbook\arduino\Eicon\F103CBT6-BluePill-HelloW\build\libraries\SrcWrapper\HAL\stm32yyxx_hal.c.o
                0x20000004                uwTickFreq
 *fill*         0x20000005        0x3 
 .data.uwTickPrio
                0x20000008        0x4 C:\J-Tagit\arduino-1.8.18\portable\sketchbook\arduino\Eicon\F103CBT6-BluePill-HelloW\build\libraries\SrcWrapper\HAL\stm32yyxx_hal.c.o
                0x20000008                uwTickPrio
 .data.GPIOPort
                0x2000000c       0x14 C:\J-Tagit\arduino-1.8.18\portable\sketchbook\arduino\Eicon\F103CBT6-BluePill-HelloW\build\libraries\SrcWrapper\stm32\PortNames.c.o
                0x2000000c                GPIOPort
 .data.SystemCoreClock
                0x20000020        0x4 C:\J-Tagit\arduino-1.8.18\portable\sketchbook\arduino\Eicon\F103CBT6-BluePill-HelloW\build\libraries\SrcWrapper\stm32\system_stm32yyxx.c.o
                0x20000020                SystemCoreClock
 .data._impure_ptr
                0x20000024        0x4 c:/j-tagit/arduino-1.8.18/portable/packages/eicon/tools/xpack-arm-none-eabi-gcc/bin/../lib/gcc/arm-none-eabi/10.3.1/../../../../arm-none-eabi/lib/thumb/v7-m/nofp\libc_nano.a(lib_a-impure.o)
                0x20000024                _impure_ptr
 .data.impure_data
                0x20000028       0x60 c:/j-tagit/arduino-1.8.18/portable/packages/eicon/tools/xpack-arm-none-eabi-gcc/bin/../lib/gcc/arm-none-eabi/10.3.1/../../../../arm-none-eabi/lib/thumb/v7-m/nofp\libc_nano.a(lib_a-impure.o)
 *(.RamFunc)
 *(.RamFunc*)
                0x20000088                . = ALIGN (0x4)
                0x20000088                _edata = .

.igot.plt       0x20000088        0x0 load address 0x08003288
 .igot.plt      0x20000088        0x0 c:/j-tagit/arduino-1.8.18/portable/packages/eicon/tools/xpack-arm-none-eabi-gcc/bin/../lib/gcc/arm-none-eabi/10.3.1/thumb/v7-m/nofp/crtbegin.o
                0x20000088                . = ALIGN (0x4)

.bss            0x20000088      0x2ac load address 0x08003288
                0x20000088                _sbss = .
                0x20000088                __bss_start__ = _sbss
 *(.bss)
 *(.bss*)
 .bss.completed.1
                0x20000088        0x1 c:/j-tagit/arduino-1.8.18/portable/packages/eicon/tools/xpack-arm-none-eabi-gcc/bin/../lib/gcc/arm-none-eabi/10.3.1/thumb/v7-m/nofp/crtbegin.o
 *fill*         0x20000089        0x3 
 .bss.object.0  0x2000008c       0x18 c:/j-tagit/arduino-1.8.18/portable/packages/eicon/tools/xpack-arm-none-eabi-gcc/bin/../lib/gcc/arm-none-eabi/10.3.1/thumb/v7-m/nofp/crtbegin.o
 .bss.uwTick    0x200000a4        0x4 C:\J-Tagit\arduino-1.8.18\portable\sketchbook\arduino\Eicon\F103CBT6-BluePill-HelloW\build\libraries\SrcWrapper\HAL\stm32yyxx_hal.c.o
                0x200000a4                uwTick
 .bss.uart_handlers
                0x200000a8        0xc C:\J-Tagit\arduino-1.8.18\portable\sketchbook\arduino\Eicon\F103CBT6-BluePill-HelloW\build\libraries\SrcWrapper\stm32\uart.c.o
 .bss._ZL13gpio_irq_conf
                0x200000b4      0x140 C:\J-Tagit\arduino-1.8.18\portable\sketchbook\arduino\Eicon\F103CBT6-BluePill-HelloW\build\libraries\SrcWrapper\stm32\interrupt.cpp.o
 .bss.Serial1   0x200001f4      0x10c C:\J-Tagit\arduino-1.8.18\portable\sketchbook\arduino\Eicon\F103CBT6-BluePill-HelloW\build\core\core.a(HardwareSerial.cpp.o)
                0x200001f4                Serial1
 .bss.HardwareTimer_Handle
                0x20000300       0x10 C:\J-Tagit\arduino-1.8.18\portable\sketchbook\arduino\Eicon\F103CBT6-BluePill-HelloW\build\core\core.a(HardwareTimer.cpp.o)
                0x20000300                HardwareTimer_Handle
 .bss.g_anOutputPinConfigured
                0x20000310       0x14 C:\J-Tagit\arduino-1.8.18\portable\sketchbook\arduino\Eicon\F103CBT6-BluePill-HelloW\build\core\core.a(wiring_analog.c.o)
                0x20000310                g_anOutputPinConfigured
 .bss.__malloc_free_list
                0x20000324        0x4 c:/j-tagit/arduino-1.8.18/portable/packages/eicon/tools/xpack-arm-none-eabi-gcc/bin/../lib/gcc/arm-none-eabi/10.3.1/../../../../arm-none-eabi/lib/thumb/v7-m/nofp\libc_nano.a(lib_a-nano-mallocr.o)
                0x20000324                __malloc_free_list
 .bss.__malloc_sbrk_start
                0x20000328        0x4 c:/j-tagit/arduino-1.8.18/portable/packages/eicon/tools/xpack-arm-none-eabi-gcc/bin/../lib/gcc/arm-none-eabi/10.3.1/../../../../arm-none-eabi/lib/thumb/v7-m/nofp\libc_nano.a(lib_a-nano-mallocr.o)
                0x20000328                __malloc_sbrk_start
 .bss.errno     0x2000032c        0x4 c:/j-tagit/arduino-1.8.18/portable/packages/eicon/tools/xpack-arm-none-eabi-gcc/bin/../lib/gcc/arm-none-eabi/10.3.1/../../../../arm-none-eabi/lib/thumb/v7-m/nofp\libc_nano.a(lib_a-reent.o)
                0x2000032c                errno
 .bss.__lock___malloc_recursive_mutex
                0x20000330        0x1 c:/j-tagit/arduino-1.8.18/portable/packages/eicon/tools/xpack-arm-none-eabi-gcc/bin/../lib/gcc/arm-none-eabi/10.3.1/../../../../arm-none-eabi/lib/thumb/v7-m/nofp\libc_nano.a(lib_a-lock.o)
                0x20000330                __lock___malloc_recursive_mutex
 *(COMMON)
                0x20000334                . = ALIGN (0x4)
 *fill*         0x20000331        0x3 
                0x20000334                _ebss = .
                0x20000334                __bss_end__ = _ebss
LOAD c:/j-tagit/arduino-1.8.18/portable/packages/eicon/tools/xpack-arm-none-eabi-gcc/bin/../lib/gcc/arm-none-eabi/10.3.1/thumb/v7-m/nofp/crti.o
LOAD c:/j-tagit/arduino-1.8.18/portable/packages/eicon/tools/xpack-arm-none-eabi-gcc/bin/../lib/gcc/arm-none-eabi/10.3.1/thumb/v7-m/nofp/crtbegin.o
LOAD c:/j-tagit/arduino-1.8.18/portable/packages/eicon/tools/xpack-arm-none-eabi-gcc/bin/../lib/gcc/arm-none-eabi/10.3.1/../../../../arm-none-eabi/lib/thumb/v7-m/nofp/crt0.o
                0x00000000                LD_FLASH_OFFSET = 0x0
                0x00020000                LD_MAX_SIZE = 0x20000
                0x00005000                LD_MAX_DATA_SIZE = 0x5000

.noinit         0x20000334        0x0
                0x20000334                . = ALIGN (0x4)
                0x20000334                _snoinit = .
 *(.noinit)
 *(.noinit*)
                0x20000334                . = ALIGN (0x4)
                0x20000334                _enoinit = .

._user_heap_stack
                0x20000334      0x604
                0x20000338                . = ALIGN (0x8)
 *fill*         0x20000334        0x4 
                [!provide]                PROVIDE (end = .)
                0x20000338                PROVIDE (_end = .)
                0x20000538                . = (. + _Min_Heap_Size)
 *fill*         0x20000338      0x200 
                0x20000938                . = (. + _Min_Stack_Size)
 *fill*         0x20000538      0x400 
                0x20000938                . = ALIGN (0x8)

/DISCARD/
 libc.a(*)
 libm.a(*)
 libgcc.a(*)

.ARM.attributes
                0x00000000       0x29
 *(.ARM.attributes)
 .ARM.attributes
                0x00000000       0x1d c:/j-tagit/arduino-1.8.18/portable/packages/eicon/tools/xpack-arm-none-eabi-gcc/bin/../lib/gcc/arm-none-eabi/10.3.1/thumb/v7-m/nofp/crti.o
 .ARM.attributes
                0x0000001d       0x2d c:/j-tagit/arduino-1.8.18/portable/packages/eicon/tools/xpack-arm-none-eabi-gcc/bin/../lib/gcc/arm-none-eabi/10.3.1/thumb/v7-m/nofp/crtbegin.o
 .ARM.attributes
                0x0000004a       0x2d C:\J-Tagit\arduino-1.8.18\portable\sketchbook\arduino\Eicon\F103CBT6-BluePill-HelloW\build\sketch\F103CBT6-BluePill-HelloW.ino.cpp.o
 .ARM.attributes
                0x00000077       0x2d C:\J-Tagit\arduino-1.8.18\portable\sketchbook\arduino\Eicon\F103CBT6-BluePill-HelloW\build\libraries\SrcWrapper\syscalls.c.o
 .ARM.attributes
                0x000000a4       0x2d C:\J-Tagit\arduino-1.8.18\portable\sketchbook\arduino\Eicon\F103CBT6-BluePill-HelloW\build\libraries\SrcWrapper\HAL\stm32yyxx_hal.c.o
 .ARM.attributes
                0x000000d1       0x2d C:\J-Tagit\arduino-1.8.18\portable\sketchbook\arduino\Eicon\F103CBT6-BluePill-HelloW\build\libraries\SrcWrapper\HAL\stm32yyxx_hal_cortex.c.o
 .ARM.attributes
                0x000000fe       0x2d C:\J-Tagit\arduino-1.8.18\portable\sketchbook\arduino\Eicon\F103CBT6-BluePill-HelloW\build\libraries\SrcWrapper\HAL\stm32yyxx_hal_dma.c.o
 .ARM.attributes
                0x0000012b       0x2d C:\J-Tagit\arduino-1.8.18\portable\sketchbook\arduino\Eicon\F103CBT6-BluePill-HelloW\build\libraries\SrcWrapper\HAL\stm32yyxx_hal_gpio.c.o
 .ARM.attributes
                0x00000158       0x2d C:\J-Tagit\arduino-1.8.18\portable\sketchbook\arduino\Eicon\F103CBT6-BluePill-HelloW\build\libraries\SrcWrapper\HAL\stm32yyxx_hal_rcc.c.o
 .ARM.attributes
                0x00000185       0x2d C:\J-Tagit\arduino-1.8.18\portable\sketchbook\arduino\Eicon\F103CBT6-BluePill-HelloW\build\libraries\SrcWrapper\HAL\stm32yyxx_hal_rcc_ex.c.o
 .ARM.attributes
                0x000001b2       0x2d C:\J-Tagit\arduino-1.8.18\portable\sketchbook\arduino\Eicon\F103CBT6-BluePill-HelloW\build\libraries\SrcWrapper\HAL\stm32yyxx_hal_tim.c.o
 .ARM.attributes
                0x000001df       0x2d C:\J-Tagit\arduino-1.8.18\portable\sketchbook\arduino\Eicon\F103CBT6-BluePill-HelloW\build\libraries\SrcWrapper\HAL\stm32yyxx_hal_tim_ex.c.o
 .ARM.attributes
                0x0000020c       0x2d C:\J-Tagit\arduino-1.8.18\portable\sketchbook\arduino\Eicon\F103CBT6-BluePill-HelloW\build\libraries\SrcWrapper\HAL\stm32yyxx_hal_uart.c.o
 .ARM.attributes
                0x00000239       0x2d C:\J-Tagit\arduino-1.8.18\portable\sketchbook\arduino\Eicon\F103CBT6-BluePill-HelloW\build\libraries\SrcWrapper\stm32\PortNames.c.o
 .ARM.attributes
                0x00000266       0x2d C:\J-Tagit\arduino-1.8.18\portable\sketchbook\arduino\Eicon\F103CBT6-BluePill-HelloW\build\libraries\SrcWrapper\stm32\clock.c.o
 .ARM.attributes
                0x00000293       0x2d C:\J-Tagit\arduino-1.8.18\portable\sketchbook\arduino\Eicon\F103CBT6-BluePill-HelloW\build\libraries\SrcWrapper\stm32\dwt.c.o
 .ARM.attributes
                0x000002c0       0x2d C:\J-Tagit\arduino-1.8.18\portable\sketchbook\arduino\Eicon\F103CBT6-BluePill-HelloW\build\libraries\SrcWrapper\stm32\hw_config.c.o
 .ARM.attributes
                0x000002ed       0x2d C:\J-Tagit\arduino-1.8.18\portable\sketchbook\arduino\Eicon\F103CBT6-BluePill-HelloW\build\libraries\SrcWrapper\stm32\pinmap.c.o
 .ARM.attributes
                0x0000031a       0x2d C:\J-Tagit\arduino-1.8.18\portable\sketchbook\arduino\Eicon\F103CBT6-BluePill-HelloW\build\libraries\SrcWrapper\stm32\stm32_def.c.o
 .ARM.attributes
                0x00000347       0x2d C:\J-Tagit\arduino-1.8.18\portable\sketchbook\arduino\Eicon\F103CBT6-BluePill-HelloW\build\libraries\SrcWrapper\stm32\system_stm32yyxx.c.o
 .ARM.attributes
                0x00000374       0x2d C:\J-Tagit\arduino-1.8.18\portable\sketchbook\arduino\Eicon\F103CBT6-BluePill-HelloW\build\libraries\SrcWrapper\stm32\timer.c.o
 .ARM.attributes
                0x000003a1       0x2d C:\J-Tagit\arduino-1.8.18\portable\sketchbook\arduino\Eicon\F103CBT6-BluePill-HelloW\build\libraries\SrcWrapper\stm32\uart.c.o
 .ARM.attributes
                0x000003ce       0x2d C:\J-Tagit\arduino-1.8.18\portable\sketchbook\arduino\Eicon\F103CBT6-BluePill-HelloW\build\libraries\SrcWrapper\stm32\analog.cpp.o
 .ARM.attributes
                0x000003fb       0x2d C:\J-Tagit\arduino-1.8.18\portable\sketchbook\arduino\Eicon\F103CBT6-BluePill-HelloW\build\libraries\SrcWrapper\stm32\interrupt.cpp.o
 .ARM.attributes
                0x00000428       0x21 C:\J-Tagit\arduino-1.8.18\portable\sketchbook\arduino\Eicon\F103CBT6-BluePill-HelloW\build\core\startup_M200_f103xb.S.o
 .ARM.attributes
                0x00000449       0x2d C:\J-Tagit\arduino-1.8.18\portable\sketchbook\arduino\Eicon\F103CBT6-BluePill-HelloW\build\core\PeripheralPins.c.o
 .ARM.attributes
                0x00000476       0x2d C:\J-Tagit\arduino-1.8.18\portable\sketchbook\arduino\Eicon\F103CBT6-BluePill-HelloW\build\core\variant_F103CBT6.cpp.o
 .ARM.attributes
                0x000004a3       0x2d C:\J-Tagit\arduino-1.8.18\portable\sketchbook\arduino\Eicon\F103CBT6-BluePill-HelloW\build\core\core.a(wiring_digital.c.o)
 .ARM.attributes
                0x000004d0       0x2d C:\J-Tagit\arduino-1.8.18\portable\sketchbook\arduino\Eicon\F103CBT6-BluePill-HelloW\build\core\core.a(wiring_time.c.o)
 .ARM.attributes
                0x000004fd       0x2d C:\J-Tagit\arduino-1.8.18\portable\sketchbook\arduino\Eicon\F103CBT6-BluePill-HelloW\build\core\core.a(HardwareSerial.cpp.o)
 .ARM.attributes
                0x0000052a       0x2d C:\J-Tagit\arduino-1.8.18\portable\sketchbook\arduino\Eicon\F103CBT6-BluePill-HelloW\build\core\core.a(HardwareTimer.cpp.o)
 .ARM.attributes
                0x00000557       0x2d C:\J-Tagit\arduino-1.8.18\portable\sketchbook\arduino\Eicon\F103CBT6-BluePill-HelloW\build\core\core.a(Print.cpp.o)
 .ARM.attributes
                0x00000584       0x2d C:\J-Tagit\arduino-1.8.18\portable\sketchbook\arduino\Eicon\F103CBT6-BluePill-HelloW\build\core\core.a(Stream.cpp.o)
 .ARM.attributes
                0x000005b1       0x2d C:\J-Tagit\arduino-1.8.18\portable\sketchbook\arduino\Eicon\F103CBT6-BluePill-HelloW\build\core\core.a(main.cpp.o)
 .ARM.attributes
                0x000005de       0x2d C:\J-Tagit\arduino-1.8.18\portable\sketchbook\arduino\Eicon\F103CBT6-BluePill-HelloW\build\core\core.a(new.cpp.o)
 .ARM.attributes
                0x0000060b       0x2d C:\J-Tagit\arduino-1.8.18\portable\sketchbook\arduino\Eicon\F103CBT6-BluePill-HelloW\build\core\core.a(board.c.o)
 .ARM.attributes
                0x00000638       0x2d C:\J-Tagit\arduino-1.8.18\portable\sketchbook\arduino\Eicon\F103CBT6-BluePill-HelloW\build\core\core.a(hooks.c.o)
 .ARM.attributes
                0x00000665       0x2d C:\J-Tagit\arduino-1.8.18\portable\sketchbook\arduino\Eicon\F103CBT6-BluePill-HelloW\build\core\core.a(wiring_analog.c.o)
 .ARM.attributes
                0x00000692       0x2d C:\J-Tagit\arduino-1.8.18\portable\sketchbook\arduino\Eicon\F103CBT6-BluePill-HelloW\build\core\core.a(WSerial.cpp.o)
 .ARM.attributes
                0x000006bf       0x2d c:/j-tagit/arduino-1.8.18/portable/packages/eicon/tools/xpack-arm-none-eabi-gcc/bin/../lib/gcc/arm-none-eabi/10.3.1/../../../../arm-none-eabi/lib/thumb/v7-m/nofp\libc_nano.a(lib_a-impure.o)
 .ARM.attributes
                0x000006ec       0x2d c:/j-tagit/arduino-1.8.18/portable/packages/eicon/tools/xpack-arm-none-eabi-gcc/bin/../lib/gcc/arm-none-eabi/10.3.1/../../../../arm-none-eabi/lib/thumb/v7-m/nofp\libc_nano.a(lib_a-init.o)
 .ARM.attributes
                0x00000719       0x2d c:/j-tagit/arduino-1.8.18/portable/packages/eicon/tools/xpack-arm-none-eabi-gcc/bin/../lib/gcc/arm-none-eabi/10.3.1/../../../../arm-none-eabi/lib/thumb/v7-m/nofp\libc_nano.a(lib_a-malloc.o)
 .ARM.attributes
                0x00000746       0x2d c:/j-tagit/arduino-1.8.18/portable/packages/eicon/tools/xpack-arm-none-eabi-gcc/bin/../lib/gcc/arm-none-eabi/10.3.1/../../../../arm-none-eabi/lib/thumb/v7-m/nofp\libc_nano.a(lib_a-memcpy-stub.o)
 .ARM.attributes
                0x00000773       0x2d c:/j-tagit/arduino-1.8.18/portable/packages/eicon/tools/xpack-arm-none-eabi-gcc/bin/../lib/gcc/arm-none-eabi/10.3.1/../../../../arm-none-eabi/lib/thumb/v7-m/nofp\libc_nano.a(lib_a-memset.o)
 .ARM.attributes
                0x000007a0       0x2d c:/j-tagit/arduino-1.8.18/portable/packages/eicon/tools/xpack-arm-none-eabi-gcc/bin/../lib/gcc/arm-none-eabi/10.3.1/../../../../arm-none-eabi/lib/thumb/v7-m/nofp\libc_nano.a(lib_a-nano-freer.o)
 .ARM.attributes
                0x000007cd       0x2d c:/j-tagit/arduino-1.8.18/portable/packages/eicon/tools/xpack-arm-none-eabi-gcc/bin/../lib/gcc/arm-none-eabi/10.3.1/../../../../arm-none-eabi/lib/thumb/v7-m/nofp\libc_nano.a(lib_a-nano-mallocr.o)
 .ARM.attributes
                0x000007fa       0x2d c:/j-tagit/arduino-1.8.18/portable/packages/eicon/tools/xpack-arm-none-eabi-gcc/bin/../lib/gcc/arm-none-eabi/10.3.1/../../../../arm-none-eabi/lib/thumb/v7-m/nofp\libc_nano.a(lib_a-reent.o)
 .ARM.attributes
                0x00000827       0x2d c:/j-tagit/arduino-1.8.18/portable/packages/eicon/tools/xpack-arm-none-eabi-gcc/bin/../lib/gcc/arm-none-eabi/10.3.1/../../../../arm-none-eabi/lib/thumb/v7-m/nofp\libc_nano.a(lib_a-sbrkr.o)
 .ARM.attributes
                0x00000854       0x17 c:/j-tagit/arduino-1.8.18/portable/packages/eicon/tools/xpack-arm-none-eabi-gcc/bin/../lib/gcc/arm-none-eabi/10.3.1/../../../../arm-none-eabi/lib/thumb/v7-m/nofp\libc_nano.a(lib_a-strlen.o)
 .ARM.attributes
                0x0000086b       0x2d c:/j-tagit/arduino-1.8.18/portable/packages/eicon/tools/xpack-arm-none-eabi-gcc/bin/../lib/gcc/arm-none-eabi/10.3.1/../../../../arm-none-eabi/lib/thumb/v7-m/nofp\libc_nano.a(lib_a-findfp.o)
 .ARM.attributes
                0x00000898       0x2d c:/j-tagit/arduino-1.8.18/portable/packages/eicon/tools/xpack-arm-none-eabi-gcc/bin/../lib/gcc/arm-none-eabi/10.3.1/../../../../arm-none-eabi/lib/thumb/v7-m/nofp\libc_nano.a(lib_a-lock.o)
 .ARM.attributes
                0x000008c5       0x2d c:/j-tagit/arduino-1.8.18/portable/packages/eicon/tools/xpack-arm-none-eabi-gcc/bin/../lib/gcc/arm-none-eabi/10.3.1/../../../../arm-none-eabi/lib/thumb/v7-m/nofp\libc_nano.a(lib_a-mlock.o)
 .ARM.attributes
                0x000008f2       0x2d c:/j-tagit/arduino-1.8.18/portable/packages/eicon/tools/xpack-arm-none-eabi-gcc/bin/../lib/gcc/arm-none-eabi/10.3.1/../../../../arm-none-eabi/lib/thumb/v7-m/nofp\libc_nano.a(lib_a-abort.o)
 .ARM.attributes
                0x0000091f       0x2d c:/j-tagit/arduino-1.8.18/portable/packages/eicon/tools/xpack-arm-none-eabi-gcc/bin/../lib/gcc/arm-none-eabi/10.3.1/../../../../arm-none-eabi/lib/thumb/v7-m/nofp\libc_nano.a(lib_a-signal.o)
 .ARM.attributes
                0x0000094c       0x2d c:/j-tagit/arduino-1.8.18/portable/packages/eicon/tools/xpack-arm-none-eabi-gcc/bin/../lib/gcc/arm-none-eabi/10.3.1/../../../../arm-none-eabi/lib/thumb/v7-m/nofp\libc_nano.a(lib_a-signalr.o)
 .ARM.attributes
                0x00000979       0x2d c:/j-tagit/arduino-1.8.18/portable/packages/eicon/tools/xpack-arm-none-eabi-gcc/bin/../lib/gcc/arm-none-eabi/10.3.1/../../../../arm-none-eabi/lib/thumb/v7-m/nofp\libstdc++_nano.a(functional.o)
 .ARM.attributes
                0x000009a6       0x1d c:/j-tagit/arduino-1.8.18/portable/packages/eicon/tools/xpack-arm-none-eabi-gcc/bin/../lib/gcc/arm-none-eabi/10.3.1/thumb/v7-m/nofp/crtn.o
OUTPUT(C:\J-Tagit\arduino-1.8.18\portable\sketchbook\arduino\Eicon\F103CBT6-BluePill-HelloW\build/F103CBT6-BluePill-HelloW.ino.elf elf32-littlearm)
LOAD linker stubs
LOAD c:/j-tagit/arduino-1.8.18/portable/packages/eicon/tools/xpack-arm-none-eabi-gcc/bin/../lib/gcc/arm-none-eabi/10.3.1/../../../../arm-none-eabi/lib/thumb/v7-m/nofp\libc.a
LOAD c:/j-tagit/arduino-1.8.18/portable/packages/eicon/tools/xpack-arm-none-eabi-gcc/bin/../lib/gcc/arm-none-eabi/10.3.1/../../../../arm-none-eabi/lib/thumb/v7-m/nofp\libm.a
LOAD c:/j-tagit/arduino-1.8.18/portable/packages/eicon/tools/xpack-arm-none-eabi-gcc/bin/../lib/gcc/arm-none-eabi/10.3.1/thumb/v7-m/nofp\libgcc.a

.comment        0x00000000       0x41
 .comment       0x00000000       0x41 c:/j-tagit/arduino-1.8.18/portable/packages/eicon/tools/xpack-arm-none-eabi-gcc/bin/../lib/gcc/arm-none-eabi/10.3.1/thumb/v7-m/nofp/crtbegin.o
                                 0x42 (size before relaxing)
 .comment       0x00000041       0x42 C:\J-Tagit\arduino-1.8.18\portable\sketchbook\arduino\Eicon\F103CBT6-BluePill-HelloW\build\sketch\F103CBT6-BluePill-HelloW.ino.cpp.o
 .comment       0x00000041       0x42 C:\J-Tagit\arduino-1.8.18\portable\sketchbook\arduino\Eicon\F103CBT6-BluePill-HelloW\build\libraries\SrcWrapper\syscalls.c.o
 .comment       0x00000041       0x42 C:\J-Tagit\arduino-1.8.18\portable\sketchbook\arduino\Eicon\F103CBT6-BluePill-HelloW\build\libraries\SrcWrapper\HAL\stm32yyxx_hal.c.o
 .comment       0x00000041       0x42 C:\J-Tagit\arduino-1.8.18\portable\sketchbook\arduino\Eicon\F103CBT6-BluePill-HelloW\build\libraries\SrcWrapper\HAL\stm32yyxx_hal_cortex.c.o
 .comment       0x00000041       0x42 C:\J-Tagit\arduino-1.8.18\portable\sketchbook\arduino\Eicon\F103CBT6-BluePill-HelloW\build\libraries\SrcWrapper\HAL\stm32yyxx_hal_dma.c.o
 .comment       0x00000041       0x42 C:\J-Tagit\arduino-1.8.18\portable\sketchbook\arduino\Eicon\F103CBT6-BluePill-HelloW\build\libraries\SrcWrapper\HAL\stm32yyxx_hal_gpio.c.o
 .comment       0x00000041       0x42 C:\J-Tagit\arduino-1.8.18\portable\sketchbook\arduino\Eicon\F103CBT6-BluePill-HelloW\build\libraries\SrcWrapper\HAL\stm32yyxx_hal_rcc.c.o
 .comment       0x00000041       0x42 C:\J-Tagit\arduino-1.8.18\portable\sketchbook\arduino\Eicon\F103CBT6-BluePill-HelloW\build\libraries\SrcWrapper\HAL\stm32yyxx_hal_rcc_ex.c.o
 .comment       0x00000041       0x42 C:\J-Tagit\arduino-1.8.18\portable\sketchbook\arduino\Eicon\F103CBT6-BluePill-HelloW\build\libraries\SrcWrapper\HAL\stm32yyxx_hal_tim.c.o
 .comment       0x00000041       0x42 C:\J-Tagit\arduino-1.8.18\portable\sketchbook\arduino\Eicon\F103CBT6-BluePill-HelloW\build\libraries\SrcWrapper\HAL\stm32yyxx_hal_tim_ex.c.o
 .comment       0x00000041       0x42 C:\J-Tagit\arduino-1.8.18\portable\sketchbook\arduino\Eicon\F103CBT6-BluePill-HelloW\build\libraries\SrcWrapper\HAL\stm32yyxx_hal_uart.c.o
 .comment       0x00000041       0x42 C:\J-Tagit\arduino-1.8.18\portable\sketchbook\arduino\Eicon\F103CBT6-BluePill-HelloW\build\libraries\SrcWrapper\stm32\PortNames.c.o
 .comment       0x00000041       0x42 C:\J-Tagit\arduino-1.8.18\portable\sketchbook\arduino\Eicon\F103CBT6-BluePill-HelloW\build\libraries\SrcWrapper\stm32\clock.c.o
 .comment       0x00000041       0x42 C:\J-Tagit\arduino-1.8.18\portable\sketchbook\arduino\Eicon\F103CBT6-BluePill-HelloW\build\libraries\SrcWrapper\stm32\dwt.c.o
 .comment       0x00000041       0x42 C:\J-Tagit\arduino-1.8.18\portable\sketchbook\arduino\Eicon\F103CBT6-BluePill-HelloW\build\libraries\SrcWrapper\stm32\hw_config.c.o
 .comment       0x00000041       0x42 C:\J-Tagit\arduino-1.8.18\portable\sketchbook\arduino\Eicon\F103CBT6-BluePill-HelloW\build\libraries\SrcWrapper\stm32\pinmap.c.o
 .comment       0x00000041       0x42 C:\J-Tagit\arduino-1.8.18\portable\sketchbook\arduino\Eicon\F103CBT6-BluePill-HelloW\build\libraries\SrcWrapper\stm32\stm32_def.c.o
 .comment       0x00000041       0x42 C:\J-Tagit\arduino-1.8.18\portable\sketchbook\arduino\Eicon\F103CBT6-BluePill-HelloW\build\libraries\SrcWrapper\stm32\system_stm32yyxx.c.o
 .comment       0x00000041       0x42 C:\J-Tagit\arduino-1.8.18\portable\sketchbook\arduino\Eicon\F103CBT6-BluePill-HelloW\build\libraries\SrcWrapper\stm32\timer.c.o
 .comment       0x00000041       0x42 C:\J-Tagit\arduino-1.8.18\portable\sketchbook\arduino\Eicon\F103CBT6-BluePill-HelloW\build\libraries\SrcWrapper\stm32\uart.c.o
 .comment       0x00000041       0x42 C:\J-Tagit\arduino-1.8.18\portable\sketchbook\arduino\Eicon\F103CBT6-BluePill-HelloW\build\libraries\SrcWrapper\stm32\analog.cpp.o
 .comment       0x00000041       0x42 C:\J-Tagit\arduino-1.8.18\portable\sketchbook\arduino\Eicon\F103CBT6-BluePill-HelloW\build\libraries\SrcWrapper\stm32\interrupt.cpp.o
 .comment       0x00000041       0x42 C:\J-Tagit\arduino-1.8.18\portable\sketchbook\arduino\Eicon\F103CBT6-BluePill-HelloW\build\core\PeripheralPins.c.o
 .comment       0x00000041       0x42 C:\J-Tagit\arduino-1.8.18\portable\sketchbook\arduino\Eicon\F103CBT6-BluePill-HelloW\build\core\variant_F103CBT6.cpp.o
 .comment       0x00000041       0x42 C:\J-Tagit\arduino-1.8.18\portable\sketchbook\arduino\Eicon\F103CBT6-BluePill-HelloW\build\core\core.a(wiring_digital.c.o)
 .comment       0x00000041       0x42 C:\J-Tagit\arduino-1.8.18\portable\sketchbook\arduino\Eicon\F103CBT6-BluePill-HelloW\build\core\core.a(wiring_time.c.o)
 .comment       0x00000041       0x42 C:\J-Tagit\arduino-1.8.18\portable\sketchbook\arduino\Eicon\F103CBT6-BluePill-HelloW\build\core\core.a(HardwareSerial.cpp.o)
 .comment       0x00000041       0x42 C:\J-Tagit\arduino-1.8.18\portable\sketchbook\arduino\Eicon\F103CBT6-BluePill-HelloW\build\core\core.a(HardwareTimer.cpp.o)
 .comment       0x00000041       0x42 C:\J-Tagit\arduino-1.8.18\portable\sketchbook\arduino\Eicon\F103CBT6-BluePill-HelloW\build\core\core.a(Print.cpp.o)
 .comment       0x00000041       0x42 C:\J-Tagit\arduino-1.8.18\portable\sketchbook\arduino\Eicon\F103CBT6-BluePill-HelloW\build\core\core.a(Stream.cpp.o)
 .comment       0x00000041       0x42 C:\J-Tagit\arduino-1.8.18\portable\sketchbook\arduino\Eicon\F103CBT6-BluePill-HelloW\build\core\core.a(main.cpp.o)
 .comment       0x00000041       0x42 C:\J-Tagit\arduino-1.8.18\portable\sketchbook\arduino\Eicon\F103CBT6-BluePill-HelloW\build\core\core.a(new.cpp.o)
 .comment       0x00000041       0x42 C:\J-Tagit\arduino-1.8.18\portable\sketchbook\arduino\Eicon\F103CBT6-BluePill-HelloW\build\core\core.a(board.c.o)
 .comment       0x00000041       0x42 C:\J-Tagit\arduino-1.8.18\portable\sketchbook\arduino\Eicon\F103CBT6-BluePill-HelloW\build\core\core.a(hooks.c.o)
 .comment       0x00000041       0x42 C:\J-Tagit\arduino-1.8.18\portable\sketchbook\arduino\Eicon\F103CBT6-BluePill-HelloW\build\core\core.a(wiring_analog.c.o)
 .comment       0x00000041       0x42 C:\J-Tagit\arduino-1.8.18\portable\sketchbook\arduino\Eicon\F103CBT6-BluePill-HelloW\build\core\core.a(WSerial.cpp.o)
 .comment       0x00000041       0x42 c:/j-tagit/arduino-1.8.18/portable/packages/eicon/tools/xpack-arm-none-eabi-gcc/bin/../lib/gcc/arm-none-eabi/10.3.1/../../../../arm-none-eabi/lib/thumb/v7-m/nofp\libc_nano.a(lib_a-impure.o)
 .comment       0x00000041       0x42 c:/j-tagit/arduino-1.8.18/portable/packages/eicon/tools/xpack-arm-none-eabi-gcc/bin/../lib/gcc/arm-none-eabi/10.3.1/../../../../arm-none-eabi/lib/thumb/v7-m/nofp\libc_nano.a(lib_a-init.o)
 .comment       0x00000041       0x42 c:/j-tagit/arduino-1.8.18/portable/packages/eicon/tools/xpack-arm-none-eabi-gcc/bin/../lib/gcc/arm-none-eabi/10.3.1/../../../../arm-none-eabi/lib/thumb/v7-m/nofp\libc_nano.a(lib_a-malloc.o)
 .comment       0x00000041       0x42 c:/j-tagit/arduino-1.8.18/portable/packages/eicon/tools/xpack-arm-none-eabi-gcc/bin/../lib/gcc/arm-none-eabi/10.3.1/../../../../arm-none-eabi/lib/thumb/v7-m/nofp\libc_nano.a(lib_a-memcpy-stub.o)
 .comment       0x00000041       0x42 c:/j-tagit/arduino-1.8.18/portable/packages/eicon/tools/xpack-arm-none-eabi-gcc/bin/../lib/gcc/arm-none-eabi/10.3.1/../../../../arm-none-eabi/lib/thumb/v7-m/nofp\libc_nano.a(lib_a-memset.o)
 .comment       0x00000041       0x42 c:/j-tagit/arduino-1.8.18/portable/packages/eicon/tools/xpack-arm-none-eabi-gcc/bin/../lib/gcc/arm-none-eabi/10.3.1/../../../../arm-none-eabi/lib/thumb/v7-m/nofp\libc_nano.a(lib_a-nano-freer.o)
 .comment       0x00000041       0x42 c:/j-tagit/arduino-1.8.18/portable/packages/eicon/tools/xpack-arm-none-eabi-gcc/bin/../lib/gcc/arm-none-eabi/10.3.1/../../../../arm-none-eabi/lib/thumb/v7-m/nofp\libc_nano.a(lib_a-nano-mallocr.o)
 .comment       0x00000041       0x42 c:/j-tagit/arduino-1.8.18/portable/packages/eicon/tools/xpack-arm-none-eabi-gcc/bin/../lib/gcc/arm-none-eabi/10.3.1/../../../../arm-none-eabi/lib/thumb/v7-m/nofp\libc_nano.a(lib_a-reent.o)
 .comment       0x00000041       0x42 c:/j-tagit/arduino-1.8.18/portable/packages/eicon/tools/xpack-arm-none-eabi-gcc/bin/../lib/gcc/arm-none-eabi/10.3.1/../../../../arm-none-eabi/lib/thumb/v7-m/nofp\libc_nano.a(lib_a-sbrkr.o)
 .comment       0x00000041       0x42 c:/j-tagit/arduino-1.8.18/portable/packages/eicon/tools/xpack-arm-none-eabi-gcc/bin/../lib/gcc/arm-none-eabi/10.3.1/../../../../arm-none-eabi/lib/thumb/v7-m/nofp\libc_nano.a(lib_a-findfp.o)
 .comment       0x00000041       0x42 c:/j-tagit/arduino-1.8.18/portable/packages/eicon/tools/xpack-arm-none-eabi-gcc/bin/../lib/gcc/arm-none-eabi/10.3.1/../../../../arm-none-eabi/lib/thumb/v7-m/nofp\libc_nano.a(lib_a-lock.o)
 .comment       0x00000041       0x42 c:/j-tagit/arduino-1.8.18/portable/packages/eicon/tools/xpack-arm-none-eabi-gcc/bin/../lib/gcc/arm-none-eabi/10.3.1/../../../../arm-none-eabi/lib/thumb/v7-m/nofp\libc_nano.a(lib_a-mlock.o)
 .comment       0x00000041       0x42 c:/j-tagit/arduino-1.8.18/portable/packages/eicon/tools/xpack-arm-none-eabi-gcc/bin/../lib/gcc/arm-none-eabi/10.3.1/../../../../arm-none-eabi/lib/thumb/v7-m/nofp\libc_nano.a(lib_a-abort.o)
 .comment       0x00000041       0x42 c:/j-tagit/arduino-1.8.18/portable/packages/eicon/tools/xpack-arm-none-eabi-gcc/bin/../lib/gcc/arm-none-eabi/10.3.1/../../../../arm-none-eabi/lib/thumb/v7-m/nofp\libc_nano.a(lib_a-signal.o)
 .comment       0x00000041       0x42 c:/j-tagit/arduino-1.8.18/portable/packages/eicon/tools/xpack-arm-none-eabi-gcc/bin/../lib/gcc/arm-none-eabi/10.3.1/../../../../arm-none-eabi/lib/thumb/v7-m/nofp\libc_nano.a(lib_a-signalr.o)
 .comment       0x00000041       0x42 c:/j-tagit/arduino-1.8.18/portable/packages/eicon/tools/xpack-arm-none-eabi-gcc/bin/../lib/gcc/arm-none-eabi/10.3.1/../../../../arm-none-eabi/lib/thumb/v7-m/nofp\libstdc++_nano.a(functional.o)

Cross Reference Table

Symbol                                            File
ADC1_2_IRQHandler                                 C:\J-Tagit\arduino-1.8.18\portable\sketchbook\arduino\Eicon\F103CBT6-BluePill-HelloW\build\core\startup_M200_f103xb.S.o
ADC_ConversionStop_Disable                        C:\J-Tagit\arduino-1.8.18\portable\sketchbook\arduino\Eicon\F103CBT6-BluePill-HelloW\build\libraries\SrcWrapper\HAL\stm32yyxx_hal_adc.c.o
                                                  C:\J-Tagit\arduino-1.8.18\portable\sketchbook\arduino\Eicon\F103CBT6-BluePill-HelloW\build\libraries\SrcWrapper\HAL\stm32yyxx_hal_adc_ex.c.o
ADC_DMAConvCplt                                   C:\J-Tagit\arduino-1.8.18\portable\sketchbook\arduino\Eicon\F103CBT6-BluePill-HelloW\build\libraries\SrcWrapper\HAL\stm32yyxx_hal_adc.c.o
                                                  C:\J-Tagit\arduino-1.8.18\portable\sketchbook\arduino\Eicon\F103CBT6-BluePill-HelloW\build\libraries\SrcWrapper\HAL\stm32yyxx_hal_adc_ex.c.o
ADC_DMAError                                      C:\J-Tagit\arduino-1.8.18\portable\sketchbook\arduino\Eicon\F103CBT6-BluePill-HelloW\build\libraries\SrcWrapper\HAL\stm32yyxx_hal_adc.c.o
                                                  C:\J-Tagit\arduino-1.8.18\portable\sketchbook\arduino\Eicon\F103CBT6-BluePill-HelloW\build\libraries\SrcWrapper\HAL\stm32yyxx_hal_adc_ex.c.o
ADC_DMAHalfConvCplt                               C:\J-Tagit\arduino-1.8.18\portable\sketchbook\arduino\Eicon\F103CBT6-BluePill-HelloW\build\libraries\SrcWrapper\HAL\stm32yyxx_hal_adc.c.o
                                                  C:\J-Tagit\arduino-1.8.18\portable\sketchbook\arduino\Eicon\F103CBT6-BluePill-HelloW\build\libraries\SrcWrapper\HAL\stm32yyxx_hal_adc_ex.c.o
ADC_Enable                                        C:\J-Tagit\arduino-1.8.18\portable\sketchbook\arduino\Eicon\F103CBT6-BluePill-HelloW\build\libraries\SrcWrapper\HAL\stm32yyxx_hal_adc.c.o
                                                  C:\J-Tagit\arduino-1.8.18\portable\sketchbook\arduino\Eicon\F103CBT6-BluePill-HelloW\build\libraries\SrcWrapper\HAL\stm32yyxx_hal_adc_ex.c.o
AHBPrescTable                                     C:\J-Tagit\arduino-1.8.18\portable\sketchbook\arduino\Eicon\F103CBT6-BluePill-HelloW\build\libraries\SrcWrapper\stm32\system_stm32yyxx.c.o
                                                  C:\J-Tagit\arduino-1.8.18\portable\sketchbook\arduino\Eicon\F103CBT6-BluePill-HelloW\build\libraries\SrcWrapper\LL\stm32yyxx_ll_utils.c.o
                                                  C:\J-Tagit\arduino-1.8.18\portable\sketchbook\arduino\Eicon\F103CBT6-BluePill-HelloW\build\libraries\SrcWrapper\LL\stm32yyxx_ll_rcc.c.o
                                                  C:\J-Tagit\arduino-1.8.18\portable\sketchbook\arduino\Eicon\F103CBT6-BluePill-HelloW\build\libraries\SrcWrapper\HAL\stm32yyxx_hal_rcc.c.o
APBPrescTable                                     C:\J-Tagit\arduino-1.8.18\portable\sketchbook\arduino\Eicon\F103CBT6-BluePill-HelloW\build\libraries\SrcWrapper\stm32\system_stm32yyxx.c.o
                                                  C:\J-Tagit\arduino-1.8.18\portable\sketchbook\arduino\Eicon\F103CBT6-BluePill-HelloW\build\libraries\SrcWrapper\LL\stm32yyxx_ll_rcc.c.o
                                                  C:\J-Tagit\arduino-1.8.18\portable\sketchbook\arduino\Eicon\F103CBT6-BluePill-HelloW\build\libraries\SrcWrapper\HAL\stm32yyxx_hal_rcc.c.o
BusFault_Handler                                  C:\J-Tagit\arduino-1.8.18\portable\sketchbook\arduino\Eicon\F103CBT6-BluePill-HelloW\build\core\startup_M200_f103xb.S.o
CAN1_RX1_IRQHandler                               C:\J-Tagit\arduino-1.8.18\portable\sketchbook\arduino\Eicon\F103CBT6-BluePill-HelloW\build\core\startup_M200_f103xb.S.o
CAN1_SCE_IRQHandler                               C:\J-Tagit\arduino-1.8.18\portable\sketchbook\arduino\Eicon\F103CBT6-BluePill-HelloW\build\core\startup_M200_f103xb.S.o
DMA1_Channel1_IRQHandler                          C:\J-Tagit\arduino-1.8.18\portable\sketchbook\arduino\Eicon\F103CBT6-BluePill-HelloW\build\core\startup_M200_f103xb.S.o
DMA1_Channel2_IRQHandler                          C:\J-Tagit\arduino-1.8.18\portable\sketchbook\arduino\Eicon\F103CBT6-BluePill-HelloW\build\core\startup_M200_f103xb.S.o
DMA1_Channel3_IRQHandler                          C:\J-Tagit\arduino-1.8.18\portable\sketchbook\arduino\Eicon\F103CBT6-BluePill-HelloW\build\core\startup_M200_f103xb.S.o
DMA1_Channel4_IRQHandler                          C:\J-Tagit\arduino-1.8.18\portable\sketchbook\arduino\Eicon\F103CBT6-BluePill-HelloW\build\core\startup_M200_f103xb.S.o
DMA1_Channel5_IRQHandler                          C:\J-Tagit\arduino-1.8.18\portable\sketchbook\arduino\Eicon\F103CBT6-BluePill-HelloW\build\core\startup_M200_f103xb.S.o
DMA1_Channel6_IRQHandler                          C:\J-Tagit\arduino-1.8.18\portable\sketchbook\arduino\Eicon\F103CBT6-BluePill-HelloW\build\core\startup_M200_f103xb.S.o
DMA1_Channel7_IRQHandler                          C:\J-Tagit\arduino-1.8.18\portable\sketchbook\arduino\Eicon\F103CBT6-BluePill-HelloW\build\core\startup_M200_f103xb.S.o
DebugMon_Handler                                  C:\J-Tagit\arduino-1.8.18\portable\sketchbook\arduino\Eicon\F103CBT6-BluePill-HelloW\build\core\startup_M200_f103xb.S.o
Default_Handler                                   C:\J-Tagit\arduino-1.8.18\portable\sketchbook\arduino\Eicon\F103CBT6-BluePill-HelloW\build\core\startup_M200_f103xb.S.o
EXTI0_IRQHandler                                  C:\J-Tagit\arduino-1.8.18\portable\sketchbook\arduino\Eicon\F103CBT6-BluePill-HelloW\build\libraries\SrcWrapper\stm32\interrupt.cpp.o
EXTI15_10_IRQHandler                              C:\J-Tagit\arduino-1.8.18\portable\sketchbook\arduino\Eicon\F103CBT6-BluePill-HelloW\build\libraries\SrcWrapper\stm32\interrupt.cpp.o
EXTI1_IRQHandler                                  C:\J-Tagit\arduino-1.8.18\portable\sketchbook\arduino\Eicon\F103CBT6-BluePill-HelloW\build\libraries\SrcWrapper\stm32\interrupt.cpp.o
EXTI2_IRQHandler                                  C:\J-Tagit\arduino-1.8.18\portable\sketchbook\arduino\Eicon\F103CBT6-BluePill-HelloW\build\libraries\SrcWrapper\stm32\interrupt.cpp.o
EXTI3_IRQHandler                                  C:\J-Tagit\arduino-1.8.18\portable\sketchbook\arduino\Eicon\F103CBT6-BluePill-HelloW\build\libraries\SrcWrapper\stm32\interrupt.cpp.o
EXTI4_IRQHandler                                  C:\J-Tagit\arduino-1.8.18\portable\sketchbook\arduino\Eicon\F103CBT6-BluePill-HelloW\build\libraries\SrcWrapper\stm32\interrupt.cpp.o
EXTI9_5_IRQHandler                                C:\J-Tagit\arduino-1.8.18\portable\sketchbook\arduino\Eicon\F103CBT6-BluePill-HelloW\build\libraries\SrcWrapper\stm32\interrupt.cpp.o
FLASH_IRQHandler                                  C:\J-Tagit\arduino-1.8.18\portable\sketchbook\arduino\Eicon\F103CBT6-BluePill-HelloW\build\core\startup_M200_f103xb.S.o
FLASH_PageErase                                   C:\J-Tagit\arduino-1.8.18\portable\sketchbook\arduino\Eicon\F103CBT6-BluePill-HelloW\build\libraries\SrcWrapper\HAL\stm32yyxx_hal_flash_ex.c.o
                                                  C:\J-Tagit\arduino-1.8.18\portable\sketchbook\arduino\Eicon\F103CBT6-BluePill-HelloW\build\libraries\SrcWrapper\HAL\stm32yyxx_hal_flash.c.o
FLASH_WaitForLastOperation                        C:\J-Tagit\arduino-1.8.18\portable\sketchbook\arduino\Eicon\F103CBT6-BluePill-HelloW\build\libraries\SrcWrapper\HAL\stm32yyxx_hal_flash.c.o
                                                  C:\J-Tagit\arduino-1.8.18\portable\sketchbook\arduino\Eicon\F103CBT6-BluePill-HelloW\build\libraries\SrcWrapper\HAL\stm32yyxx_hal_flash_ex.c.o
GPIOPort                                          C:\J-Tagit\arduino-1.8.18\portable\sketchbook\arduino\Eicon\F103CBT6-BluePill-HelloW\build\libraries\SrcWrapper\stm32\PortNames.c.o
                                                  C:\J-Tagit\arduino-1.8.18\portable\sketchbook\arduino\Eicon\F103CBT6-BluePill-HelloW\build\core\core.a(wiring_digital.c.o)
HAL_ADCEx_Calibration_Start                       C:\J-Tagit\arduino-1.8.18\portable\sketchbook\arduino\Eicon\F103CBT6-BluePill-HelloW\build\libraries\SrcWrapper\HAL\stm32yyxx_hal_adc_ex.c.o
                                                  C:\J-Tagit\arduino-1.8.18\portable\sketchbook\arduino\Eicon\F103CBT6-BluePill-HelloW\build\libraries\SrcWrapper\stm32\analog.cpp.o
HAL_ADCEx_InjectedConfigChannel                   C:\J-Tagit\arduino-1.8.18\portable\sketchbook\arduino\Eicon\F103CBT6-BluePill-HelloW\build\libraries\SrcWrapper\HAL\stm32yyxx_hal_adc_ex.c.o
HAL_ADCEx_InjectedConvCpltCallback                C:\J-Tagit\arduino-1.8.18\portable\sketchbook\arduino\Eicon\F103CBT6-BluePill-HelloW\build\libraries\SrcWrapper\HAL\stm32yyxx_hal_adc_ex.c.o
                                                  C:\J-Tagit\arduino-1.8.18\portable\sketchbook\arduino\Eicon\F103CBT6-BluePill-HelloW\build\libraries\SrcWrapper\HAL\stm32yyxx_hal_adc.c.o
HAL_ADCEx_InjectedGetValue                        C:\J-Tagit\arduino-1.8.18\portable\sketchbook\arduino\Eicon\F103CBT6-BluePill-HelloW\build\libraries\SrcWrapper\HAL\stm32yyxx_hal_adc_ex.c.o
HAL_ADCEx_InjectedPollForConversion               C:\J-Tagit\arduino-1.8.18\portable\sketchbook\arduino\Eicon\F103CBT6-BluePill-HelloW\build\libraries\SrcWrapper\HAL\stm32yyxx_hal_adc_ex.c.o
HAL_ADCEx_InjectedStart                           C:\J-Tagit\arduino-1.8.18\portable\sketchbook\arduino\Eicon\F103CBT6-BluePill-HelloW\build\libraries\SrcWrapper\HAL\stm32yyxx_hal_adc_ex.c.o
HAL_ADCEx_InjectedStart_IT                        C:\J-Tagit\arduino-1.8.18\portable\sketchbook\arduino\Eicon\F103CBT6-BluePill-HelloW\build\libraries\SrcWrapper\HAL\stm32yyxx_hal_adc_ex.c.o
HAL_ADCEx_InjectedStop                            C:\J-Tagit\arduino-1.8.18\portable\sketchbook\arduino\Eicon\F103CBT6-BluePill-HelloW\build\libraries\SrcWrapper\HAL\stm32yyxx_hal_adc_ex.c.o
HAL_ADCEx_InjectedStop_IT                         C:\J-Tagit\arduino-1.8.18\portable\sketchbook\arduino\Eicon\F103CBT6-BluePill-HelloW\build\libraries\SrcWrapper\HAL\stm32yyxx_hal_adc_ex.c.o
HAL_ADCEx_MultiModeConfigChannel                  C:\J-Tagit\arduino-1.8.18\portable\sketchbook\arduino\Eicon\F103CBT6-BluePill-HelloW\build\libraries\SrcWrapper\HAL\stm32yyxx_hal_adc_ex.c.o
HAL_ADCEx_MultiModeGetValue                       C:\J-Tagit\arduino-1.8.18\portable\sketchbook\arduino\Eicon\F103CBT6-BluePill-HelloW\build\libraries\SrcWrapper\HAL\stm32yyxx_hal_adc_ex.c.o
HAL_ADCEx_MultiModeStart_DMA                      C:\J-Tagit\arduino-1.8.18\portable\sketchbook\arduino\Eicon\F103CBT6-BluePill-HelloW\build\libraries\SrcWrapper\HAL\stm32yyxx_hal_adc_ex.c.o
HAL_ADCEx_MultiModeStop_DMA                       C:\J-Tagit\arduino-1.8.18\portable\sketchbook\arduino\Eicon\F103CBT6-BluePill-HelloW\build\libraries\SrcWrapper\HAL\stm32yyxx_hal_adc_ex.c.o
HAL_ADC_AnalogWDGConfig                           C:\J-Tagit\arduino-1.8.18\portable\sketchbook\arduino\Eicon\F103CBT6-BluePill-HelloW\build\libraries\SrcWrapper\HAL\stm32yyxx_hal_adc.c.o
HAL_ADC_ConfigChannel                             C:\J-Tagit\arduino-1.8.18\portable\sketchbook\arduino\Eicon\F103CBT6-BluePill-HelloW\build\libraries\SrcWrapper\HAL\stm32yyxx_hal_adc.c.o
                                                  C:\J-Tagit\arduino-1.8.18\portable\sketchbook\arduino\Eicon\F103CBT6-BluePill-HelloW\build\libraries\SrcWrapper\stm32\analog.cpp.o
HAL_ADC_ConvCpltCallback                          C:\J-Tagit\arduino-1.8.18\portable\sketchbook\arduino\Eicon\F103CBT6-BluePill-HelloW\build\libraries\SrcWrapper\HAL\stm32yyxx_hal_adc.c.o
HAL_ADC_ConvHalfCpltCallback                      C:\J-Tagit\arduino-1.8.18\portable\sketchbook\arduino\Eicon\F103CBT6-BluePill-HelloW\build\libraries\SrcWrapper\HAL\stm32yyxx_hal_adc.c.o
HAL_ADC_DeInit                                    C:\J-Tagit\arduino-1.8.18\portable\sketchbook\arduino\Eicon\F103CBT6-BluePill-HelloW\build\libraries\SrcWrapper\HAL\stm32yyxx_hal_adc.c.o
                                                  C:\J-Tagit\arduino-1.8.18\portable\sketchbook\arduino\Eicon\F103CBT6-BluePill-HelloW\build\libraries\SrcWrapper\stm32\analog.cpp.o
HAL_ADC_ErrorCallback                             C:\J-Tagit\arduino-1.8.18\portable\sketchbook\arduino\Eicon\F103CBT6-BluePill-HelloW\build\libraries\SrcWrapper\HAL\stm32yyxx_hal_adc.c.o
HAL_ADC_GetError                                  C:\J-Tagit\arduino-1.8.18\portable\sketchbook\arduino\Eicon\F103CBT6-BluePill-HelloW\build\libraries\SrcWrapper\HAL\stm32yyxx_hal_adc.c.o
HAL_ADC_GetState                                  C:\J-Tagit\arduino-1.8.18\portable\sketchbook\arduino\Eicon\F103CBT6-BluePill-HelloW\build\libraries\SrcWrapper\HAL\stm32yyxx_hal_adc.c.o
                                                  C:\J-Tagit\arduino-1.8.18\portable\sketchbook\arduino\Eicon\F103CBT6-BluePill-HelloW\build\libraries\SrcWrapper\stm32\analog.cpp.o
HAL_ADC_GetValue                                  C:\J-Tagit\arduino-1.8.18\portable\sketchbook\arduino\Eicon\F103CBT6-BluePill-HelloW\build\libraries\SrcWrapper\HAL\stm32yyxx_hal_adc.c.o
                                                  C:\J-Tagit\arduino-1.8.18\portable\sketchbook\arduino\Eicon\F103CBT6-BluePill-HelloW\build\libraries\SrcWrapper\stm32\analog.cpp.o
HAL_ADC_IRQHandler                                C:\J-Tagit\arduino-1.8.18\portable\sketchbook\arduino\Eicon\F103CBT6-BluePill-HelloW\build\libraries\SrcWrapper\HAL\stm32yyxx_hal_adc.c.o
HAL_ADC_Init                                      C:\J-Tagit\arduino-1.8.18\portable\sketchbook\arduino\Eicon\F103CBT6-BluePill-HelloW\build\libraries\SrcWrapper\HAL\stm32yyxx_hal_adc.c.o
                                                  C:\J-Tagit\arduino-1.8.18\portable\sketchbook\arduino\Eicon\F103CBT6-BluePill-HelloW\build\libraries\SrcWrapper\stm32\analog.cpp.o
HAL_ADC_LevelOutOfWindowCallback                  C:\J-Tagit\arduino-1.8.18\portable\sketchbook\arduino\Eicon\F103CBT6-BluePill-HelloW\build\libraries\SrcWrapper\HAL\stm32yyxx_hal_adc.c.o
HAL_ADC_MspDeInit                                 C:\J-Tagit\arduino-1.8.18\portable\sketchbook\arduino\Eicon\F103CBT6-BluePill-HelloW\build\libraries\SrcWrapper\stm32\analog.cpp.o
                                                  C:\J-Tagit\arduino-1.8.18\portable\sketchbook\arduino\Eicon\F103CBT6-BluePill-HelloW\build\libraries\SrcWrapper\HAL\stm32yyxx_hal_adc.c.o
HAL_ADC_MspInit                                   C:\J-Tagit\arduino-1.8.18\portable\sketchbook\arduino\Eicon\F103CBT6-BluePill-HelloW\build\libraries\SrcWrapper\stm32\analog.cpp.o
                                                  C:\J-Tagit\arduino-1.8.18\portable\sketchbook\arduino\Eicon\F103CBT6-BluePill-HelloW\build\libraries\SrcWrapper\HAL\stm32yyxx_hal_adc.c.o
HAL_ADC_PollForConversion                         C:\J-Tagit\arduino-1.8.18\portable\sketchbook\arduino\Eicon\F103CBT6-BluePill-HelloW\build\libraries\SrcWrapper\HAL\stm32yyxx_hal_adc.c.o
                                                  C:\J-Tagit\arduino-1.8.18\portable\sketchbook\arduino\Eicon\F103CBT6-BluePill-HelloW\build\libraries\SrcWrapper\stm32\analog.cpp.o
HAL_ADC_PollForEvent                              C:\J-Tagit\arduino-1.8.18\portable\sketchbook\arduino\Eicon\F103CBT6-BluePill-HelloW\build\libraries\SrcWrapper\HAL\stm32yyxx_hal_adc.c.o
HAL_ADC_Start                                     C:\J-Tagit\arduino-1.8.18\portable\sketchbook\arduino\Eicon\F103CBT6-BluePill-HelloW\build\libraries\SrcWrapper\HAL\stm32yyxx_hal_adc.c.o
                                                  C:\J-Tagit\arduino-1.8.18\portable\sketchbook\arduino\Eicon\F103CBT6-BluePill-HelloW\build\libraries\SrcWrapper\stm32\analog.cpp.o
HAL_ADC_Start_DMA                                 C:\J-Tagit\arduino-1.8.18\portable\sketchbook\arduino\Eicon\F103CBT6-BluePill-HelloW\build\libraries\SrcWrapper\HAL\stm32yyxx_hal_adc.c.o
HAL_ADC_Start_IT                                  C:\J-Tagit\arduino-1.8.18\portable\sketchbook\arduino\Eicon\F103CBT6-BluePill-HelloW\build\libraries\SrcWrapper\HAL\stm32yyxx_hal_adc.c.o
HAL_ADC_Stop                                      C:\J-Tagit\arduino-1.8.18\portable\sketchbook\arduino\Eicon\F103CBT6-BluePill-HelloW\build\libraries\SrcWrapper\HAL\stm32yyxx_hal_adc.c.o
                                                  C:\J-Tagit\arduino-1.8.18\portable\sketchbook\arduino\Eicon\F103CBT6-BluePill-HelloW\build\libraries\SrcWrapper\stm32\analog.cpp.o
HAL_ADC_Stop_DMA                                  C:\J-Tagit\arduino-1.8.18\portable\sketchbook\arduino\Eicon\F103CBT6-BluePill-HelloW\build\libraries\SrcWrapper\HAL\stm32yyxx_hal_adc.c.o
HAL_ADC_Stop_IT                                   C:\J-Tagit\arduino-1.8.18\portable\sketchbook\arduino\Eicon\F103CBT6-BluePill-HelloW\build\libraries\SrcWrapper\HAL\stm32yyxx_hal_adc.c.o
HAL_DBGMCU_DisableDBGSleepMode                    C:\J-Tagit\arduino-1.8.18\portable\sketchbook\arduino\Eicon\F103CBT6-BluePill-HelloW\build\libraries\SrcWrapper\HAL\stm32yyxx_hal.c.o
HAL_DBGMCU_DisableDBGStandbyMode                  C:\J-Tagit\arduino-1.8.18\portable\sketchbook\arduino\Eicon\F103CBT6-BluePill-HelloW\build\libraries\SrcWrapper\HAL\stm32yyxx_hal.c.o
HAL_DBGMCU_DisableDBGStopMode                     C:\J-Tagit\arduino-1.8.18\portable\sketchbook\arduino\Eicon\F103CBT6-BluePill-HelloW\build\libraries\SrcWrapper\HAL\stm32yyxx_hal.c.o
HAL_DBGMCU_EnableDBGSleepMode                     C:\J-Tagit\arduino-1.8.18\portable\sketchbook\arduino\Eicon\F103CBT6-BluePill-HelloW\build\libraries\SrcWrapper\HAL\stm32yyxx_hal.c.o
HAL_DBGMCU_EnableDBGStandbyMode                   C:\J-Tagit\arduino-1.8.18\portable\sketchbook\arduino\Eicon\F103CBT6-BluePill-HelloW\build\libraries\SrcWrapper\HAL\stm32yyxx_hal.c.o
HAL_DBGMCU_EnableDBGStopMode                      C:\J-Tagit\arduino-1.8.18\portable\sketchbook\arduino\Eicon\F103CBT6-BluePill-HelloW\build\libraries\SrcWrapper\HAL\stm32yyxx_hal.c.o
HAL_DMA_Abort                                     C:\J-Tagit\arduino-1.8.18\portable\sketchbook\arduino\Eicon\F103CBT6-BluePill-HelloW\build\libraries\SrcWrapper\HAL\stm32yyxx_hal_dma.c.o
                                                  C:\J-Tagit\arduino-1.8.18\portable\sketchbook\arduino\Eicon\F103CBT6-BluePill-HelloW\build\libraries\SrcWrapper\HAL\stm32yyxx_hal_uart.c.o
                                                  C:\J-Tagit\arduino-1.8.18\portable\sketchbook\arduino\Eicon\F103CBT6-BluePill-HelloW\build\libraries\SrcWrapper\HAL\stm32yyxx_hal_spi.c.o
                                                  C:\J-Tagit\arduino-1.8.18\portable\sketchbook\arduino\Eicon\F103CBT6-BluePill-HelloW\build\libraries\SrcWrapper\HAL\stm32yyxx_hal_adc_ex.c.o
                                                  C:\J-Tagit\arduino-1.8.18\portable\sketchbook\arduino\Eicon\F103CBT6-BluePill-HelloW\build\libraries\SrcWrapper\HAL\stm32yyxx_hal_adc.c.o
HAL_DMA_Abort_IT                                  C:\J-Tagit\arduino-1.8.18\portable\sketchbook\arduino\Eicon\F103CBT6-BluePill-HelloW\build\libraries\SrcWrapper\HAL\stm32yyxx_hal_dma.c.o
                                                  C:\J-Tagit\arduino-1.8.18\portable\sketchbook\arduino\Eicon\F103CBT6-BluePill-HelloW\build\libraries\SrcWrapper\HAL\stm32yyxx_hal_uart.c.o
                                                  C:\J-Tagit\arduino-1.8.18\portable\sketchbook\arduino\Eicon\F103CBT6-BluePill-HelloW\build\libraries\SrcWrapper\HAL\stm32yyxx_hal_tim_ex.c.o
                                                  C:\J-Tagit\arduino-1.8.18\portable\sketchbook\arduino\Eicon\F103CBT6-BluePill-HelloW\build\libraries\SrcWrapper\HAL\stm32yyxx_hal_tim.c.o
                                                  C:\J-Tagit\arduino-1.8.18\portable\sketchbook\arduino\Eicon\F103CBT6-BluePill-HelloW\build\libraries\SrcWrapper\HAL\stm32yyxx_hal_spi.c.o
                                                  C:\J-Tagit\arduino-1.8.18\portable\sketchbook\arduino\Eicon\F103CBT6-BluePill-HelloW\build\libraries\SrcWrapper\HAL\stm32yyxx_hal_i2c.c.o
HAL_DMA_DeInit                                    C:\J-Tagit\arduino-1.8.18\portable\sketchbook\arduino\Eicon\F103CBT6-BluePill-HelloW\build\libraries\SrcWrapper\HAL\stm32yyxx_hal_dma.c.o
HAL_DMA_GetError                                  C:\J-Tagit\arduino-1.8.18\portable\sketchbook\arduino\Eicon\F103CBT6-BluePill-HelloW\build\libraries\SrcWrapper\HAL\stm32yyxx_hal_dma.c.o
                                                  C:\J-Tagit\arduino-1.8.18\portable\sketchbook\arduino\Eicon\F103CBT6-BluePill-HelloW\build\libraries\SrcWrapper\HAL\stm32yyxx_hal_uart.c.o
HAL_DMA_GetState                                  C:\J-Tagit\arduino-1.8.18\portable\sketchbook\arduino\Eicon\F103CBT6-BluePill-HelloW\build\libraries\SrcWrapper\HAL\stm32yyxx_hal_dma.c.o
                                                  C:\J-Tagit\arduino-1.8.18\portable\sketchbook\arduino\Eicon\F103CBT6-BluePill-HelloW\build\libraries\SrcWrapper\HAL\stm32yyxx_hal_i2c.c.o
HAL_DMA_IRQHandler                                C:\J-Tagit\arduino-1.8.18\portable\sketchbook\arduino\Eicon\F103CBT6-BluePill-HelloW\build\libraries\SrcWrapper\HAL\stm32yyxx_hal_dma.c.o
HAL_DMA_Init                                      C:\J-Tagit\arduino-1.8.18\portable\sketchbook\arduino\Eicon\F103CBT6-BluePill-HelloW\build\libraries\SrcWrapper\HAL\stm32yyxx_hal_dma.c.o
HAL_DMA_PollForTransfer                           C:\J-Tagit\arduino-1.8.18\portable\sketchbook\arduino\Eicon\F103CBT6-BluePill-HelloW\build\libraries\SrcWrapper\HAL\stm32yyxx_hal_dma.c.o
HAL_DMA_RegisterCallback                          C:\J-Tagit\arduino-1.8.18\portable\sketchbook\arduino\Eicon\F103CBT6-BluePill-HelloW\build\libraries\SrcWrapper\HAL\stm32yyxx_hal_dma.c.o
HAL_DMA_Start                                     C:\J-Tagit\arduino-1.8.18\portable\sketchbook\arduino\Eicon\F103CBT6-BluePill-HelloW\build\libraries\SrcWrapper\HAL\stm32yyxx_hal_dma.c.o
HAL_DMA_Start_IT                                  C:\J-Tagit\arduino-1.8.18\portable\sketchbook\arduino\Eicon\F103CBT6-BluePill-HelloW\build\libraries\SrcWrapper\HAL\stm32yyxx_hal_dma.c.o
                                                  C:\J-Tagit\arduino-1.8.18\portable\sketchbook\arduino\Eicon\F103CBT6-BluePill-HelloW\build\libraries\SrcWrapper\HAL\stm32yyxx_hal_uart.c.o
                                                  C:\J-Tagit\arduino-1.8.18\portable\sketchbook\arduino\Eicon\F103CBT6-BluePill-HelloW\build\libraries\SrcWrapper\HAL\stm32yyxx_hal_tim_ex.c.o
                                                  C:\J-Tagit\arduino-1.8.18\portable\sketchbook\arduino\Eicon\F103CBT6-BluePill-HelloW\build\libraries\SrcWrapper\HAL\stm32yyxx_hal_tim.c.o
                                                  C:\J-Tagit\arduino-1.8.18\portable\sketchbook\arduino\Eicon\F103CBT6-BluePill-HelloW\build\libraries\SrcWrapper\HAL\stm32yyxx_hal_spi.c.o
                                                  C:\J-Tagit\arduino-1.8.18\portable\sketchbook\arduino\Eicon\F103CBT6-BluePill-HelloW\build\libraries\SrcWrapper\HAL\stm32yyxx_hal_i2c.c.o
                                                  C:\J-Tagit\arduino-1.8.18\portable\sketchbook\arduino\Eicon\F103CBT6-BluePill-HelloW\build\libraries\SrcWrapper\HAL\stm32yyxx_hal_adc_ex.c.o
                                                  C:\J-Tagit\arduino-1.8.18\portable\sketchbook\arduino\Eicon\F103CBT6-BluePill-HelloW\build\libraries\SrcWrapper\HAL\stm32yyxx_hal_adc.c.o
HAL_DMA_UnRegisterCallback                        C:\J-Tagit\arduino-1.8.18\portable\sketchbook\arduino\Eicon\F103CBT6-BluePill-HelloW\build\libraries\SrcWrapper\HAL\stm32yyxx_hal_dma.c.o
HAL_DeInit                                        C:\J-Tagit\arduino-1.8.18\portable\sketchbook\arduino\Eicon\F103CBT6-BluePill-HelloW\build\libraries\SrcWrapper\HAL\stm32yyxx_hal.c.o
HAL_Delay                                         C:\J-Tagit\arduino-1.8.18\portable\sketchbook\arduino\Eicon\F103CBT6-BluePill-HelloW\build\libraries\SrcWrapper\HAL\stm32yyxx_hal.c.o
HAL_FLASHEx_Erase                                 C:\J-Tagit\arduino-1.8.18\portable\sketchbook\arduino\Eicon\F103CBT6-BluePill-HelloW\build\libraries\SrcWrapper\HAL\stm32yyxx_hal_flash_ex.c.o
HAL_FLASHEx_Erase_IT                              C:\J-Tagit\arduino-1.8.18\portable\sketchbook\arduino\Eicon\F103CBT6-BluePill-HelloW\build\libraries\SrcWrapper\HAL\stm32yyxx_hal_flash_ex.c.o
HAL_FLASHEx_OBErase                               C:\J-Tagit\arduino-1.8.18\portable\sketchbook\arduino\Eicon\F103CBT6-BluePill-HelloW\build\libraries\SrcWrapper\HAL\stm32yyxx_hal_flash_ex.c.o
HAL_FLASHEx_OBGetConfig                           C:\J-Tagit\arduino-1.8.18\portable\sketchbook\arduino\Eicon\F103CBT6-BluePill-HelloW\build\libraries\SrcWrapper\HAL\stm32yyxx_hal_flash_ex.c.o
HAL_FLASHEx_OBGetUserData                         C:\J-Tagit\arduino-1.8.18\portable\sketchbook\arduino\Eicon\F103CBT6-BluePill-HelloW\build\libraries\SrcWrapper\HAL\stm32yyxx_hal_flash_ex.c.o
HAL_FLASHEx_OBProgram                             C:\J-Tagit\arduino-1.8.18\portable\sketchbook\arduino\Eicon\F103CBT6-BluePill-HelloW\build\libraries\SrcWrapper\HAL\stm32yyxx_hal_flash_ex.c.o
HAL_FLASH_EndOfOperationCallback                  C:\J-Tagit\arduino-1.8.18\portable\sketchbook\arduino\Eicon\F103CBT6-BluePill-HelloW\build\libraries\SrcWrapper\HAL\stm32yyxx_hal_flash.c.o
HAL_FLASH_GetError                                C:\J-Tagit\arduino-1.8.18\portable\sketchbook\arduino\Eicon\F103CBT6-BluePill-HelloW\build\libraries\SrcWrapper\HAL\stm32yyxx_hal_flash.c.o
HAL_FLASH_IRQHandler                              C:\J-Tagit\arduino-1.8.18\portable\sketchbook\arduino\Eicon\F103CBT6-BluePill-HelloW\build\libraries\SrcWrapper\HAL\stm32yyxx_hal_flash.c.o
HAL_FLASH_Lock                                    C:\J-Tagit\arduino-1.8.18\portable\sketchbook\arduino\Eicon\F103CBT6-BluePill-HelloW\build\libraries\SrcWrapper\HAL\stm32yyxx_hal_flash.c.o
HAL_FLASH_OB_Launch                               C:\J-Tagit\arduino-1.8.18\portable\sketchbook\arduino\Eicon\F103CBT6-BluePill-HelloW\build\libraries\SrcWrapper\HAL\stm32yyxx_hal_flash.c.o
HAL_FLASH_OB_Lock                                 C:\J-Tagit\arduino-1.8.18\portable\sketchbook\arduino\Eicon\F103CBT6-BluePill-HelloW\build\libraries\SrcWrapper\HAL\stm32yyxx_hal_flash.c.o
HAL_FLASH_OB_Unlock                               C:\J-Tagit\arduino-1.8.18\portable\sketchbook\arduino\Eicon\F103CBT6-BluePill-HelloW\build\libraries\SrcWrapper\HAL\stm32yyxx_hal_flash.c.o
HAL_FLASH_OperationErrorCallback                  C:\J-Tagit\arduino-1.8.18\portable\sketchbook\arduino\Eicon\F103CBT6-BluePill-HelloW\build\libraries\SrcWrapper\HAL\stm32yyxx_hal_flash.c.o
HAL_FLASH_Program                                 C:\J-Tagit\arduino-1.8.18\portable\sketchbook\arduino\Eicon\F103CBT6-BluePill-HelloW\build\libraries\SrcWrapper\HAL\stm32yyxx_hal_flash.c.o
HAL_FLASH_Program_IT                              C:\J-Tagit\arduino-1.8.18\portable\sketchbook\arduino\Eicon\F103CBT6-BluePill-HelloW\build\libraries\SrcWrapper\HAL\stm32yyxx_hal_flash.c.o
HAL_FLASH_Unlock                                  C:\J-Tagit\arduino-1.8.18\portable\sketchbook\arduino\Eicon\F103CBT6-BluePill-HelloW\build\libraries\SrcWrapper\HAL\stm32yyxx_hal_flash.c.o
HAL_GPIOEx_ConfigEventout                         C:\J-Tagit\arduino-1.8.18\portable\sketchbook\arduino\Eicon\F103CBT6-BluePill-HelloW\build\libraries\SrcWrapper\HAL\stm32yyxx_hal_gpio_ex.c.o
HAL_GPIOEx_DisableEventout                        C:\J-Tagit\arduino-1.8.18\portable\sketchbook\arduino\Eicon\F103CBT6-BluePill-HelloW\build\libraries\SrcWrapper\HAL\stm32yyxx_hal_gpio_ex.c.o
HAL_GPIOEx_EnableEventout                         C:\J-Tagit\arduino-1.8.18\portable\sketchbook\arduino\Eicon\F103CBT6-BluePill-HelloW\build\libraries\SrcWrapper\HAL\stm32yyxx_hal_gpio_ex.c.o
HAL_GPIO_DeInit                                   C:\J-Tagit\arduino-1.8.18\portable\sketchbook\arduino\Eicon\F103CBT6-BluePill-HelloW\build\libraries\SrcWrapper\HAL\stm32yyxx_hal_gpio.c.o
HAL_GPIO_EXTI_Callback                            C:\J-Tagit\arduino-1.8.18\portable\sketchbook\arduino\Eicon\F103CBT6-BluePill-HelloW\build\libraries\SrcWrapper\stm32\interrupt.cpp.o
                                                  C:\J-Tagit\arduino-1.8.18\portable\sketchbook\arduino\Eicon\F103CBT6-BluePill-HelloW\build\libraries\SrcWrapper\HAL\stm32yyxx_hal_gpio.c.o
HAL_GPIO_EXTI_IRQHandler                          C:\J-Tagit\arduino-1.8.18\portable\sketchbook\arduino\Eicon\F103CBT6-BluePill-HelloW\build\libraries\SrcWrapper\HAL\stm32yyxx_hal_gpio.c.o
                                                  C:\J-Tagit\arduino-1.8.18\portable\sketchbook\arduino\Eicon\F103CBT6-BluePill-HelloW\build\libraries\SrcWrapper\stm32\interrupt.cpp.o
HAL_GPIO_Init                                     C:\J-Tagit\arduino-1.8.18\portable\sketchbook\arduino\Eicon\F103CBT6-BluePill-HelloW\build\libraries\SrcWrapper\HAL\stm32yyxx_hal_gpio.c.o
                                                  C:\J-Tagit\arduino-1.8.18\portable\sketchbook\arduino\Eicon\F103CBT6-BluePill-HelloW\build\libraries\SrcWrapper\stm32\interrupt.cpp.o
                                                  C:\J-Tagit\arduino-1.8.18\portable\sketchbook\arduino\Eicon\F103CBT6-BluePill-HelloW\build\libraries\SrcWrapper\HAL\stm32yyxx_hal_rcc.c.o
HAL_GPIO_LockPin                                  C:\J-Tagit\arduino-1.8.18\portable\sketchbook\arduino\Eicon\F103CBT6-BluePill-HelloW\build\libraries\SrcWrapper\HAL\stm32yyxx_hal_gpio.c.o
HAL_GPIO_ReadPin                                  C:\J-Tagit\arduino-1.8.18\portable\sketchbook\arduino\Eicon\F103CBT6-BluePill-HelloW\build\libraries\SrcWrapper\HAL\stm32yyxx_hal_gpio.c.o
HAL_GPIO_TogglePin                                C:\J-Tagit\arduino-1.8.18\portable\sketchbook\arduino\Eicon\F103CBT6-BluePill-HelloW\build\libraries\SrcWrapper\HAL\stm32yyxx_hal_gpio.c.o
HAL_GPIO_WritePin                                 C:\J-Tagit\arduino-1.8.18\portable\sketchbook\arduino\Eicon\F103CBT6-BluePill-HelloW\build\libraries\SrcWrapper\HAL\stm32yyxx_hal_gpio.c.o
HAL_GetDEVID                                      C:\J-Tagit\arduino-1.8.18\portable\sketchbook\arduino\Eicon\F103CBT6-BluePill-HelloW\build\libraries\SrcWrapper\HAL\stm32yyxx_hal.c.o
HAL_GetHalVersion                                 C:\J-Tagit\arduino-1.8.18\portable\sketchbook\arduino\Eicon\F103CBT6-BluePill-HelloW\build\libraries\SrcWrapper\HAL\stm32yyxx_hal.c.o
HAL_GetREVID                                      C:\J-Tagit\arduino-1.8.18\portable\sketchbook\arduino\Eicon\F103CBT6-BluePill-HelloW\build\libraries\SrcWrapper\HAL\stm32yyxx_hal.c.o
HAL_GetTick                                       C:\J-Tagit\arduino-1.8.18\portable\sketchbook\arduino\Eicon\F103CBT6-BluePill-HelloW\build\libraries\SrcWrapper\HAL\stm32yyxx_hal.c.o
                                                  C:\J-Tagit\arduino-1.8.18\portable\sketchbook\arduino\Eicon\F103CBT6-BluePill-HelloW\build\libraries\SrcWrapper\stm32\uart.c.o
                                                  C:\J-Tagit\arduino-1.8.18\portable\sketchbook\arduino\Eicon\F103CBT6-BluePill-HelloW\build\libraries\SrcWrapper\stm32\clock.c.o
                                                  C:\J-Tagit\arduino-1.8.18\portable\sketchbook\arduino\Eicon\F103CBT6-BluePill-HelloW\build\libraries\SrcWrapper\HAL\stm32yyxx_hal_uart.c.o
                                                  C:\J-Tagit\arduino-1.8.18\portable\sketchbook\arduino\Eicon\F103CBT6-BluePill-HelloW\build\libraries\SrcWrapper\HAL\stm32yyxx_hal_spi.c.o
                                                  C:\J-Tagit\arduino-1.8.18\portable\sketchbook\arduino\Eicon\F103CBT6-BluePill-HelloW\build\libraries\SrcWrapper\HAL\stm32yyxx_hal_rtc_ex.c.o
                                                  C:\J-Tagit\arduino-1.8.18\portable\sketchbook\arduino\Eicon\F103CBT6-BluePill-HelloW\build\libraries\SrcWrapper\HAL\stm32yyxx_hal_rtc.c.o
                                                  C:\J-Tagit\arduino-1.8.18\portable\sketchbook\arduino\Eicon\F103CBT6-BluePill-HelloW\build\libraries\SrcWrapper\HAL\stm32yyxx_hal_rcc_ex.c.o
                                                  C:\J-Tagit\arduino-1.8.18\portable\sketchbook\arduino\Eicon\F103CBT6-BluePill-HelloW\build\libraries\SrcWrapper\HAL\stm32yyxx_hal_rcc.c.o
                                                  C:\J-Tagit\arduino-1.8.18\portable\sketchbook\arduino\Eicon\F103CBT6-BluePill-HelloW\build\libraries\SrcWrapper\HAL\stm32yyxx_hal_i2c.c.o
                                                  C:\J-Tagit\arduino-1.8.18\portable\sketchbook\arduino\Eicon\F103CBT6-BluePill-HelloW\build\libraries\SrcWrapper\HAL\stm32yyxx_hal_flash.c.o
                                                  C:\J-Tagit\arduino-1.8.18\portable\sketchbook\arduino\Eicon\F103CBT6-BluePill-HelloW\build\libraries\SrcWrapper\HAL\stm32yyxx_hal_dma.c.o
                                                  C:\J-Tagit\arduino-1.8.18\portable\sketchbook\arduino\Eicon\F103CBT6-BluePill-HelloW\build\libraries\SrcWrapper\HAL\stm32yyxx_hal_adc_ex.c.o
                                                  C:\J-Tagit\arduino-1.8.18\portable\sketchbook\arduino\Eicon\F103CBT6-BluePill-HelloW\build\libraries\SrcWrapper\HAL\stm32yyxx_hal_adc.c.o
HAL_GetTickFreq                                   C:\J-Tagit\arduino-1.8.18\portable\sketchbook\arduino\Eicon\F103CBT6-BluePill-HelloW\build\libraries\SrcWrapper\HAL\stm32yyxx_hal.c.o
HAL_GetTickPrio                                   C:\J-Tagit\arduino-1.8.18\portable\sketchbook\arduino\Eicon\F103CBT6-BluePill-HelloW\build\libraries\SrcWrapper\HAL\stm32yyxx_hal.c.o
HAL_GetUIDw0                                      C:\J-Tagit\arduino-1.8.18\portable\sketchbook\arduino\Eicon\F103CBT6-BluePill-HelloW\build\libraries\SrcWrapper\HAL\stm32yyxx_hal.c.o
HAL_GetUIDw1                                      C:\J-Tagit\arduino-1.8.18\portable\sketchbook\arduino\Eicon\F103CBT6-BluePill-HelloW\build\libraries\SrcWrapper\HAL\stm32yyxx_hal.c.o
HAL_GetUIDw2                                      C:\J-Tagit\arduino-1.8.18\portable\sketchbook\arduino\Eicon\F103CBT6-BluePill-HelloW\build\libraries\SrcWrapper\HAL\stm32yyxx_hal.c.o
HAL_HalfDuplex_EnableReceiver                     C:\J-Tagit\arduino-1.8.18\portable\sketchbook\arduino\Eicon\F103CBT6-BluePill-HelloW\build\libraries\SrcWrapper\HAL\stm32yyxx_hal_uart.c.o
                                                  C:\J-Tagit\arduino-1.8.18\portable\sketchbook\arduino\Eicon\F103CBT6-BluePill-HelloW\build\libraries\SrcWrapper\stm32\uart.c.o
HAL_HalfDuplex_EnableTransmitter                  C:\J-Tagit\arduino-1.8.18\portable\sketchbook\arduino\Eicon\F103CBT6-BluePill-HelloW\build\libraries\SrcWrapper\HAL\stm32yyxx_hal_uart.c.o
                                                  C:\J-Tagit\arduino-1.8.18\portable\sketchbook\arduino\Eicon\F103CBT6-BluePill-HelloW\build\libraries\SrcWrapper\stm32\uart.c.o
HAL_HalfDuplex_Init                               C:\J-Tagit\arduino-1.8.18\portable\sketchbook\arduino\Eicon\F103CBT6-BluePill-HelloW\build\libraries\SrcWrapper\HAL\stm32yyxx_hal_uart.c.o
                                                  C:\J-Tagit\arduino-1.8.18\portable\sketchbook\arduino\Eicon\F103CBT6-BluePill-HelloW\build\libraries\SrcWrapper\stm32\uart.c.o
HAL_I2C_AbortCpltCallback                         C:\J-Tagit\arduino-1.8.18\portable\sketchbook\arduino\Eicon\F103CBT6-BluePill-HelloW\build\libraries\SrcWrapper\HAL\stm32yyxx_hal_i2c.c.o
HAL_I2C_AddrCallback                              C:\J-Tagit\arduino-1.8.18\portable\sketchbook\arduino\Eicon\F103CBT6-BluePill-HelloW\build\libraries\SrcWrapper\HAL\stm32yyxx_hal_i2c.c.o
HAL_I2C_DeInit                                    C:\J-Tagit\arduino-1.8.18\portable\sketchbook\arduino\Eicon\F103CBT6-BluePill-HelloW\build\libraries\SrcWrapper\HAL\stm32yyxx_hal_i2c.c.o
HAL_I2C_DisableListen_IT                          C:\J-Tagit\arduino-1.8.18\portable\sketchbook\arduino\Eicon\F103CBT6-BluePill-HelloW\build\libraries\SrcWrapper\HAL\stm32yyxx_hal_i2c.c.o
HAL_I2C_ER_IRQHandler                             C:\J-Tagit\arduino-1.8.18\portable\sketchbook\arduino\Eicon\F103CBT6-BluePill-HelloW\build\libraries\SrcWrapper\HAL\stm32yyxx_hal_i2c.c.o
HAL_I2C_EV_IRQHandler                             C:\J-Tagit\arduino-1.8.18\portable\sketchbook\arduino\Eicon\F103CBT6-BluePill-HelloW\build\libraries\SrcWrapper\HAL\stm32yyxx_hal_i2c.c.o
HAL_I2C_EnableListen_IT                           C:\J-Tagit\arduino-1.8.18\portable\sketchbook\arduino\Eicon\F103CBT6-BluePill-HelloW\build\libraries\SrcWrapper\HAL\stm32yyxx_hal_i2c.c.o
HAL_I2C_ErrorCallback                             C:\J-Tagit\arduino-1.8.18\portable\sketchbook\arduino\Eicon\F103CBT6-BluePill-HelloW\build\libraries\SrcWrapper\HAL\stm32yyxx_hal_i2c.c.o
HAL_I2C_GetError                                  C:\J-Tagit\arduino-1.8.18\portable\sketchbook\arduino\Eicon\F103CBT6-BluePill-HelloW\build\libraries\SrcWrapper\HAL\stm32yyxx_hal_i2c.c.o
HAL_I2C_GetMode                                   C:\J-Tagit\arduino-1.8.18\portable\sketchbook\arduino\Eicon\F103CBT6-BluePill-HelloW\build\libraries\SrcWrapper\HAL\stm32yyxx_hal_i2c.c.o
HAL_I2C_GetState                                  C:\J-Tagit\arduino-1.8.18\portable\sketchbook\arduino\Eicon\F103CBT6-BluePill-HelloW\build\libraries\SrcWrapper\HAL\stm32yyxx_hal_i2c.c.o
HAL_I2C_Init                                      C:\J-Tagit\arduino-1.8.18\portable\sketchbook\arduino\Eicon\F103CBT6-BluePill-HelloW\build\libraries\SrcWrapper\HAL\stm32yyxx_hal_i2c.c.o
HAL_I2C_IsDeviceReady                             C:\J-Tagit\arduino-1.8.18\portable\sketchbook\arduino\Eicon\F103CBT6-BluePill-HelloW\build\libraries\SrcWrapper\HAL\stm32yyxx_hal_i2c.c.o
HAL_I2C_ListenCpltCallback                        C:\J-Tagit\arduino-1.8.18\portable\sketchbook\arduino\Eicon\F103CBT6-BluePill-HelloW\build\libraries\SrcWrapper\HAL\stm32yyxx_hal_i2c.c.o
HAL_I2C_MasterRxCpltCallback                      C:\J-Tagit\arduino-1.8.18\portable\sketchbook\arduino\Eicon\F103CBT6-BluePill-HelloW\build\libraries\SrcWrapper\HAL\stm32yyxx_hal_i2c.c.o
HAL_I2C_MasterTxCpltCallback                      C:\J-Tagit\arduino-1.8.18\portable\sketchbook\arduino\Eicon\F103CBT6-BluePill-HelloW\build\libraries\SrcWrapper\HAL\stm32yyxx_hal_i2c.c.o
HAL_I2C_Master_Abort_IT                           C:\J-Tagit\arduino-1.8.18\portable\sketchbook\arduino\Eicon\F103CBT6-BluePill-HelloW\build\libraries\SrcWrapper\HAL\stm32yyxx_hal_i2c.c.o
HAL_I2C_Master_Receive                            C:\J-Tagit\arduino-1.8.18\portable\sketchbook\arduino\Eicon\F103CBT6-BluePill-HelloW\build\libraries\SrcWrapper\HAL\stm32yyxx_hal_i2c.c.o
HAL_I2C_Master_Receive_DMA                        C:\J-Tagit\arduino-1.8.18\portable\sketchbook\arduino\Eicon\F103CBT6-BluePill-HelloW\build\libraries\SrcWrapper\HAL\stm32yyxx_hal_i2c.c.o
HAL_I2C_Master_Receive_IT                         C:\J-Tagit\arduino-1.8.18\portable\sketchbook\arduino\Eicon\F103CBT6-BluePill-HelloW\build\libraries\SrcWrapper\HAL\stm32yyxx_hal_i2c.c.o
HAL_I2C_Master_Seq_Receive_DMA                    C:\J-Tagit\arduino-1.8.18\portable\sketchbook\arduino\Eicon\F103CBT6-BluePill-HelloW\build\libraries\SrcWrapper\HAL\stm32yyxx_hal_i2c.c.o
