:020000040800F2
:1000000000500020E51E0008451F0008451F00089D
:10001000451F0008451F0008451F0008000000009C
:10002000000000000000000000000000451F000864
:10003000451F000800000000451F0008AF1200081F
:10004000451F0008451F0008451F0008451F000800
:10005000451F0008451F0008F51D0008FB1D00088E
:10006000011E0008071E00080D1E0008451F00089D
:10007000451F0008451F0008451F0008451F0008D0
:10008000451F0008451F0008451F0008451F0008C0
:10009000451F0008451F0008451F0008131E0008E3
:1000A000451F000831260008451F000845260008A6
:1000B000492600085D26000871260008451F000833
:1000C000451F0008451F0008451F0008451F000880
:1000D000451F0008091D0008211D00083D1D0008DE
:1000E000291E0008451F0008451F000800000000E9
:1000F0000000000000000000000000000000000000
:0C01000000000000000000005FF808F1A3
:10010C00034613F8012B002AFBD1181A013870474B
:10011C0010B5054C237833B9044B13B10448AFF335
:10012C0000800123237010BD880000200000000017
:10013C00602B000808B5034B1BB103490348AFF310
:10014C00008008BD000000008C000020602B00081F
:10015C0008B50121112001F03DFFBDE80840062241
:10016C004FF41651014802F043B900BFF4010020CE
:10017C0010B50D4C0121112001F090FF0B492046C8
:10018C0002F0E8FA4FF47A7001F0C6FF002111205A
:10019C0001F084FF2046064902F0DCFABDE810406D
:1001AC004FF47A7001F0B8BFF4010020782B0008EE
:1001BC007E2B000803460A4910B508680344EFF388
:1001CC000882934205D90C224FF0FF30054B1A6080
:1001DC0010BD054A054C121B9342F4D20B60F7E795
:1001EC00000000202C030020005000200004000020
:1001FC00FEE700001622024B4FF0FF301A607047EA
:10020C002C030020012070477047000038B50E4BBE
:10021C00054618784FF47A73B3FBF0F30B4A106869
:10022C00B0FBF3F000F0A0F8044658B90F2D09D834
:10023C00024629464FF0FF3000F042F82046044BAE
:10024C001D6038BD0120FCE70400002020000020C8
:10025C0008000020074A08B51368032043F0100378
:10026C00136000F01BF80020FFF7D0FFFFF7CCFF66
:10027C00002008BD00200240034A044B11681B7883
:10028C000B441360704700BFA40000200400002042
:10029C00014B1868704700BFA400002007490302F7
:1002AC00CA6803F4E06322F4E0621204120C1343F4
:1002BC0043F0BF6343F40033CB60704700ED00E0C4
:1002CC00164B30B5DC68C4F30224C4F10703251DBA
:1002DC00042B28BF0423062D4FF0FF3598BF0024B4
:1002EC0005FA03F388BF033C21EA0303A34005FA94
:1002FC0004F422EA0402002843EA0203ACBF00F132
:10030C006040074A4FEA0313DBB2ABBF00F5614014
:10031C0000F00F0080F80033135430BD00ED00E006
:10032C0014ED00E0002808DB0123420900F01F0057
:10033C0003FA00F0014B43F82200704700E100E0A3
:10034C0000280DDB0122430900F01F0002FA00F027
:10035C00044A203342F82300BFF34F8FBFF36F8F53
:10036C00704700BF00E100E00138B0F1807F0BD294
:10037C004FF0E023F021054A586182F82310002049
:10038C00072298611A6170470120704700ED00E068
:10039C00002809DB0122430900F01F0002FA00F0DB
:1003AC00024A603342F82300704700BF00E100E0CE
:1003BC00704708B5FFF7FCFF08BD90F82130022B01
:1003CC0006D004238363002380F82030012070477B
:1003DC0003681A6822F00E021A601A6822F00102F1
:1003EC001A600123D0E90F218B4053604FF48073C6
:1003FC00038400207047000008B590F82130022BD0
:10040C0003D004238363012008BD03681A6822F01B
:10041C000E021A601A6822F001021A60174A9342FF
:10042C001CD0143293421BD0143293421AD0143283
:10043C0093421AD0143293421AD0143293420CBF06
:10044C004FF480134FF080730D4A53604FF4807358
:10045C000384436B7BB198470020D5E70123F3E776
:10046C001023F1E74FF48073EEE74FF48053EBE782
:10047C004FF48033E8E71846C6E700BF0800024097
:10048C0000000240044A08B55169014202D0506193
:10049C0001F094FC08BD00BF000401402DE9F341BC
:1004AC00054638B30368DB0710D42B689F075ED46E
:1004BC002B68190700F195802B685A0700F1C18051
:1004CC00E869002840F02C81002029E0904C6368FA
:1004DC0003F00C03042B07D0636803F00C03082B08
:1004EC000AD16368DE0307D523689C03DDD56B68EE
:1004FC00002BDAD1012013E06B68B3F5803F12D1E9
:10050C00236843F480332360FFF7C2FE064623685A
:10051C009803CAD4FFF7BCFE801B6428F7D90320CC
:10052C0002B0BDE8F0819BB9236823F480332360CB
:10053C00236823F480232360FFF7AAFE0646236872
:10054C009903B2D5FFF7A4FE801B6428F7D9E6E720
:10055C00B3F5A02F236803D143F480232360CFE7A6
:10056C0023F480332360236823F48023CBE7684C87
:10057C00636813F00C0F07D0636803F00C03082BAF
:10058C0010D16368DA030DD423689B0702D52B695D
:10059C00012BAFD123686A6923F0F80343EAC20345
:1005AC00236085E72A695B4B6AB101221A60FFF769
:1005BC006FFE064623689F07ECD4FFF769FE801B8D
:1005CC000228F7D9ABE71A60FFF762FE06462368EC
:1005DC0098077FF56DAFFFF75BFE801B0228F6D9FD
:1005EC009DE7AA694A4E4B4BE2B10122C3F8802425
:1005FC00FFF74EFE0446736A9B070DD54FF4FA5273
:10060C00454B1B68B3FBF2F3019300BF019B5A1ED1
:10061C000192002BF9D14FE7FFF73AFE001B02289D
:10062C00E9D97CE7C3F88024FFF732FE0446736AED
:10063C009F077FF541AFFFF72BFE001B0228F6D971
:10064C006DE7334CE369D80024D40127E36943F008
:10065C008053E361E36903F080530093009B2F4EBA
:10066C003368D90518D5EB68012B26D1236A43F0E2
:10067C0001032362FFF70CFE41F288380646236A19
:10068C009B073FD5002F3FF41BAFE36923F080534A
:10069C00E36115E70027E2E7336843F480733360C6
:1006AC00FFF7F6FD80463368DA05DCD4FFF7F0FD82
:1006BC00A0EB08006428F6D931E7ABB9236A41F204
:1006CC00883823F001032362236A23F00403236296
:1006DC00FFF7DEFD0646236A9807D3D5FFF7D8FD52
:1006EC00801B4045F7D91AE7052B236A03D143F049
:1006FC0004032362BAE723F001032362236A23F085
:10070C000403B6E7FFF7C4FD801B4045B7D906E7E5
:10071C000010024000004242200000200070004007
:10072C002A4C636803F00C03082B3ED00022284BA4
:10073C0002281A662CD1FFF7ABFD064623689901F7
:10074C0020D42B6AB3F5803F05D16268A96822F4E6
:10075C0000320A436260696A62680B4322F47412C5
:10076C001343012263601A4B1A66FFF791FD05468D
:10077C0023689A013FF5A8AEFFF78AFD401B0228BB
:10078C00F6D9CCE6FFF784FD801B0228D6D9C6E645
:10079C00FFF77EFD054623689B017FF595AEFFF7BD
:1007AC0077FD401B0228F6D9B9E601283FF4B8AE14
:1007BC0063682A6A03F4803191427FF49BAE6A6AC3
:1007CC0003F4701393423FF47FAE93E600100240A3
:1007DC000000424230B5184B87B002AC03F1100553
:1007EC00224618685968083303C2AB421446F7D145
:1007FC0040F201231149ADF804304B6803F00C02B0
:10080C00082A17D1C3F3834218326A44DB0312F867
:10081C00100C0CD54B680A4AC3F3404350431833B1
:10082C006B4413F8143CB0FBF3F007B030BD054B30
:10083C005843FAE70248F8E7882B000800100240FA
:10084C0000127A0000093D002DE9F0410D460446E6
:10085C0010B90120BDE8F081444A136803F0070386
:10086C008B4228D321688E0730D4CA0743D43F4A21
:10087C00136803F00703AB4265D822683C4D12F0B5
:10088C00040F6CD1130706D56B68226923F46053EF
:10089C0043EAC2036B60FFF79DFF6B68354AC3F3F5
:1008AC000313D35CD840344B1860344B1868FFF7F3
:1008BC00ADFC0020CEE7136823F007030B43136055
:1008CC00136803F007038B42C3D1CBE7284B11F01D
:1008DC00040F1EBF5A6842F4E0625A60080742BF18
:1008EC005A6842F460525A605A68A06822F0F002CA
:1008FC0002435A60B9E762681D4E012A33681AD167
:10090C0013F4003FA5D0736841F2883823F0030339
:10091C0013437360FFF7BCFC07467368626803F00F
:10092C000C03B3EB820FA2D0FFF7B2FCC01B404507
:10093C00F3D903208EE7022A02D113F0007FE1E7FE
:10094C0013F0020FDEE7136823F007032B43136049
:10095C00136803F00703AB427FF47BAF8DE76B6842
:10096C00E16823F4E0630B436B608BE700200240EB
:10097C0000100240482C0008200000200800002035
:10098C00044B054A5B68C3F30223D35C034A10682B
:10099C00D840704700100240582C0008200000205E
:1009AC00044B054A5B68C3F3C223D35C034A10684B
:1009BC00D840704700100240582C0008200000203E
:1009CC0003682DE9F341D907054620D5364CE36978
:1009DC00DA0032D40126E36943F08053E361E36922
:1009EC0003F080530193019B304F3B68DB0526D508
:1009FC00236A13F4407336D1236A6A6823F4407374
:100A0C00134323621EB1E36923F08053E36128682A
:100A1C00830706D52449AB684A6822F440421A433E
:100A2C004A6010F010001BD01F4AE9685368002080
:100A3C0023F480030B43536012E00026D4E73B6899
:100A4C0043F480733B60FFF723FC80463B68D8057A
:100A5C00CED4FFF71DFCA0EB08006428F6D90320C8
:100A6C0002B0BDE8F0816A6802F440729A42C3D0C9
:100A7C0001200F4A236AC2F84004002023F440717D
:100A8C00C2F840042162D907B6D5FFF701FC41F248
:100A9C0088380746236A9A07AED4FFF7F9FBC01BC8
:100AAC004045F7D9DBE700BF001002400070004062
:100ABC000000424270477047036810B51A6904463B
:100ACC0091070ED5DA6892070BD56FF002021A6106
:100ADC00012202779B699B0777D001F017FE002358
:100AEC00237723681A69500710D5DA6851070DD59A
:100AFC006FF004021A61022222779B69204613F4DC
:100B0C00407F68D001F002FE0023237723681A6926
:100B1C0012070FD5DA6810070CD56FF008021A61AE
:100B2C0004222277DB69204699075AD001F0EEFDAA
:100B3C000023237723681A69D20610D5DA68D00609
:100B4C000DD56FF010021A6108222277DB6920465E
:100B5C0013F4407F4BD001F0D9FD00232377236899
:100B6C001A69D10708D5DA68D20705D56FF00102EA
:100B7C0020461A6101F09EFD23681A69100608D5FB
:100B8C00DA68110605D56FF0800220461A6100F074
:100B9C009AF823681A69520608D5DA68500605D502
:100BAC006FF0400220461A61FFF785FF23681A692F
:100BBC00910622D5DA6892061FD56FF020022046E6
:100BCC00BDE810401A6100F07DB801F09DFD204693
:100BDC00FFF770FF83E701F097FD2046FFF76AFFF0
:100BEC0092E701F091FD2046FFF764FFA0E701F0CA
:100BFC008BFD2046FFF75EFFAFE710BD1A4A036876
:100C0C0090420AD0B0F1804F07D0A2F594329042B6
:100C1C0003D002F58062904215D14A6823F070032C
:100C2C001343114A90420AD0B0F1804F07D0A2F57D
:100C3C009432904203D002F58062904203D1CA688C
:100C4C0023F4407313434A6923F080031343036076
:100C5C008B68C3620B688362034B984204BF0B69B9
:100C6C000363012343617047002C014010B5044617
:100C7C0030B390F83D3003F0FF021BB980F83C20F4
:100C8C0000F084FE0223206884F83D30211DFFF71C
:100C9C00B5FF0123002084F8463084F83E3084F8F8
:100CAC003F3084F8403084F8413084F8423084F886
:100CBC00433084F8443084F8453084F83D3010BD1E
:100CCC000120FCE7704770470368DA6822F49072E1
:100CDC00DA605A6922F001025A61026B012A02BFE2
:100CEC00DA6822F01002DA60202380F83E3000230C
:100CFC000363704710B504460368C1681A6922F48F
:100D0C0040520A431A6182680069D96802436069DB
:100D1C0021F4B05121F00C0102430A43DA605A6904
:100D2C00A16922F440720A435A610E4A934215D1CA
:100D3C00FFF736FE19234343626820689200B3FB29
:100D4C00F2F36422B3FBF2F102FB11331B013233D9
:100D5C00B3FBF2F303EB0113836010BDFFF710FE3E
:100D6C00E8E700BF00380140704710B5044640B3B7
:100D7C0090F83D3003F0FF021BB980F83C20FFF7E0
:100D8C00F3FF2423226884F83D30D368204623F4F3
:100D9C000053D360FFF7AEFF236800201A6922F4DA
:100DAC0090421A615A6922F02A025A61DA6842F4B6
:100DBC000052DA602023206484F83D3084F83E3001
:100DCC0010BD0120FCE710B5044660B390F83D302F
:100DDC0003F0FF021BB980F83C20FFF7C5FF24236A
:100DEC00226884F83D30D368204623F40053D36046
:100DFC00FFF780FF236800201A6922F490421A61E1
:100E0C005A6922F022025A615A6942F008025A6168
:100E1C00DA6842F40052DA602023206484F83D3012
:100E2C0084F83E3010BD0120FCE790F83D30202BBB
:100E3C0018D1A9B1A2B190F83C30012B12D0C284C8
:100E4C0000238284212201620168036480F83C3013
:100E5C0080F83D20CA68184642F08002CA6070478C
:100E6C00012070470220704708B50023406AC385F3
:100E7C00C38400F005FF08BD704707B58168836A1D
:100E8C00B1F5805F026834D10169002934D1526810
:100E9C00C2F3080223F8022BC28D8362013A92B28C
:100EAC00C2851ABB0368D96821F02001D960D968C2
:100EBC0021F48071D960596921F001015961202117
:100ECC0080F83E10016B012920D10263D96821F012
:100EDC001001D9601968C90605D501921A680192EA
:100EEC005B680193019B818DFFF7C6FF03B05DF832
:100EFC0004FB39B9016929B95268D2B21A70836AF4
:100F0C000133C9E7526802F07F02F7E700F0B2FE46
:100F1C00ECE70000036837B51A68044612F00F0FAF
:100F2C00D9685D690CD1950667D58D0665D590F8A5
:100F3C003E30222B5BD103B0BDE83040FFF79DBFA4
:100F4C0005F0010001F49075054356D0D50705D581
:100F5C00CB0542BF236C43F001032364550704D532
:100F6C0018B1236C43F002032364930704D518B122
:100F7C00236C43F004032364150707D501F0200309
:100F8C0003431EBF236C43F008032364236C73B329
:100F9C00920608D58B0606D594F83E30222B02D14A
:100FAC002046FFF76AFF236820465B69256C03F037
:100FBC00400305F008051D431BD0FFF785FE236891
:100FCC005A69550610D55A69A06B22F040025A6135
:100FDC0050B1534B4363FFF70FFA40B1A06B436B17
:100FEC0003B0BDE830401847204600F049FE03B07E
:100FFC0030BD00F045FE2564F9E7206B012855D182
:10100C00D00653D5CD0651D5002101911A68019215
:10101C005A680192019A5A6912F040022AD0A06BC8
:10102C000268526892B2002AE1D0A58D9542DED9B1
:10103C00E2858269202A15D0DA6822F48072DA609F
:10104C005A6922F001025A615A6922F040025A612F
:10105C00202284F83E202163DA6822F01002DA6044
:10106C00FFF7ABF9E38DA18DC91A89B22046FFF7C2
:10107C0003FFBCE7E18D88B2E18D89B20029B6D0BF
:10108C00A18D091A89B20029B1D0D86820F49070CA
:10109C00D860586920F001005861202084F83E0087
:1010AC002263DA6822F01002DA60DFE7100626D538
:1010BC000D0624D594F83D20212A98D1A168226AE6
:1010CC00B1F5805F16D12169A1B932F8021BC1F3C9
:1010DC00080159602262E28C013A92B2E284002A41
:1010EC0085D1DA6822F08002DA60DA6842F04002D8
:1010FC00DA607CE7511C216212785A60EBE75006EB
:10110C007FF575AF4A067FF572AFDA68204622F09C
:10111C004002DA60202384F83D3000F0AEFD66E733
:10112C00750E000890F83C30012B11D02423026876
:10113C0080F83D30D36823F00C0343F00803D360F0
:10114C00202380F83D30002380F83C30184670474F
:10115C000220704790F83C30012B11D024230268F8
:10116C0080F83D30D36823F00C0343F00403D360C4
:10117C00202380F83D30002380F83C30184670471F
:10118C000220704790F83D2090F83E0010437047C5
:10119C00C28582858162034622220020186483F86E
:1011AC003C0083F83E201B68DA6842F48072DA60F7
:1011BC005A6942F001025A61DA6842F02002DA60A0
:1011CC00704770B490F83E60202E10D161B15AB1C6
:1011DC0090F83C40012C0AD0012480F83C400024BB
:1011EC00046370BCFFF7D4BF012070BC70470220B1
:1011FC00FBE7000086B0042841D8DFE800F00310BC
:10120C001C2834001F4B20489A6942F004029A6152
:10121C009B6903F004030193019B06B07047194BC3
:10122C001A489A6942F008029A619B6903F0080314
:10123C000293029BF1E7134B15489A6942F0100296
:10124C009A619B6903F010030393039BE5E70D4B35
:10125C0010489A6942F020029A619B6903F02003BE
:10126C000493049BD9E7074B0B489A6942F0400260
:10127C009A619B6903F040030593059BCDE7002021
:10128C00CBE700BF0010024000080140000C0140F9
:10129C00001001400014014000180140FEF7F8BF97
:1012AC00704708B5FEF7E8FFFFF783F8FFF7F8FF84
:1012BC0008BD70470A4B82B0DA6942F08052DA619D
:1012CC00DA6902F080520092009A9A6942F00102A7
:1012DC009A619B6903F001030193019B02B0704773
:1012EC00001002400C4BD3F8FC20D2015EBFD3F8A7
:1012FC00FC2042F08072C3F8FC200022074B5A609D
:10130C001A6842F001021A6000BF00BF00BF5868A3
:10131C00B0FA80F04009704700ED00E0001000E0EA
:10132C0008B5FFF7C7FFFFF7DDFFFEF793FFFFF7E9
:10133C00C0FFBDE8084000F001BE00007B4B82B04E
:10134C009A69013842F001029A619B6903F001032A
:10135C000193019B23282CD8DFE810F024002D00EA
:10136C0034003B00400047004C00530058005F0025
:10137C0068006D0074007D008200890092009B0063
:10138C00A000A700B000B500BC002B002B002B0068
:10139C00C100C8002B002B002B002B00CD00D2006D
:1013AC00D900E000624A536843F0E06343F0010364
:1013BC00536002B070475E4A536823F0010343F058
:1013CC00E063F5E75A4A536843F0E06343F00203E5
:1013DC00EEE7574A536823F00203F0E7544A536888
:1013EC0043F0E06343F00403E2E7514A536823F00F
:1013FC000403E4E74E4A536843F0E06343F0080308
:10140C00D6E74B4A536823F00803D8E7484A536899
:10141C0043F0E06343F03003CAE7454A536823F0D6
:10142C00300343F0E06343F01003C1E7404A5368D4
:10143C0023F03003C3E73E4A536843F0E06343F0C4
:10144C00C003B5E73A4A536823F0C00343F0E063A6
:10145C0043F04003ACE7364A536823F0C003AEE7D1
:10146C00334A536843F0E06343F44073A0E7304AD7
:10147C00536823F4407343F0E06343F4007397E73D
:10148C002B4A536823F4407343F0E06343F48073B6
:10149C008EE7274A536823F4407390E7244A536835
:1014AC0043F0E06343F4406382E7214A536823F43A
:1014BC00406343F0E06343F4006379E71C4A5368EC
:1014CC0023F440637BE71A4A536843F0E06343F428
:1014DC0080536DE7164A536823F480536FE7144A20
:1014EC00536843F0E06343F4004361E7104A5368E8
:1014FC0023F4004363E70E4A536823F0E06357E795
:10150C000B4A536823F0E06343F0807350E7084ABA
:10151C00536823F0E06343F0007349E7044A5368CF
:10152C0023F0E06343F0806342E700BF0010024009
:10153C000000014091FAA1F3B3FA83F370B50D0EDC
:10154C000F2691FAA1F1B1FA81F144599B0006FAE8
:10155C0003F3890024EA030402FA01F12143415107
:10156C0070BD91FAA1F3B3FA83F370B50D0E042696
:10157C0091FAA1F1B1FA81F144599B0006FA03F3F7
:10158C00890024EA030402FA01F12143415170BDA0
:10159C00431C04D00C3151F80C3C5A1C01D10020D6
:1015AC007047834201F10C01F5D101207047000016
:1015BC005E4B00F00F022DE9F34753F82240431C19
:1015CC0006460F4601F00708C1F3062AC0F30315BF
:1015DC0003D19E21564800F0F1F82846FFF70AFE89
:1015EC00B8F1010F05464FEA146944D194FAA4F3FB
:1015FC00B3FA83F3032150F809209B0001FA03F39B
:10160C0022EA030394FAA4F2B2FA82F29200914015
:10161C0001220B4340F809302146284608F1FF38D7
:10162C00FFF788FFB8F1010F06D817F0080218BFB2
:10163C0004222146FFF795FF94FAA4F2B2FA82F342
:10164C009A000F23934094FAA4F2B2FA82F255F85E
:10165C000910C7F301170B409200012F23FA02F374
:10166C0022D0022F4BD0082B31D104222146284600
:10167C00FFF760FF2BE0B8F1030F0DD8DFE808F09F
:10168C00021207105046FFF759FE0822C4E75046D5
:10169C00FFF754FE0922BFE7FB21254800F08EF826
:1016AC000022B9E74246B7E7042B04D108222146B1
:1016BC002846FFF73FFFEA68230A22EA142293FA2E
:1016CC00A3F4B4FA84F301249C401443EC60194B4A
:1016DC009A6942F001029A619B6903F0010301933C
:1016EC00019BA6F10D03012B14D8134A536823F068
:1016FC00E06343F08063536002B0BDE8F087042BD5
:10170C0004D1082221462846FFF714FFEB6823EA90
:10171C001424DBE70F2E02D0133E012EECD8064A20
:10172C00536823F0E06343F00073E4E7082C0008EF
:10173C00992B00080010024000000140431C06D108
:10174C007047834202D18968FFF732BF0C310B68B6
:10175C005A1CF6D140F22911014800F02FB800BFF5
:10176C00992B00080B685A1C01D10020704783424A
:10177C0001D1486870470C31F4E7431C01D0FFF7E6
:10178C00F1BF002070474B6813B94FF0FF30704722
:10179C00834201D1086870470C31F4E708B1FFF7B8
:1017AC00F2BF4FF0FF30704703468B42084604D01F
:1017BC001BB100290CBF184600207047FEE7000043
:1017CC000F4B1A6842F001021A6059680D4A0A4020
:1017DC005A601A6822F0847222F480321A601A68F5
:1017EC0022F480221A605A6822F4FE025A604FF4E6
:1017FC001F029A604FF00062034B9A60704700BF63
:10180C00001002400000FFF800ED00E004387047C3
:10181C0003681D4A84B093420BD11C4B9A6942F465
:10182C0000629A619B6903F400630093009B04B00F
:10183C007047B3F1804F10D0154A934218D0154A17
:10184C009342F4D1114BDA6942F00402DA61DB699C
:10185C0003F004030393039BE9E70C4BDA6942F0B2
:10186C000102DA61DB6903F001030193019BDEE7FE
:10187C00064BDA6942F00202DA61DB6903F002031B
:10188C000293029BD3E700BF002C014000100240E2
:10189C0000040040000800400368124A934206D13D
:1018AC0002F56442936923F4006393617047B3F1CA
:1018BC00804F06D00C4A934209D00C4A93420BD06D
:1018CC0070470B4AD36923F00103D3617047084A70
:1018DC00D36923F00203F8E7054AD36923F0040324
:1018EC00F3E700BF002C014000040040000800405A
:1018FC000010024008B5431C01460DD00D4B984218
:10190C0012D00CD8B0F1804F10D0A3F58063984260
:10191C000ED00948FFF752FF6FF00D0008BD074BC2
:10192C009842F6D11920F9E71E20F7E71C20F5E7BD
:10193C001D20F3E700080040602C0008002C01403B
:10194C0008B5431C01460DD00D4B984212D00CD853
:10195C00B0F1804F10D0A3F5806398420ED00948A7
:10196C00FFF72CFF6FF00D0008BD074B9842F6D126
:10197C001B20F9E71E20F7E71C20F5E71D20F3E7F5
:10198C0000080040602C0008002C014038B50446CB
:10199C00FFF73EFF0068FFF7ADFFD4E91212FEF728
:1019AC008FFC2068FFF7A6FFFEF7BCFC2068FFF752
:1019BC00C7FF05462068FFF79DFF85420DD02068C4
:1019CC00FFF7BEFFD4E91212FEF77AFC2068FFF78E
:1019DC00B7FFBDE83840FEF7A5BC38BD2DE9FF4781
:1019EC0004468946006D4A4990461F46DDF830A0F2
:1019FC00FFF7C3FE47490546606DFFF7BEFE06467E
:101A0C00002D00F08280636D013301D000287CD062
:101A1C0031462846FFF7C8FE2060002875D03E4BA3
:101A2C0098423CD103F55843DA6842F48042DA60BC
:101A3C00DA6822F48042DA609A6942F480429A6150
:101A4C009B6903F480430193019B2523A4F8583030
:101A5C002F49206DFFF772FE1EB12E49606DFFF706
:101A6C006DFE94F859202D4B251D43F82250236808
:101A7C000022C4E901390C2394F958000121C4E96E
:101A8C00038AC4E9063267612262FEF719FC284614
:101A9C00002E35D104B0BDE8F047FFF794B9204BC8
:101AAC00984215D103F5E6331A6942F400321A61F3
:101ABC001A6922F400321A61DA6942F40032DA61EE
:101ACC00DB6903F400330293029B4FF49373BDE77D
:101ADC00144B9842BCD1144D2B6943F480232B61D9
:101AEC002B6923F480232B61EB6943F48023EB6196
:101AFC00EB6903F480230393039B40F22723A5E7B0
:101B0C0004B0BDE8F047FFF730B904B0BDE8F0878A
:101B1C00B82E00087C2E000800380140A8000020D8
:101B2C0000440040004800400010024010B410B1C6
:101B3C0010BCFFF753BF10BC7047000008B5074B33
:101B4C0090F8592053F82200FFF71CFB00F02200FC
:101B5C00A0F122035842584108BD00BFA800002044
:101B6C0008B5074B90F8592053F82200FFF70AFBF1
:101B7C0000F02100A0F121035842584108BD00BFDC
:101B8C00A800002070B50E46054610B94FF0FF3086
:101B9C0070BDFFF7D3FF04460028F7D1294611F892
:101BAC005A3F0122337095F85900034B53F820002B
:101BBC00FFF707FB2046EBE7A800002038B50D46E1
:101BCC000446B8B1FFF7BAFFA0B994F95800A56460
:101BDC00FEF7B6FB94F85900074B04F15A0153F881
:101BEC0020000122FFF7EDFA94F95800BDE83840C7
:101BFC00FEF798BB38BD00BFA800002038B51546CD
:101C0C000446B8B1C16490F95800FEF799FBB4F8DA
:101C1C006A30216E9BB294F859001944064BAAB253
:101C2C0053F82000FFF701F994F95800BDE838404B
:101C3C00FEF778BB38BD00BFA800002048B1436D4B
:101C4C00013306D190F85920024B53F82200FFF7CC
:101C5C0069BA7047A800002048B1436D013306D122
:101C6C0090F85920024B53F82200FFF773BA7047D3
:101C7C00A8000020436C04381847836C04381847BC
:101C8C001FB503680446186810F0010013D0002239
:101C9C0000921A6800925B680093009B201FFFF76C
:101CAC004DFF40BB0122204604F1560104B0BDE8B3
:101CBC001040FFF786BA196811F0020106D00190A6
:101CCC001A6801925B680193019BE7E71A6812F0AE
:101CDC00040206D002911A6802925B680293029B7E
:101CEC00DCE719680907D9D503921A6803925B6877
:101CFC000393039BD2E704B010BD000008B5252068
:101D0C00FEF746FB024B1868BDE80840FFF702B926
:101D1C00A8000020262008B5FEF73AFB034B5868B4
:101D2C0018B1BDE80840FFF7F5B808BDA8000020C1
:101D3C00272008B5FEF72CFB034B986818B1BDE8BB
:101D4C000840FFF7E7B808BDA8000020F8B5144913
:101D5C000646FFF712FD00F0C7FB124D044655F87E
:101D6C00203073B90E493046FFF707FD0746B02007
:101D7C0000F046FD0646394600F044FC55F8243088
:101D8C001E6055F824301C6844B1204600F0C8FB96
:101D9C002046BDE8F840B02100F034BDF8BD00BFCE
:101DAC00782C000800030020836810B5044613B19A
:101DBC00032201469847204610BD0000002301284D
:101DCC0003F1010202D013464008F8E71421DBB2FC
:101DDC004B43044A181D1044816811B113441B690C
:101DEC0018477047B40000200120FEF74BBB0220BF
:101DFC00FEF748BB0420FEF745BB0820FEF742BBAC
:101E0C001020FEF73FBB38B505242025A8B2FEF7FD
:101E1C0039FB013C4FEA4505F8D138BD38B50624ED
:101E2C004FF48065A8B2FEF72DFB013C4FEA450547
:101E3C00F8D138BD0721204B06221975082183F8EB
:101E4C002810092183F83C100A2183F8501017211F
:101E5C001A7083F86410002283F8781083F88C10C1
:101E6C0083F8A01083F8B4102821DA601A625A6340
:101E7C009A64DA651A67C3F88420C3F89820C3F80B
:101E8C00AC20C3F8C02083F8C810C3F8D42083F862
:101E9C00DC10C3F8E82083F8F010C3F8FC2083F8BA
:101EAC000411C3F8102183F81811C3F8242183F806
:101EBC002C11C3F838217047B400002038B5054CFC
:101ECC00A4F5A075143C201DFFF76EFFAC42F9D1B0
:101EDC0038BD00BFF40100201148854672B6BFF32F
:101EEC004F8FBFF36F8F71B6002103E00D4B5B5822
:101EFC00435004310C480D4B42189A42F6D30C4A0D
:101F0C0002E0002342F8043B0A4B9A42F9D3FFF754
:101F1C0057FC62B661B600F089FC00F067FC7047B4
:101F2C000050002000320008000000208800002033
:101F3C008800002034030020FEE700BE00B595B0F9
:101F4C00142200210CA800F0B3FC142200210DEB8C
:101F5C00020000F0ADFC1022002101A800F0A8FC4A
:101F6C0001224FF480330E92CDE90A230222CDE9EF
:101F7C0011234FF4E0130AA81393FEF78FFA18B14C
:101F8C006F211348FFF71AFC0F2302214FF48062D4
:101F9C00CDE90531002305A8CDE907320993FEF7F9
:101FAC0053FC18B17B210A48FFF708FC12234FF4AD
:101FBC0000410193002301A8CDE90313FEF700FDB6
:101FCC0018B182210248FFF7F9FB15B05DF804FB4C
:101FDC00F42E0008C3B2222B2DE9F0410D462AD86D
:101FEC00294A00F4E06052F823400443621C49D0B3
:101FFC00264EC4F3031756F8273004F00F0823FAC3
:10200C0008F3DB0710D520462149FFF7C1FA10B1C0
:10201C002046FFF79BFE012303FA08F256F82730FF
:10202C0023EA020346F82730052D25D8DFE805F012
:10203C0014201A1C1E2200F0C002C02A22D1C92B67
:10204C0020D8144B00F03F0253F822200E4B00F422
:10205C00E06053F82240C8E700212046BDE8F0417B
:10206C00FFF7A6BA1021F8E72021F6E70321F4E7E1
:10207C000121F2E70921F0E74921BDE8F0410648CA
:10208C00FFF79CBBBDE8F081942F000810030020E3
:10209C00782C00086C2F000820300008C3B2222BCB
:1020AC0019D8184A00F4E06052F823301843C0F3F2
:1020BC000313042B98BF144A00F00F0098BF52F87A
:1020CC002320124B88BF002253F82030C3F30F2378
:1020DC00A9B11361704700F0C002C02A0CD1C92B02
:1020EC000AD80B4B00F03F0253F82220054B00F4AA
:1020FC00E06053F82230D9E74FF0FF30D7E7536157
:10210C00704700BF942F00080C000020082C00081A
:10211C006C2F0008FFF7C2B838B5044648B1FFF77A
:10212C00BDF8054600F072FBFFF7B8F8431BA3425D
:10213C00F8D338BDB0F8FC30B0F8F800181A00F03D
:10214C003F007047B0F8FC30B0F8F8209BB29342D7
:10215C001ABFD0F8F030985C4FF0FF30704790F811
:10216C00FA30B0F8FE00C0B2834227BFC3F13F0380
:10217C00C018C01A00F1FF30704707B503688DF81E
:10218C00071001225B680DF10701984703B05DF859
:10219C0004FB13B50DF107010446FFF7F3FC90B9EE
:1021AC00B4F86830B4F86420013303F03F03934271
:1021BC0009D0B4F868209DF80700E16D92B29BB28B
:1021CC008854A4F8683002B010BD0000B0F86A2042
:1021DC0038B5C36E134403F03F03A0F86A30B0F86F
:1021EC006A20B0F8663092B293421BD0B0F86A20E5
:1021FC00B0F86A4095B203F14002521B534203F00F
:10220C003F03A4B202F03F0258BF5A42C4F140034C
:10221C009A4228BF1A460449C266FFF7EFFC4FF0FA
:10222C00FF3038BD0020FCE7D921000803682DE9F8
:10223C00F0479B680446884616469847012323744A
:10224C00D4F8E830B4F8FA9001338246C9F1400969
:10225C0004F1940708D194F804312BB100233846CB
:10226C0084F80431FFF7EAFC236820469B68984702
:10227C000028F9D035464D4501D8554515D9D145DD
:10228C0028BFD14623684A4641465B68204698479A
:10229C00236820469B689847B4F8FA20A5EB0905FB
:1022AC00C8448246C2F14009E5E7B4F8FA20D4F8F4
:1022BC00F4005319402B104419D82A46414600F01B
:1022CC00E9FAA946B4F8FA3038461D4405F03F0542
:1022DC00A4F8FA50FFF744FC30B94A4638460B498B
:1022EC00C4F80091FFF78AFC3046BDE8F087C2F1D4
:1022FC0040094A46414600F0CDFAD4F8F400A5EB6B
:10230C00090208EB090100F0C5FADBE7D921000846
:10231C00037C33B1B0F8FA20B0F8FE309BB29A428D
:10232C00FAD17047914208BF4FF0FF3100F1110311
:10233C00C0F8F0300023C0E9392100F15102A0F8B7
:10234C00FC30C0E93D23A0F8FE30704770B54FF467
:10235C007A7316460022C0E90123154B044603602C
:10236C004FF0FF33C0F8E830124B0D46984212D1B3
:10237C00114B9A6AC0F8E820DB6AC0F8E430012EF1
:10238C0004BF4FF0FF33C4F8E8302046D4E93921BC
:10239C00FFF7C8FF70BD09492846FFF7FFF9084948
:1023AC00C4F8E8002846FFF7F9F9C4F8E400E6E7BA
:1023BC00FC300008F4010020942F00087C2E00084B
:1023CC00B82E0008D0F8E83010B5013304460ED111
:1023DC000368DB68984794F8043143B9012304F18E
:1023EC00940084F80431BDE81040FFF735BC10BDF3
:1023FC0002F00703023BDBB2042B2DE9F7430E4638
:10240C00C0F8081196BF1E490024CC5C02F03003C2
:10241C00302B054680F8052126D14FF4C0670134D6
:10242C0012F0080F14BF4FF400594FF00009082C9C
:10243C0021D0092C21D040F2A1111248FFF7BEF98E
:10244C0005F1940831463B4622464046CDF80090B3
:10245C00FFF76CFB2846FFF7B5FF40460A4903B06F
:10246C00BDE8F043FFF7AABB12F020071CBF4FF4E6
:10247C0080670134D4E70024E2E74FF48054DFE7AF
:10248C00EE300008863000089F21000810B5044685
:10249C00FFF798FFB4F8FC20B4F8F83092B29A42E7
:1024AC0017BFD4F8F0204FF0FF30D05C01331CBFC5
:1024BC0003F03F03A4F8F83010BD000000220249DD
:1024CC000248FFF743BF00BF00380140F401002071
:1024DC00836810B504462BB10322014698470023AC
:1024EC00C4E9023310BD00000C4A034690420ED0E2
:1024FC00B0F1804F0DD0A2F5943290420BD04FF634
:10250C00FF7002F58062934208BF032070470020E1
:10251C007047012070470220704700BF002C01401B
:10252C00014670B5044651F8100FFFF7DDFF054664
:10253C000846FFF7B1F90023084A04F1600642F897
:10254C002530E36004F1B005B54204D0103D2846B7
:10255C00FFF72AFCF8E7204670BD00BF00030020FF
:10256C00F8B504460846FFF7BFFF4FF6FF739842D5
:10257C000D46064603D14D212048FFF71FF923696C
:10258C001BB152211D48FFF719F91D4A04F10C0328
:10259C0042F8263000230E2204F110062561304645
:1025AC00C4E90C33C4E90E33C4E91033C4E916236F
:1025BC0084F82C30A36484F84C3084F84D30E460FB
:1025CC00FFF726F904F1600504F1B0072846103531
:1025DC00FFF77EFFAF42F9D100234FF6FF72C4E93B
:1025EC000033C4E90632C4E90833A3606361802375
:1025FC003046A362BDE8F840FEF738BB2031000836
:10260C0000030020002310B5044683668367C0F8DE
:10261C008830C0F89830C0F8A8300361FFF7A0FFED
:10262C00204610BD034B186810B10430FEF744BAB5
:10263C00704700BF00030020FFF7F4BF034B58683E
:10264C0010B10430FEF738BA704700BF0003002009
:10265C00034B986810B10430FEF72EBA704700BFD8
:10266C0000030020034BD86810B10430FEF724BAE5
:10267C00704700BF00030020826810B50AB900F053
:10268C0065FAC368BDE810401847000010B5044651
:10269C0020B940F25A410648FFF790F82046FFF760
:1026AC00B5F80068836E13B16030FFF7E5FF10BD1D
:1026BC0020310008FFF7EABF38B5054620B940F2D3
:1026CC006D411048FFF77AF82B7F013B072B11D88F
:1026DC00DFE803F015041011101010130224284623
:1026EC00FFF794F80068063400EB041083680BB114
:1026FC00FFF7C2FF38BD0324F1E70424EFE7012400
:10270C00EDE700BF20310008FFF7D6BFFFF7D4BFBD
:10271C0070B505460C46084649B1FDF7F1FC2B682F
:10272C00024621462846BDE870405B68184770BDDC
:10273C0008B50249FFF7ECFF08BD00BF852B000868
:10274C0038B50546FFF7E4FF04462846FFF7F0FFCF
:10275C00204438BDFFF7F4BF10B50446FFF7DAFC90
:10276C00E060236820465B699847002808DAFFF789
:10277C00D1FCE368C01AA3689842F2D34FF0FF3043
:10278C0010BD2DE9F04107460C460D468E18B5429A
:10279C00A5EB040807D03846FFF7DEFF031E02DB6B
:1027AC0005F8013BF3E74046BDE8F0812DE9F04127
:1027BC000746884616461D4673B100243846FFF777
:1027CC00CBFF031E05DB434503D033550134A54233
:1027DC00F4D12046BDE8F0811C46FAE708B5032089
:1027EC00FDF75CFDBDE8084000F00EB808B5AFF38E
:1027FC000080FDF7ADFCFDF7BBFC00F009F8FAE733
:10280C0000F038B800F03EB8FEF78ABD7047000003
:10281C0008B5044B2BB10448FFF78CFC08B1AFF39F
:10282C00008008BD00000000F401002070B50026F7
:10283C000C4D0D4C641BA410A64209D100F08AF972
:10284C0000260A4D0A4C641BA410A64205D170BD8B
:10285C0055F8043B98470136EEE755F8043B98478A
:10286C000136F2E7E8310008E8310008E8310008E9
:10287C00F8310008024B0146186800F089B800BF17
:10288C0024000020024B0146186800F019B800BF64
:10289C00240000200A44914200F1FF3300D170471C
:1028AC0010B511F8014B914203F8014FF9D110BD4D
:1028BC0003460244934200D1704703F8011BF9E729
:1028CC0038B50546002940D051F8043C0C1F002BAC
:1028DC00B8BFE41800F0E2F81C4A136833B963601F
:1028EC0014602846BDE8384000F0DEB8A34208D991
:1028FC00206821188B4201BF19685B680918216098
:10290C00EDE71A465B680BB1A342FAD9116850186F
:10291C00A0420BD120680144501883421160E0D1D1
:10292C0018685B68014411605360DAE702D90C2324
:10293C002B60D6E7206821188B4201BF19685B68B1
:10294C000918216063605460CBE738BD2403002074
:10295C0070B50E4E0C463168054611B900F08CF876
:10296C0030602146284600F087F8431C0AD0C41C6E
:10297C0024F00304A04207D0211A284600F07CF86A
:10298C00013001D14FF0FF34204670BD28030020E8
:10299C002DE9F041CD1C25F0030508350C2D38BF71
:1029AC000C25002D074601DBA94205D90C23002676
:1029BC003B603046BDE8F0812E4E00F06FF8336876
:1029CC001C4634BB29463846FFF7C2FF431C04465D
:1029DC004DD134682646002E40D123683146384606
:1029EC0004EB030800F048F880453AD12168033520
:1029FC006D1A25F0030508350C2D38BF0C2538460B
:102A0C002946FFF7A5FF01302BD023682B44236008
:102A1C000EE02268521B1ED40B2A16D96119A34250
:102A2C00256018BF5960636808BF316062514B6004
:102A3C00384604F10B0600F037F826F00706231D84
:102A4C00F21AB6D09B1BA350B3E76268A3420CBF2B
:102A5C0032605A60ECE723466468B2E73446766825
:102A6C00B9E70C2338463B6000F01EF8A1E725605F
:102A7C00DEE700BF2403002038B50023054D0446D3
:102A8C0008462B60FDF796FB431C02D12B6803B163
:102A9C00236038BD2C030020704770470148FFF7B6
:102AAC00FBBF00BF300300200148FFF7F6BF00BF9B
:102ABC0030030020062008B500F02CF80120FDF7AB
:102ACC0097FB1F2938B504460D4604D9162303601D
:102ADC004FF0FF3038BD426C12B152F821304BB977
:102AEC00204600F031F82A4601462046BDE8384021
:102AFC0000F018B8012B0AD0591C03D1162303601F
:102B0C000120E7E70024284642F82540984700209A
:102B1C00E0E70000024B01461868FFF7D2BF00BF88
:102B2C002400002038B50023064D04460846114603
:102B3C002B60FDF75FFB431C02D12B6803B12360B4
:102B4C0038BD00BF2C030020FDF75CBB08B5FFF7B8
:102B5C00B1FF0000F8B500BFF8BC08BC9E4670473A
:0C2B6C00F8B500BFF8BC08BC9E467047DE
:102B780048656C6C6F00576F726C6473200D0A00A7
:102B880002030405060708090A0B0C0D0E0F1010A6
:102B980000433A5C4A2D54616769745C61726475DC
:102BA800696E6F2D312E382E31385C706F727461FA
:102BB800626C655C7061636B616765735C456963D2
:102BC8006F6E5C68617264776172655C73746D3393
:102BD800325C322E322E305C6C69627261726965C9
:102BE800735C537263577261707065725C73726361
:102BF8005C73746D33325C70696E6D61702E630046
:102C0800010100000202000004040000080800009E
:102C180010100000202000004040000080800000CC
:102C2800010001040200020404000404080008046E
:102C3800100010042000200440004004800080049C
:102C48000000000000000000010203040607080954
:102C5800000000000102030454494D3A20556E6BF0
:102C68006E6F776E2074696D6572204952516E00DF
:102C78000000000000000040128000000001000079
:102C88000000004012900000010000000000004019
:102C980012120100010100000000004012100100A2
:102CA8000200000000000040129201000201000032
:102CB80000000040129101000300000000000040E5
:102CC800121202000301000000000040121102006D
:102CD80006000000000400401295000007000000F4
:102CE800002C0140128D1000070100000004004074
:102CF8001215010008000000002C0140128E00008F
:102D080008010000002C0140128D0000090000009D
:102D1800002C0140120E010009010000002C0140A6
:102D2800120D01000A000000002C0140128E010063
:102D38000A010000002C0140128D01000B00000068
:102D4800002C0140120E02000B010000002C014073
:102D5800120D02000F000000000000401291000058
:102D68000F01000000000040128F0000100000005A
:102D7800002C0140120D1100100100000004004059
:102D88001295010010020000000400401294010096
:102D980011000000002C0140128D110011010000EB
:102DA8000004004012150200110200000004004057
:102DB800121402001300000000000040121101006C
:102DC8001301000000000040120F01001400000071
:102DD80000040040129400001500000000040040A8
:102DE80012140100160000000008004012970000AD
:102DF800170000000008004012170100180000002A
:102E08000008004012970100190000000008004067
:102E1800121702001A000000000000401290010082
:102E28001A01000000000040128F01001B00000082
:102E380000000040121002001B01000000000040CA
:102E4800120F02001D000000002C0140128E10001D
:102E58001E000000002C0140120E11001F0000008F
:102E6800002C0140128E1100FFFFFFFF0000000040
:102E780000000000030000000044004010080000AB
:102E88000A0000000038014010060000170000008A
:102E980000380140100500001B00000000480040F9
:102EA80010000000FFFFFFFF00000000000000000E
:102EB8000200000000440040120800000900000061
:102EC80000380140120600001600000000380140DA
:102ED800120500001A00000000480040120000001F
:102EE800FFFFFFFF0000000000000000433A5C4ABB
:102EF8002D54616769745C61726475696E6F2D31F8
:102F08002E382E31385C706F727461626C655C703B
:102F180061636B616765735C4569636F6E5C68616B
:102F28007264776172655C73746D33325C322E3211
:102F38002E305C76617269616E74735C53544D33E4
:102F480032463178785C46313033434254365C76C9
:102F5800617269616E745F46313033434254362E74
:102F680063707000140000001500000016000000D7
:102F78001700000018000000190000001A000000E7
:102F88001B0000001C0000001D00000019000000CC
:102F980018000000170000001600000015000000CF
:102FA80014000000130000000F0000000C000000D7
:102FB8000B0000000A0000000900000008000000E3
:102FC8001F0000001E0000001D0000001C00000083
:102FD8002D0000002E0000002F000000000000005F
:102FE80001000000020000000300000004000000CF
:102FF80005000000060000000700000010000000A7
:10300800110000001A0000001B0000001200000060
:103018000D0000000E000000433A5C4A2D54616721
:1030280069745C61726475696E6F2D312E382E314A
:10303800385C706F727461626C655C7061636B613F
:103048006765735C4569636F6E5C6861726477611C
:1030580072655C73746D33325C322E322E305C6371
:103068006F7265735C61726475696E6F5C776972A3
:10307800696E675F6469676974616C2E6300433ABF
:103088005C4A2D54616769745C61726475696E6F1E
:103098002D312E382E31385C706F727461626C6518
:1030A8005C7061636B616765735C4569636F6E5CD7
:1030B80068617264776172655C73746D33325C3217
:1030C8002E322E305C636F7265735C617264756951
:1030D8006E6F5C486172647761726553657269618D
:1030E8006C2E6370700006000700080000000000E6
:1030F8000000000087210008392200086B21000821
:103108001D230008412100089924000851210008C6
:103118008F270008B9270008433A5C4A2D54616795
:1031280069745C61726475696E6F2D312E382E3149
:10313800385C706F727461626C655C7061636B613E
:103148006765735C4569636F6E5C6861726477611B
:1031580072655C73746D33325C322E322E305C6370
:103168006F7265735C61726475696E6F5C486172D9
:10317800647761726554696D65722E6370700000C2
:103188000000000000000000000000000000000037
:103198000000000000000000000000000000000027
:1031A8000000000000000000000000000000000017
:1031B8000000000000000000000000000000000007
:1031C80000000000000000000000000000000000F7
:1031D80000000000000000000000000000000000E7
:1031E800E927000841010008411E0008C924000819
:0831F8001D010008C91E0008BA
:103200003803002001000000100000000008014009
:10321000000C014000100140001401400018014062
:103220000024F4002800002000000000A83100085D
:10323000C8310008883100080000000000000000CC
:10324000000000000000000000000000000000007E
:10325000000000000000000000000000000000006E
:10326000000000000000000000000000000000005E
:10327000000000000000000000000000000000004E
:08328000000000000000000046
:0400000508001EE5EC
:00000001FF
