:1000000000000120890100003D120000F5110000F0
:10001000F5110000F5110000F5110000F5110000C8
:10002000F5110000F5110000F51100003D1200006F
:100030003D120000F51100003D120000E511000026
:100040003D1200003D1200003D1200003D12000074
:100050003D1200003D1200003D1200003D12000064
:100060003D1200003D1200003D1200003D12000054
:100070003D1200003D1200003D1200003D12000044
:100080003D1200003D1200003D1200003D12000034
:100090003D120000E908FF1F3D1200003D12000064
:1000A0003D1200003D1200003D1200003D12000014
:1000B0003D1200003D1200003D120000891B0000AF
:1000C0003D120000AD3200003D1200001938000062
:1000D0003D1200003D1200003D1200003D120000E4
:1000E0003D1200003D1200003D1200003D120000D4
:1000F0003D1200003D1200003D1200003D120000C4
:100100003D1200003D1200003D1200003D120000B3
:100110003D120000051E00003D1200003D120000CF
:100120003D1200003D1200003D1200003D12000093
:100130003D1200003D1200003D1200003D12000083
:100140003D1200003D1200003D1200003D12000073
:100150003D1200003D1200003D1200003D12000063
:100160003D1200003D1200003D1200003D12000053
:100170003D1200003D1200003D1200003D12000043
:100180003D1200003D120000724B4CF2205210B59F
:100190001A804DF628121A8000BF00BF00F092FCB2
:1001A0006D4B4FF010621A606C4A9A6002F1402267
:1001B000BA32136843F02C5343F0010313605368C1
:1001C00043F005035360664A136823F0010313608C
:1001D000644B4FF470021A60634B4FF4A2721A60C2
:1001E000624A136843F007031360614B40F2031245
:1001F0001A604FF48172C3F8FC2F5E4A136813F43F
:10020000807304D15C490B604FF4A85313605B4BBF
:100210001A78140703D51A7842F008021A70584B5E
:1002200058492A221A70584A584B8B4204D252F825
:10023000040F43F8040BF8E7554B564900228B4254
:1002400002D243F8042BFAE7534B1B68580704D437
:10025000524A137843F001031370514B1B689907FE
:1002600004D54E4A137863F07F0313704D494E4A0C
:10027000002352F8230041F823000133622BF8D108
:100280004A4B4B4A802103F8011B9342FBD1494B57
:10029000444A1A60484B8A221A70A3F580532422DC
:1002A0005A70A0221A709A799207FCD59A79D406CE
:1002B000FCD4424A937903F00C03082B3F4BF9D14D
:1002C00003221A7146225A719A799006FCD53B4A4C
:1002D00091793A4B4906FBD5394A4FF0827111604A
:1002E0000921516020221A709A7902F00C020C2A1E
:1002F000FAD1344B344A1A60344B354A1A60002222
:100300005A60072243F8042C324AC3F80C2D62B617
:1003100001F0C6F8184B1B68DA0705D52E4801F026
:1003200031F82E4B2E4A1A602E4B1B785B0609D5EE
:100330002A4C2B4B22689A4204D1274801F022F81C
:100340000023236003F0CEFC00F07CFF02F002FCEF
:10035000FEE700BF0E20054030800440823F0400CD
:1003600000D0004088ED00E01CB0044084F00F4055
:1003700008C0044010D0034014D0034002D007400E
:1003800000E007400C14FF1F1C4B0000E808FF1F93
:100390001014FF1F0819FF1FD0F00F40D115FF1FC9
:1003A00010F10F400004FF1F0000000000E400E017
:1003B00052E400E008ED00E0005006400040064036
:1003C0004480044004800440C010050014E000E0B4
:1003D000BFD4010000002020A3A552621CE003400E
:1003E000A5C3945A00F00740FFFFFFFFFFFFFFFF88
:1003F000FFFFFFFFFFFFFFFFFFFFFFFFFFFFFFFF0D
:10040000FFFFFFFFFFFFFFFFFFFFFFFFFEFFFFFFFD
:1004100010B5054C237833B9044B13B10448AFF33E
:1004200000800123237010BD1014FF1F0000000086
:10043000204B0000084B10B51BB108490848AFF32A
:1004400000800848036803B910BD074B002BFBD0A0
:10045000BDE81040184700BF000000001414FF1F43
:10046000204B00000C14FF1F0000000090F9241026
:10047000104B03604B1C06D0F0B40F4E56F82130E1
:10048000984201D0F0BC70470C4F57F8213033B17F
:100490008D0000245A1953685460002BFAD1084C7F
:1004A00023780022013B237047F8212046F82120C1
:1004B000E8E700BFBC470000A015FF1F8015FF1F25
:1004C000C115FF1F70B590F924506B1C19D00D4A4F
:1004D0000D4B52F82540EDB21D7094B10E46AD00A3
:1004E00002E02C44646864B194F82530002BF8D005
:1004F000236820462C4431461B6898476468002CCA
:10050000F2D170BD8015FF1FC015FF1F704700BFDF
:1005100070B5094D094B2A7853F822405CB1064664
:10052000236820469B68314698472B7804EB830468
:100530006468002CF4D170BDC015FF1F8015FF1F2B
:1005400090F92410104B03604B1C06D0F0B40F4EF2
:1005500056F82130984201D0F0BC70470C4F57F844
:10056000213033B18D0000245A1953685460002B98
:10057000FAD1084C23780022013B237047F8212050
:1005800046F82120E8E700BFBC470000A015FF1F88
:100590008015FF1FC115FF1F002900F084802DE981
:1005A000F04F0C469100661885B076680193002ED6
:1005B00061D077187F68002F5AD007EB010EDEF864
:1005C0000480B8F1000F50D008EB010EDEF8049063
:1005D000B9F1000F40D009EB010EDEF804A0BAF12A
:1005E000000F35D00AEB010EDEF804B0BBF1000FAE
:1005F0002AD00BEB010EDEF804500395DDB105EBBC
:10060000010EDEF80450029565B129444968FFF7F0
:10061000C3FF029D95F8253023B12B6801995B68D3
:1006200028469847039B93F8253023B103980199F6
:1006300003685B6898479BF825302BB1DBF80030E6
:1006400001995B68584698479AF82530002B3CD1B1
:1006500099F82530002B31D198F825302BB1D8F8F6
:10066000003001995B684046984797F82530DBB920
:1006700096F825306BB994F8253013B905B0BDE86C
:10068000F08F236801995B68204605B0BDE8F04F04
:100690001847336801995B683046984794F82530CD
:1006A000002BEBD0EDE770473B6801995B6838465B
:1006B000984796F82530002BDDD0EAE7D9F80030CE
:1006C00001995B6848469847C6E7DAF80030019917
:1006D0005B6850469847BBE790F92420531C2CD008
:1006E000204B2DE9F04153F82260D2B21EB39300A3
:1006F0000F46F1184C68DCB1E1184D6885B1E91876
:10070000D1F80480B8F1000F07D0434459683B4644
:10071000FFF742FF98F82530B3B995F825306BB94B
:1007200094F8253023B1236820465B683946984702
:1007300096F825307BB9BDE8F08170472B682846D4
:100740005B6839469847EBE7D8F8003040465B686D
:1007500039469847E1E73368394630465B68BDE87B
:10076000F04118478015FF1F10B540F6230000F038
:1007700061FF4FF47A7000F045FE1E21064801F03B
:10078000FFF8064802F0D6F9032302220F2104489D
:10079000BDE8104000F004BDC84700006C17FF1F03
:1007A0003814FF1FF8B5314D314C00F009FE2B68AD
:1007B0009FED307A2060C31A07EE903AF8EE677A20
:1007C000F4EEC77AF1EE10FA12DB2B4E3378002BE1
:1007D0003DD00C21294801F0D3F8294802F0AAF9AC
:1007E0000021212000F0E0FD002333702068286004
:1007F000244D9FED207A2B68C01A07EE900AF8EE80
:10080000677AF4EEC77AF1EE10FA11DB1E4E3778F4
:100810007FB10D211D4801F0B3F8194802F08AF9A3
:100820000121042000F0C0FD0023337023682B60F9
:10083000F8BD0C21164801F0A3F8114802F07AF92E
:100840003946042000F0B0FD01233370EEE70D219E
:10085000104801F095F80A4802F06CF901212120B6
:1008600000F0A2FD01233370C0E700BF4815FF1F51
:100870002C14FF1F001B374A7C15FF1FF847000090
:100880006C17FF1F7415FF1F3014FF1F184800005E
:1008900008480000E84700002DE9F04100F090FD15
:1008A000324C334A3349344F344D354E0346354884
:1008B000136003600B6020220021201D3B6003F0C9
:1008C000F9FC314B314A32492360002701234FF0B4
:1008D000FF08204684F8263084F8248084F82570A8
:1008E00003F0F4F928462B4B40F8043B202239460C
:1008F00003F0E0FC3078284B85F8248053F8202062
:1009000085F8257085F8267022B3A2421FD01346C1
:10091000810001E0A3421AD00B445B68002BF9D19F
:1009200000E01A460A445368002BFAD15460337829
:1009300085F8243005EB83050022013333706A60AB
:10094000124A16490D48BDE8F04103F0BFB9013025
:100950003070F5E7124A43F8204042F82050002852
:10096000E5D1104800F0B4F9E1E700BF3814FF1FEB
:100970004815FF1F7415FF1F7815FF1F4C15FF1F2B
:10098000C115FF1F2C14FF1F30480000100BFF1F64
:1009900041050000BC4700008015FF1F6D040000EA
:1009A000A015FF1F11050000054B002220211A7021
:1009B0001A461970937903F00C030C2BFAD1704787
:1009C000004006403E4B9A7912F00C0F02D19A7902
:1009D000D20634D43A4A9379C3F38103032B33D03C
:1009E000374A9379C3F38103022B35D0344A937984
:1009F000C3F38103022B3AD0314A9379C3F38103C5
:100A0000022B3FD02E4B9879C0F38100012841D0B2
:100A10002B4A9379C3F38103012B45D0284B987956
:100A2000C0F3810008B1002070479A79D206FBD448
:100A30009B7913F0200F14BF0020042070479B798E
:100A40009806C7D4032070479379D906C8D4937900
:100A50009B06C5D5082070479379D806C6D49379EC
:100A60009906C3D553789B07C0D407207047937964
:100A7000D806C1D493799906BED453789B07BBD4CA
:100A8000052070479379D806BCD453789907B9D517
:100A9000062070479A79D206BAD59A799106B7D4CA
:100AA0005B789A07C0D4B3E79379DB06B6D5937920
:100AB0009806B3D453789907B0D40220704700BF8A
:100AC00000400640024A034B102111801B787047FA
:100AD0000020054002D00740C368F0B4DE0702469C
:100AE00015D51A20304F314E314D3249324C00234A
:100AF0003B7033702B700B70137053709370D37006
:100B00001179C9B221701371F0BCD36070471D0711
:100B100001D52120E6E7DC0601D50420E2E79906AD
:100B200001D51020DEE75F0601D51620DAE71E06A4
:100B300001D50920D6E7190ACD0701D50A20D1E74A
:100B40008C0701D50D20CDE74F0701D50B20C9E754
:100B50000E0701D51E20C5E7CD0601D50220C1E74D
:100B60008C0601D50720BDE74F0601D50620B9E761
:100B70000E0601D51520B5E71B0CDD0701D5242095
:100B8000B0E79C0701D52220ACE7D90601D5252086
:100B9000A8E713F00C0FF6D113F0200F0CBF4FF0A5
:100BA000FF3023209EE700BF00C0074001C0074080
:100BB00002C0074003C0074004C0074003292BD0F0
:100BC00002290CBF02230323022829D0042832D093
:100BD000062835D0072828D0092837D00A283BD046
:100BE0000B283ED00D2842D010284CD0152850D0CC
:100BF000162859D01A2852D01E285BD021283CD064
:100C00003B284CD03C285BD03E2804D12F490A78A1
:100C100042EA03130B70704702284FF00103D5D14D
:100C20002A49CA781343CB7070472849CA7842EAE8
:100C30008303CB70704725494A7813434B70704744
:100C40002249CA7842EA0313CB7070471F494A7899
:100C500042EA83134B7070471C498A7813438B70A8
:100C600070471A498A7842EA03138B707047174914
:100C70008A7842EA83038B70704714490A7842EA03
:100C800083130B70704711494A7842EA83034B7013
:100C900070470E49CA7842EA8313CB7070470B49FC
:100CA0000A7813430B70704708494A7842EA0313E5
:100CB0004B70704705498A7842EA83138B707047FE
:100CC00002490A7842EA83030B707047DC18FF1F61
:100CD00010B50B4C0B4A23680B4943F0806323602B
:100CE000136823F0804313600446152000F042FB94
:100CF000064A074B4FF4001111601C6010BD00BF85
:100D00000470044000700440E908FF1F00E100E0A7
:100D1000EC18FF1F10B4042914D8DFE801F01C1FE1
:100D2000160319004FF4102472B60E4B03EBC000EB
:100D30004268136823F4702343F0807121431360E9
:100D4000116062B65DF8044B70474FF42024EBE766
:100D50004FF43024E8E74FF40024E5E74FF4402453
:100D6000E2E700BF404800002DE9F8431D4B1B7827
:100D7000012B01D9BDE8F8831B4BDFF87080D3E964
:100D800000674FF0010921E0B7FA87F3C3F13F0391
:100D9000212BEFD872B608EBC30251680A6822F023
:100DA000877222F4803242F080720A6062B6A3F148
:100DB0002001C3F1200209FA01F529FA02F21543D4
:100DC00009FA03F426EA040627EA050730463946FD
:100DD00002F056FF0028CDD0002FD5D1B6FA86F309
:100DE0002033D3E7D015FF1FC815FF1F4048000070
:100DF0002DE9F84F8F4B197000294AD08A468E4B47
:100E0000816AC26ABAF1010F804683E8060079D090
:100E10000E461746DFF84C922CE0B7FA87F3C3F181
:100E20003F0BBBF1220F34D809EBCB0108EB0B02CF
:100E3000486892F8301003680BF1200208EB820238
:100E40005FEA211E536026D0BEF1020F3AD0BEF1F8
:100E5000030F45D00122ABF12000CBF1200102FAB3
:100E600000F522FA01F10D4302FA0BF426EA04061A
:100E700027EA05073046394602F002FF48B1002F45
:100E8000CBD1B6FA86F32033C3F13F0BBBF1220F6F
:100E9000CAD9BDE8F88F59F83B204FF4807382F827
:100EA00080E20360BAF1010F01F00F015FFA8BF0ED
:100EB00005D1BBF1220FCDD0FFF72CFFCAE7FFF71A
:100EC0007DFEC7E759F83B204FF0000382F88032DF
:100ED0004FF480730360026842F003020260E1E7AE
:100EE00059F83B204FF0000382F880324FF48073B2
:100EF0000360026842F002020260026822F001020E
:100F00000260CFE74D494E4A08684E4B00F0006042
:100F1000C8F86800086800F08050C8F86C000868DD
:100F200000F00050C8F87000086800F08040C8F871
:100F30007400096801F00041C8F878104FF0006EA5
:100F40004FF000414FF080574FF000564FF0804077
:100F5000C2F800E01760166010601160C3F800E08E
:100F60001F601E601860196000F076F9364F374E2A
:100F70003A7888F87C20A0F11103EE2B327888F8BB
:100F80007D2098BFA0F1100331483249027888F8DB
:100F90007E2091F800E0304A88F87FE092F800E087
:100FA00088F880E094BFDBB280233B70337003701D
:100FB0000B70137072B6294B2949D3F82C21C8F84D
:100FC0005420D3F83021C8F85820D3F83421C8F879
:100FD0005C20D3F83821C8F86020D3F83C31C8F839
:100FE00064303B2000F0C6F91D493C2000F0C2F9F6
:100FF0001B493D2000F0BEF919493E2000F0BAF926
:1010000017493F2000F0B6F962B60C4B4FF0006C68
:101010004FF0805E4FF000504FF080414FF00042A3
:10102000D8E90A67C3F800C0C3F800E01860196087
:101030001A60EFE6D015FF1FC815FF1F04E100E09E
:1010400084E100E084E200E03BE400E03CE400E016
:101050003DE400E03EE400E03FE400E00004FF1F68
:10106000E908FF1F40480000002942D02DE9F04F59
:1010700083B081460191D0E90A67DFF820814FF003
:10108000000A4FF0010B23E0B7FA87F3C3F13F03E7
:10109000A3F1200EC3F1200103F120000BFA0EF59D
:1010A0002BFA01F1212B08EBC30C09EB800045EA78
:1010B00001050BFA03F416D858F8333083F880A2F0
:1010C000DCF804304168196026EA040627EA0507BF
:1010D0003046394602F0D4FD28B1002FD4D1B6FAFB
:1010E00086F32033D2E7019B012B03D003B0BDE888
:1010F000F08F7047274B99F87C201A7099F87D2063
:101100005A7099F87E209A7099F87F20DA7099F8D1
:1011100080201A7172B63B20D9F8541000F02AF9D9
:10112000D9F858103C2000F025F9D9F85C103D2082
:1011300000F020F9D9F860103E2000F01BF9D9F832
:1011400064103F2000F016F962B6D9F868301BB978
:10115000114B4FF000621A60D9F86C301BB90E4B7E
:101160004FF080521A60D9F870301BB90A4B4FF01B
:1011700000521A60D9F874301BB9074B4FF0804207
:101180001A60D9F87830002BB0D1034B4FF00042F1
:101190001A60ABE73BE400E084E100E04048000077
:1011A00021291CDCF0B54FF0010EA1F120060EFA4A
:1011B00006F5C1F120062EFA06F63543D0E90A6796
:1011C00043EA02130EFA01F4421834433D4380F817
:1011D00025E0C0E90A4582F830300846F0BD4FF0FE
:1011E000FF307047024A136801331360704700BF35
:1011F000D415FF1F08B5104C08E0236859050DD41D
:1012000023681A050FD42368DB0411D4236858031C
:10121000F3D500F0F7FD23685905F1D500F0B4FCD3
:1012200023681A05EFD502F041F82368DB04EDD5F9
:1012300002F0F2FAEAE700BF3480044008B5FFF795
:10124000D9FF00BF704700BF024A136818441060FE
:1012500018467047140BFF1FEFF3138070B9EFF3BC
:1012600010836BB9EFF305825AB94FF48070EFF336
:1012700011832BB1984228BF184670474FF0FF30BA
:1012800070470F2A01D81846F1E7014BD05CEEE712
:10129000F0E300E010B4114B53F8302092F8804294
:1012A00034B1012379B182F880305DF8044B704786
:1012B00003EBC0035B681A6851B922F002021A609E
:1012C0005DF8044B704782F800315DF8044B7047BD
:1012D00042F003021A605DF8044B7047404800007A
:1012E000234A02EBC00301295B6813D004291DD0F7
:1012F00052F83020002082F8800219B94FF4807231
:101300001A60704702291ED0032924D040F203122C
:101310001A60704752F830004FF4A27280F88012C1
:101320001A601A6822F020021A60704752F83010D2
:101330004FF4A272012081F880021A601A6842F00C
:1013400020021A6070474FF480721A601A6842F0E7
:1013500003021A6070474FF480721A601A6842F0F4
:1013600002021A601A6822F001021A60704700BF78
:10137000404800001030024B43F82010704700BF77
:101380000004FF1F30B4054B054D064C0022102110
:101390001A602A602060196030BC704714D0034086
:1013A00004D0034000D00340212801D8FFF772BFCA
:1013B000704700BF212801D8FFF792BF704700BFD8
:1013C00072B60C490C4B0D4A1B680868126862B66D
:1013D000520102D5322B88BF01300949C3F5EA33E7
:1013E0004FF47A72BF33A1FB031302FB00F000EB52
:1013F00093107047D415FF1F18E000E004ED00E0E3
:10140000898888882DE9F843054672B6204F214B1C
:10141000214A1B683C68126862B6520102D5322B21
:1014200088BF013495B3C3F5EA331C4EDFF86490EE
:10143000DFF86480BF334FF47A72A6FB031302FB1C
:1014400004F404EB931472B6D9F800103A68D8F893
:1014500000E062B6C1F5EA33BF33A6FB03031EF01A
:10146000806FC4EB93134FF47A7002D0322988BF97
:10147000013200FB0233B3F57A7F04D3013D05D07E
:1014800004F57A74DFE701F06DFBDCE7BDE8F88373
:10149000D415FF1F18E000E004ED00E0898888887B
:1014A000F8B52F4B2F49304E304D314C314A324F29
:1014B000DFF8D4C0DFF8D4E04FF0006018604FF0E0
:1014C000805018604FF0005018604FF08040186056
:1014D0004FF0004018600020086028234EF6FF718E
:1014E000CCF80010CEF80030336013602B6023601E
:1014F0003B60B3629362092245F8242CC4F8D80FEC
:1015000005F57F65C7F8D41F07F5FF2707F5FA67CC
:10151000C6F8F83F2B6006F5FF26C4F8D42F05F572
:10152000FD2504F5FF24386006F2F4761348316097
:1015300005F5FF6504F5FD642B602360026001F092
:101540003FFB0F4A0F4B12781B781A4203D04FF41F
:10155000C870FFF757FFBDE8F84001F07DB800BF45
:1015600004E100E004800340148003402480034031
:101570002C8003401C8003403480034000800B40DB
:10158000D115FF1F3C480000088003400C80034039
:101590002DE9F84F214B1B6807460BB101221A7049
:1015A000DFF888901E4D99F80040DFF884801D4ECA
:1015B00001343F2C8ABF4FF0000A5FFA84FA544688
:1015C000AB462B78A34216D1FFF746FE40281FDC1E
:1015D00033791B06F5D59BF8003001333F2B86BFCE
:1015E00000221346DAB218F80330DBB2F3712A7026
:1015F0002B78A342E8D00C490A4BFFB208F80470DC
:101600000120BC22087089F800A0DA70BDE8F88FCC
:10161000FF28D6DD01F0A6FAD3E700BF6816FF1F4A
:101620006516FF1F00A006406416FF1F6C16FF1F03
:10163000E015FF1F274A28491368F0B543F480637B
:1016400013600A78254F264E264D274C2749002344
:101650003B7033702B7023700B70002A35D0152A25
:1016600026D0234B1B78012B2AD0052B03D1214BED
:101670004FF451721A60204B204C2149C0F344367C
:10168000C0F347151E7000F01F005D7004224FF07C
:10169000020E88273C26402598729A704FF0004031
:1016A00083F813E05A751F74DE7025700860F0BD72
:1016B000144B40F213321A600D4B1B78012BD4D11E
:1016C000114B4FF451721A60D5E7104B40F21332B0
:1016D0001A60C6E7348004402016FF1FDC15FF1F88
:1016E000DD15FF1F6C16FF1F6516FF1F6416FF1F19
:1016F000180BFF1F1CC0044000A006401FE400E0C0
:1017000000E100E018C0044044A0044040A00440B0
:10171000144B14499B7803F0EC0200F003031343CD
:10172000420700F00F0248BF43F01003042A8B70F9
:1017300013D00C4B0B4A5B79C10603F0EF0348BF93
:1017400043F0100353719379820603F0EF03054AC7
:1017500048BF43F01003937170478B7943F0400307
:101760008B71E6E700A00640F8B5124B1B685B05DD
:101770001DD5114C237823B101F0F4F92378002B07
:10178000FAD10E4B0E4F0F4E0F4D104C1048114911
:101790004FF000421A600023FB7040F203123260E7
:1017A0002A60226803700B7012B101231370F8BD18
:1017B000F8BD00BF348004406416FF1F80E100E0E4
:1017C00000A0064040A0044044A00440D815FF1FDC
:1017D000DC15FF1FDD15FF1F0A4A38B505461378D3
:1017E00003F0FF04002BFAD101212846FFF7E2FDA8
:1017F00021462846FFF7D8FD034A044B52F835200E
:101800001A6038BD6416FF1F404800006816FF1FAD
:1018100009B140F08000174A1378984217D010B4ED
:10182000154C246864050FD503F07F03012B1DD0F0
:10183000052B12D0002900F07F0114BF6023442340
:1018400001290ED0052903D010705DF8044B7047B4
:101850000A4943F440730B60F6E7084B00241C6010
:10186000E8E7074943F440730B60EDE7044B0024BD
:101870001C60DFE7180BFF1F348004401CC00440CD
:1018800044A00440104B1A7882420AD00F490968DC
:10189000490505D5AAB1152A09D068B1152801D086
:1018A000187070470A4A40F213311160F8E7084A8D
:1018B000002111600028F1D1064A40F21331116075
:1018C000EEE704490A60E8E72016FF1F3480044071
:1018D00018C0044040A004400D4B1B6813F4806303
:1018E00005D0212805D90B4B0020186070471846F9
:1018F0007047094B10B5074C53F830302360012175
:10190000FFF758FD236800221A70012010BD00BFA8
:1019100034800440D815FF1F404800000F4B1B685F
:1019200013F4806308D0122808D0142811D00C4A70
:10193000537B03F0FE03537300207047094B40F2C2
:1019400002321A60064A537B43F0010353730120AD
:101950007047054B40F202321A60F3E734800440CE
:1019600000A006400CA0044014C00440034B1B68B8
:101970005B0501D5FFF70CBE704700BF3480044003
:101980002DE9F84F294B1B685A0548D5284B1B6891
:1019900005460BB101221A7005EB010A554540D2EC
:1019A000DFF89C80234CDFF89C90234F0AE015F869
:1019B000012B09F80B20214A0123AA45137088F84E
:1019C00000602ED098F80030227803F1010BBBF1B3
:1019D0003F0F86BF0026B3465FFA8BF69345E6D1EC
:1019E000BC22FA7005E03A7913060BD422789345AD
:1019F000DDD1FFF731FC4028F5DDFF28F6DD01F0F1
:101A0000B1F8F3E7227801323F2A86BF00210A4667
:101A1000D1B219F80220D2B2FA712170E6E7BDE81E
:101A2000F88F054BBC22DA70BDE8F88F3480044093
:101A30006816FF1F6516FF1F00A006406416FF1FF3
:101A40006C16FF1FE015FF1F10B5044C237823B15F
:101A500001F088F82378002BFAD110BD6416FF1F1F
:101A6000064A074B1B781078DBB2C0B283422CBF0A
:101A70003F3000F1FF30C01A704700BF6516FF1FEE
:101A80006C16FF1F054A064B10781B78C0B2DBB2FC
:101A9000984238BF4030C01A704700BFDC15FF1FA6
:101AA000DD15FF1F30B4154B154C1A782378D2B2D0
:101AB000DBB29A421ED001333F2B0ED91149124B93
:101AC000087819680023C0B2237021B1D31A1A2BE9
:101AD00001DC00230B7030BC70470A480A49C05C27
:101AE0000968DDB2C0B225700029F4D09A4238BF2F
:101AF0004032EBE74FF0FF30EDE700BFDC15FF1F92
:101B0000DD15FF1F2416FF1FD815FF1F084A094BBC
:101B100012781B78DBB29A4207D00133402B28BFE2
:101B20000023054AD05CC0B270474FF0FF307047C9
:101B3000DC15FF1FDD15FF1F2416FF1F0D4B1B6853
:101B40005B0516D530B40C4B0C4CDA780C480D49BB
:101B500002F0CB024025DA705D74DA7842F034028C
:101B6000DA7023780268DBB20B700AB100231370BD
:101B700030BC70473480044000A00640DD15FF1FD4
:101B8000D815FF1FDC15FF1FF0B4384B1A7912F07F
:101B9000300F2CD072B6997D01F0FF0200293DD0A4
:101BA00062B6334F334938780D78334E1C46C0B295
:101BB000EDB2431C402BE17928BF0023AB4202F178
:101BC000FF32C9B21CBFF154184612F0FF02F0D127
:101BD0002A4B1B68C2B23A704BB1A84236BFC5F15E
:101BE0004005401B40192728C4BF01221A701F4915
:101BF000CA78D2B2150616D452060DD51B4B1B79E6
:101C00005B0609D51E4B1F491B6800220A7003B1F1
:101C10001A70164B3C22DA70F0BC70474022D9791A
:101C20005A7462B6E3E70B791C06E5D5164B174EDE
:101C30001C783378E4B2DBB29C420ED0144D01E044
:101C4000A3420AD00133402B28BF00230879E85C67
:101C5000C0B2C871087D0728F2D9DBB203493370DE
:101C60000B79180644BF7C23CB70C5E700A0064063
:101C7000DC15FF1FDD15FF1F2416FF1FD815FF1FE2
:101C80006816FF1F6416FF1F6C16FF1F6516FF1FE7
:101C9000E015FF1F431E032B14D872B60A4951F8F2
:101CA000230068B170B4094C058834F813204668E5
:101CB00041F82360521B24F8132062B670BC7047B1
:101CC00062B6704700207047C816FF1FF018FF1F4C
:101CD000013803280BD872B6074B53F8203043B1B4
:101CE00000205B680130002BFBD162B670470020FA
:101CF00070471846F9E700BF1C17FF1FF0B472B613
:101D00001A491B4E012311F8014B194F9A00240761
:101D100042F0010505D556F8324064B156F8352039
:101D2000BAB10133052BEED162B6124B00221A7004
:101D3000F0BC00F015BD0F4C0F4D217847F8325024
:101D400007EB431308304A1E5860227062B6F0BC9D
:101D500070470849094B0A7847F8353007EBC50347
:101D60000830013A58600A7062B6F0E7B4490000E2
:101D70000000FF1F4517FF1F88004000C8004000FB
:101D8000431E032B1DD81B4A400140F0100030B405
:101D9000104472B6184CE25C032A1BD8DFE802F04C
:101DA0000212151703220D88E25410F0080F14BF19
:101DB000C823882343EA054308310360416062B6C3
:101DC00030BC704708300222EDE70522EBE708300F
:101DD0000422E8E7094A52F8230038B1084A52F8C9
:101DE0002300416042F8231062B6E9E742F823106D
:101DF000034AF7E70000FF1F5417FF1F1C17FF1FC0
:101E00002C17FF1F2DE9F04FDFF800A3DFF800B318
:101E100087B044E0A84F4FEA930807EBC809013E9A
:101E2000D9F8042003F00803F6B2A2F1080003F089
:101E3000FF04002B40F0FC8057F838301B0C99B29F
:101E400022F8081C002B00F0EA809C4B22F8064C7C
:101E500042F8044C53F82620002A00F02982984DBD
:101E600055F826305860974C45F8260034F816305F
:101E7000194424F8161000F053FC002800F01182D9
:101E8000914A924B19F0080F00F1080018BF134651
:101E9000C9F8040047F8383008238AF800309AF867
:101EA0000040E4B260071AD5894B1B78A3B1894979
:101EB0000A7802F0FF0322B1013BDBB20B7003B9D9
:101EC00000BE85490A7802F0FF032AB1013BDBB26C
:101ED0000B70002B00F0BB8104238AF8003004F063
:101EE000080303F0FF02002B00F0C6809BF80030CF
:101EF000DBB21E098ED19C086F4F57F8342007EBD8
:101F0000C401C2F38302013A49680C2A00F28380BB
:101F1000DFE802F077778181818181814081818151
:101F2000070008686D4B6E4D0193674B4A686D4E14
:101F300047F8343081B240F28164684B6A602860AF
:101F400000220120A1421A603A61BA61307000F2A9
:101F5000E180B1F5D06F80F02582B1F5817F00F08E
:101F6000DE8100F2C181802900F03482822940F0B4
:101F7000DC81A9885C4B042900F2D8815B4C890084
:101F80000B44227062701A78930740F1228320700C
:101F9000022023E2514B01931A683AB3544B514E3D
:101FA0005449188834780D784028864645F0020850
:101FB00028BF4FF0400E002C84F001043470CEEBAB
:101FC00000000CBF8824C82407EBC80680B285F047
:101FD000010544EA0E447260188047F838407244A4
:101FE0000D70002800F0B780019B1A603C4B1A88E6
:101FF000B2F5A06F0FD100219A7859703E4B1A703C
:1020000009E0374A108842F22102904200F0A8808D
:102010002D4A47F83420394A012313703CE72A4AF5
:102020002A4B19F0080F18BF134647F8383033E72A
:1020300000F096FB324A334952F82630002B00F06C
:102040003B8158688C5D42F8260003F10802C9F80C
:102050000420032C05D8DFE804F02C0229260222F4
:102060008A551A8819F0080F0CBF8823C82343EA41
:10207000024347F838300FE7E00700F1EB80210614
:1020800000F12881A20706D51F4A204913780220B3
:10209000DBB213700870E30602D51C4B10221A70D5
:1020A00007B0BDE8F08F04228A55DAE705228A5589
:1020B000D7E703228A55D4E70000FF1FC816FF1F89
:1020C0007416FF1FF018FF1FC80040008800400072
:1020D0005017FF1FD916FF1F5817FF1F7016FF1F3D
:1020E0003C17FF1FD816FF1FC02007404817FF1FCF
:1020F0008416FF1F4417FF1F9820074094200740B5
:102100001C17FF1F5417FF1F88200740802007401F
:102110009020074042F22104A14200F0948043D86D
:10212000B1F5086F00F0A881B1F5106F40F0FD80A7
:10213000B84AB94CA978117004F1800503E008345D
:10214000AC4200F09E81236A1906F8D5606A08380F
:1021500000F006FBF3E7BEF1400F18BF002243E793
:10216000AE4ACD1D11F8013B02F8013FA942F9D159
:10217000AB4A1268862A00F01181AA49AA4E0A7851
:10218000307882F00105002842F002020D700CBF89
:102190008821C82147F8321007EBC20280F0010005
:1021A00000213070516033E742F22124A14240F017
:1021B000FE81DFF8BCC29D4B9D49AC78DCF8005035
:1021C0001D6081460C7000200290804684460446C3
:1021D00094490D7845F0020E07EBCE03B9F1000FDC
:1021E0005C600CBF8824C82444EA080385F001041D
:1021F00047F83E3032700C70DFF81CE28A4BDFF893
:102200002482002840F09880BCF1400F1BD144F09C
:10221000020407EBC403029FDFF8FCE15F60002AC1
:1022200040F09F80020442F0880207444EF83420B8
:1022300086F800900D703B46402804D100207D4A6E
:10224000019910800B607C4A01231370E3E600F0D3
:10225000C9FB41E6704B784872491A614FF0020E93
:1022600080F800E0754F0A70754919609960754EE5
:10227000754D764C9A610D213970FF213170DFF870
:10228000F4E129702270724D724A8EF800109F2777
:10229000012406F8047C5D600470DA6007B0BDE8D4
:1022A000F08F6D4A47F83800137801331370F3E567
:1022B00043F82600694DD6E58B5D032B67D801A254
:1022C00052F823F0991E0000991E00001923000007
:1022D0001323000059495C4B80220D2008701A70AE
:1022E000A2077FF5D8AECFE640F20232914240F02D
:1022F0005681A98801F07F01042916D86A88A2B9FD
:102300004E4C89000C448146217841F00201217035
:1023100059E701238B55BFE500238B55BCE5A98800
:1023200001F07F01042940F24781444B0F221A70CB
:10233000414A012313706EE640287FF668AF44F0EF
:1023400002040EEBC401029E4E60AAB1444A83F817
:1023500000903346403888F8005040334EF834201F
:102360006DE70204029B86F8009042F0C8020D70EF
:1023700003444EF834205FE783F80090029B304A14
:1023800088F80050403840334EF8342057E719F0B1
:10239000080F0CBF022303238B557DE5314A0F2123
:1023A0001170EAE6304A5468002CBED06888B5F84F
:1023B00004E003E00C325468002CB6D0138883424A
:1023C000F8D153887345F5D1000A03280CBF207853
:1023D000108903E0254C022022706270EA88824254
:1023E00080F00C810F490D78402A45F0020E94468A
:1023F00007EBCE0028BF4FF0400C04EB0C03446009
:102400000293CCEB02004FEA0C484FF00109002286
:10241000C824E9E65017FF1F0000FF1FF718FF1F31
:10242000F818FF1F4417FF1FD816FF1F0019FF1FC2
:102430006817FF1F8416FF1F94200740C020074025
:1024400088004000882007408020074098200740EF
:102450008816FF1FDC16FF1F4517FF1F7416FF1F8E
:10246000C8004000D916FF1FB84900004817FF1FD9
:10247000D415FF1F8C200740684A694C12782270DF
:10248000ACE76849684B694A02916949694C6A4DF1
:10249000039405964FF0000988461C46164604959D
:1024A000206828B1456800F05BF92846002DF9D175
:1024B00000232360049B30681A46002342F8293029
:1024C00028B1456800F04CF92846002DF9D10022CA
:1024D0003260029A98F800301146002241F8042B2D
:1024E000039A0291023B4FF0000122F81910032BCE
:1024F00007D8DFE803F0340234024FF0010388F814
:10250000003009F10109B9F1040F04F1040406F1E6
:10251000040608F10108C3D1484B059EDFF830914D
:10252000DFF8308100211970012518F8013B09F806
:10253000043B1A0718D4AC0044F0020244F0030430
:10254000002347F8323047F834303D4B994505F1C8
:102550000105EAD196F8009089F0010233E64FF0C8
:10256000000388F80030CCE700F0DAF8AC0007EBA5
:10257000451300F10802002837D05A60314B47F864
:10258000343000F0CDF844F0010307EBC30200F152
:10259000080100B351602C4A47F83320CCE7B1F56D
:1025A000A06F7FF4C2AE00224FF001090BE642F2A9
:1025B00021329142F7D0B8E66A88002A7FF4B5AE9E
:1025C000224C89000C448146217821F002012170BF
:1025D000F9E5022002E7194B44F001021B7847F8A5
:1025E0003200164A01331370A6E7144B134A1B78C6
:1025F000AC00013347F834001370C2E7402884462A
:1026000028BF4FF0400C04EB0C03CCEB00004FEA6A
:102610000C48029300224FF00109D9E55017FF1F23
:102620004817FF1F2C17FF1FC816FF1F1C17FF1F7F
:102630005417FF1FF018FF1F7416FF1F4517FF1FC9
:10264000D420074088004000C8004000C020074058
:10265000C4200740B44900002DE9F843244C01F0A0
:1026600047F9002204F1880023461A605A600833B3
:1026700083424FF00001F8D11E481F4A0368DFF87B
:1026800090E01E4F1E4D1F4EDFF88880DFF888C097
:10269000DFF8889043F48023036013681A4843F0FE
:1026A00040731360C4F307238EF80030C4F307436C
:1026B0003B70240EFF2302F5C9222C7002F58472B0
:1026C00088F80030114D8CF800303370012389F800
:1026D000003070268EF864104FF40014102107F8B3
:1026E0002C3C2E70046011700EF1640EBDE8F8836E
:1026F0000000FF1F3480044000D80040B020074095
:10270000B42007401020074004E100E035E400E079
:102710009C200740802007408820074094200740E5
:1027200072B60D480268B2FA82F30B2B10DC4FF040
:102730000041D94022EA0102026062B6074803EB79
:10274000C303DB00C2180021C1501046516070471E
:1027500062B60020704700BF1C0BFF1F8805FF1FDB
:102760000D4B0E4AC31AA2FB03231B090B2B0CD8DB
:102770000B4A127852B972B60A484FF0004102680B
:1027800021FA03F31A43026062B67047064A1278D0
:10279000002AF0D0FFF7B2BA8805FF1F398EE33860
:1027A0004517FF1F1C0BFF1F5017FF1F38B50F4D9C
:1027B000286878B143880288C118013393420C7AA3
:1027C00002D24380204638BDFFF7CAFF00232046CF
:1027D0002B6038BD064B1B782BB10320FFF75AFA4C
:1027E00028600028E6D14FF0FF3038BD6417FF1F86
:1027F0005017FF1F10B5094C206818B143881844C2
:10280000007A10BD064B1B782BB10320FFF742FA6C
:1028100020600028F2D14FF0FF3010BD6417FF1F79
:102820005017FF1F044B054A1B6890881BB11A887C
:102830005B88D31A184470476417FF1FF018FF1FF6
:102840000B4B1B789BB110B50A4C206848B1FFF7C1
:1028500087FF002303202360FFF71CFA30B1FFF746
:102860007FFF0320FFF716FA0028F8D110BD70474C
:102870005017FF1F6417FF1F2DE9F84FDFF8EC908A
:10288000012289F8002069B3DFF8E480344F8346E1
:102890000E46D8F80000A0B3324D4488C4F1400180
:1028A000B14228BF314604EB010E00221FFA8EFE12
:1028B0002A70761AA0F802E000F1080251B1013C3A
:1028C000224459441BF8014B02F8014F8B45F9D1C2
:1028D000B0F802E0BEF13F0F09D8234A052111707C
:1028E000002ED6D1002089F80000BDE8F88F4022E4
:1028F000028001460420FFF743FA0022C8F80020B6
:10290000EBE73A7822B3174D4DF2E9044FF0010A94
:1029100007E0013C16D02A78A2B900F023F93A78F2
:10292000B2B10420FFF7D4F90728F2D889F800A043
:10293000FFF7F6FEC8F800000028AED10B4B013CB3
:102940001870E8D101232B704FF0FF30BDE8F88FED
:10295000002389F800304FF0FF30BDE8F88F00BF4A
:102960005017FF1F6017FF1F5817FF1F5917FF1F32
:102970005C17FF1F00B583B002AB012103F8010D06
:102980001846FFF779FF03B05DF804FBF8B5114B6B
:102990001B788BB1104E114D346801272F7064B134
:1029A0000F4A638800271770214623800420FFF711
:1029B000E7F9376000232B70F8BDFFF7B1FE084B35
:1029C00028B1014604201C70FFF7DAF9F2E71F7006
:1029D000F0E700BF5017FF1F5C17FF1F5917FF1FBD
:1029E0005817FF1F38B50E4B1B7873B90D4C216873
:1029F00061B103F0FF054B880B800420FFF7C0F99D
:102A0000256038BD084B01221A7038BDFFF788FEDB
:102A10000028F7D00146BDE838400420FFF7B0B9E0
:102A20005917FF1F5C17FF1F5817FF1F0368C9B214
:102A30001B6818470368C9B21B6818470368C9B206
:102A40001B6818470368C9B21B68184708B50846D1
:102A5000FEF78CFF012008BD08B50846FEF786FF8B
:102A6000012008BD38B508460D4601F089FC044632
:102A700001462846FEF784FF204638BD10B50846BB
:102A800014461146FEF77CFF204610BDFEF7E8BF56
:102A9000FFF754B808B50846FEF740FF003018BFEE
:102AA000012008BD08B50846FEF716FF003018BF24
:102AB000012008BD08461146FEF7AABE0846FEF7EB
:102AC000E1BE00BF0846FEF787BE00BFFEF74CBE62
:102AD000034B03EB5100B0FBF1F0FEF7ABBD00BFC1
:102AE000001C4E0E10B5064B144603EB5100B0FB14
:102AF000F1F0FEF79FFD2046BDE81040FEF708BE4E
:102B0000001C4E0EFEF7A0BFFFF700B8FEF7CABFCD
:102B1000FEF7B8BF704700BF044B054A1A604FF478
:102B20007A71002299601A711A7370476C17FF1F2F
:102B30005849000000B5064A036812885B6883B0F4
:102B400001A9ADF804200222984703B05DF804FB08
:102B5000B049000008B5FDF707FEFDF723FE00F0C1
:102B600001F8FAE710B5154C237803B110BD012325
:102B70002370FFF757FE58B9FEF784FF70B900F0D5
:102B800013FB88B900F0DAFDA0B90023237010BD53
:102B900001F066F8FEF776FF0028F0D0FFF7BAFFE5
:102BA00000F002FB0028EDD000F084FF00F0C6FD2D
:102BB0000028EAD001F032F8E7E700BF7C17FF1FDA
:102BC00030B42948294A2A4B2A4D6024E121047057
:102BD00011701B78284C082B30D00A2B2748284925
:102BE00037D00C2B0CBF35225D2212232A602360C4
:102BF00002600B60234B24491B78244ABBB101239C
:102C00000B601360224B23491B78234A012B26D9E2
:102C1000042B0FD9082B1ED9102B94BF8623872392
:102C20000B6013601D4B01221A7030BC70470B60A3
:102C30001360E7E784230B601360F3E700F58E2051
:102C40000F490830212213232A60236002600B60A1
:102C5000D0E73922F7E785230B601360E2E7802392
:102C60000B601360DEE700BF0040074001400740F3
:102C7000200BFF1F08B003400CB0034008B00B400E
:102C80000CB00B407E17FF1F20B0034020B00B405C
:102C9000210BFF1F24B0034024B00B407D17FF1F02
:102CA000F0B44D1E2E46002400E00134B0FBF2F3D8
:102CB00002FB1300092800F130078ABF3730F8B251
:102CC000C0B206F8010F1846002BEED10A19537056
:102CD0004CB1107815F8016F28700133E01A834267
:102CE00002F80169F5DB0846F0BC7047264A27491F
:102CF0001368F0B443F4006313600A78244F254E40
:102D0000254D264C26490023092A3B7033702B7031
:102D100023700B7032D01A2A23D0224B1B780A2B37
:102D200027D01F2B03D1204B4FF451721A601F4B39
:102D30001F4D204CC0F34437C0F3471600F01F006E
:102D40001F7004215E700222987288273C26402062
:102D50009970DA7459751F74DE7028702260F0BCA7
:102D60007047154B40F213321A600E4B1B780A2B3A
:102D7000D7D1124B4FF451721A60D8E7104B40F282
:102D800013321A60C9E700BF34800440220BFF1FD2
:102D9000F017FF1F8517FF1FF817FF1FF117FF1F01
:102DA0008417FF1F230BFF1F00D0044000B0064014
:102DB00021E400E004E100E004D0044010B004404D
:102DC0000CB00440144B14499B7803F0EC0200F063
:102DD00003031343420700F00F0248BF43F0100300
:102DE000042A8B7013D00C4B0B4A5B79C10603F09D
:102DF000EF0348BF43F0100353719379820603F049
:102E0000EF03054A48BF43F01003937170478B7975
:102E100043F040038B71E6E700B00640184B1B6897
:102E20001B052CD510B5174C237823B1FFF79AFE5C
:102E30002378002BFAD11448144A154B02240021A0
:102E40000460D1701B78092B03D1124B40F203129E
:102E50001A60114B1B7803F07F030A2B0AD00F4B2B
:102E60000F4810491A68002303700B700AB1012340
:102E7000137010BD0C4B40F203121A60EFE770475D
:102E8000348004408417FF1F84E100E000B0064056
:102E9000220BFF1F0CB00440230BFF1F8017FF1FE6
:102EA000F017FF1F8517FF1F10B004400A4A38B5FE
:102EB0000546137803F0FF04002BFAD101212846C0
:102EC000FEF778FA21462846FEF76EFA034A044BCD
:102ED00052F835201A6038BD8417FF1F40480000A3
:102EE000F417FF1F09B140F08000104A1378984290
:102EF0001AD010B40E4C2468240512D503F07F03B9
:102F00000A2B02D10B4B00241C60002900F07F0328
:102F100014BF602144210A2B03D1064B41F44071B8
:102F2000196010705DF8044B704700BF230BFF1F42
:102F30003480044010B004400A4B1A7882420FD00B
:102F40000949096809050AD5092A02D1074A002159
:102F50001160092803D1054A40F21331116018703D
:102F6000704700BF220BFF1F348004400CB00440A8
:102F70000D4B1B6813F4006305D0212805D90B4BBA
:102F800000201860704718467047094B10B5074C71
:102F900053F8303023600121FEF70CFA2368002239
:102FA0001A70012010BD00BF348004408017FF1F3D
:102FB000404800000C4B1B6813F4006306D0172830
:102FC00006D00A4A537B03F0FE0353730020704778
:102FD000074B064A40F202311960537B43F001036C
:102FE00053730120704700BF3480044000B0064096
:102FF00008B004402DE9F84F234B1B681A053BD558
:10300000224B1B680BB101221A70DFF89090204D03
:1030100099F80040DFF888801E4E0134272C8ABFC3
:103020004FF0000A5FFA84FA54460746AB462B7805
:103030009C4216D1FEF710F940281FDC33791B069D
:10304000F5D59BF800300133272B86BF00221346AD
:10305000DAB218F80330DBB2F3712A702B789C4295
:10306000E8D00D490B4BFFB20120BC2208F80470D8
:10307000087089F800A0DA70BDE8F88FFF28D6DD67
:10308000FFF770FDD3E700BF34800440F417FF1F43
:10309000F117FF1F00B006408417FF1FF817FF1F2E
:1030A0008817FF1F2DE9F84F294B1B681A0548D5D3
:1030B000284B1B6805460BB101221A7005EB010A6B
:1030C000554540D2DFF89C80234CDFF89C90234F7D
:1030D0000AE015F8012B09F80B20214A0123AA4523
:1030E000137088F800602ED098F80030227803F131
:1030F000010BBBF1270F86BF0026B3465FFA8BF6A4
:103100009345E6D1BC22FA7005E03A7913060BD458
:1031100022789345DDD1FEF79FF84028F5DDFF28A2
:10312000F6DDFFF71FFDF3E722780132272A86BF7D
:1031300000210A46D1B219F80220D2B2FA712170E8
:10314000E6E7BDE8F88F054BBC22DA70BDE8F88FE2
:1031500034800440F417FF1FF117FF1F00B0064032
:103160008417FF1FF817FF1F8817FF1F10B5044CA7
:10317000237823B1FFF7F6FC2378002BFAD110BD9A
:103180008417FF1F064A074B1B781078DBB2C0B2CA
:1031900083422CBF273000F1FF30C01A704700BFB8
:1031A000F117FF1FF817FF1F054A064B10781B7811
:1031B000C0B2DBB2984238BF4030C01A704700BF7F
:1031C000F017FF1F8517FF1F30B4154B154C1A78E9
:1031D0002378D2B2DBB29A421ED001333F2B0ED9F4
:1031E0001149124B087819680023C0B2237021B12D
:1031F000D31A1A2B01DC00230B7030BC70470A482D
:103200000A49C05C0968DDB2C0B225700029F4D05B
:103210009A4238BF4032EBE74FF0FF30EDE700BF96
:10322000F017FF1F8517FF1FB017FF1F8017FF1F25
:10323000084A094B12781B78DBB29A4207D0013357
:10324000402B28BF0023054AD05CC0B270474FF026
:10325000FF307047F017FF1F8517FF1FB017FF1FC4
:103260000D4B1B681B0516D530B40C4B0C4CDA7893
:103270000C480D4902F0CB024025DA705D74DA7813
:1032800042F03402DA7023780268DBB20B700AB1C4
:103290000023137030BC70473480044000B00640F7
:1032A0008517FF1F8017FF1FF017FF1FF0B4384B63
:1032B0001A7912F0300F2CD072B6997D01F0FF020E
:1032C00000293DD062B6334F334938780D78334EFC
:1032D0001C46C0B2EDB2431C402BE17928BF00234D
:1032E000AB4202F1FF32C9B21CBFF154184612F0D2
:1032F000FF02F0D12A4B1B68C2B23A704BB1A84210
:1033000036BFC5F14005401B40192728C4BF012224
:103310001A701F49CA78D2B2150616D452060DD5B6
:103320001B4B1B795B0609D51E4B1F491B680022EE
:103330000A7003B11A70164B3C22DA70F0BC704769
:103340004022D9795A7462B6E3E70B791C06E5D5B9
:10335000164B174E1C783378E4B2DBB29C420ED089
:10336000144D01E0A3420AD00133282B28BF0023CB
:103370000879E85CC0B2C871087D0728F2D9DBB2D1
:10338000034933700B79180644BF7C23CB70C5E723
:1033900000B00640F017FF1F8517FF1FB017FF1F73
:1033A0008017FF1FF417FF1F8417FF1FF817FF1F59
:1033B000F117FF1F8817FF1F2DE9F84F214B1B68DE
:1033C00007460BB101221A70DFF888901E4D99F85C
:1033D0000040DFF884801D4E0134272C8ABF4FF057
:1033E000000A5FFA84FA5446AB462B78A34216D102
:1033F000FDF732FF40281FDC33791B06F5D59BF81B
:1034000000300133272B86BF00221346DAB218F8AA
:103410000330DBB2F3712A702B78A342E8D00C4959
:103420000A4BFFB208F804700120AC22087089F83A
:1034300000A0DA70BDE8F88FFF28D6DDFFF792FB19
:10344000D3E700BF7018FF1F6D18FF1F00C00640B4
:103450006C18FF1F7418FF1F0418FF1F174A184924
:103460001368F0B543F48053164C174D174FDFF82F
:1034700074E01360164E174A002323708EF8003054
:10348000154C2B700B703B7040F213373760134DA7
:103490001349C0F344364FF4517727601670C0F3D8
:1034A00047142C2700F01F00402654709072082407
:1034B00093701374D7702E700C60F0BD348004408C
:1034C0006D18FF1F0018FF1F7418FF1F6C18FF1FD7
:1034D00008C0044000C006400CC0044023E400E0E3
:1034E00004E100E00118FF1F144B14499B7803F01E
:1034F000EC0200F003031343420700F00F0248BF41
:1035000043F01003042A8B7013D00C4B0B4A5B79E9
:10351000C10603F0EF0348BF43F0100353719379E2
:10352000820603F0EF03054A48BF43F0100393718E
:1035300070478B7943F040038B71E6E700C006408B
:10354000F8B5114B1B68DB041CD5104C237823B154
:10355000FFF708FB2378002BFAD10D4B0D4F0E4ED1
:103560000E4D0F4C0F48104908221A600023FB70C3
:1035700040F2031232602A60226803700B7012B1AD
:1035800001231370F8BDF8BD348004406C18FF1F90
:1035900084E100E000C0064008C004400CC00440C4
:1035A000FC17FF1F0018FF1F0118FF1F0A4A38B53C
:1035B0000546137803F0FF04002BFAD101212846B9
:1035C000FDF7F8FE21462846FDF7EEFE034A044BC0
:1035D00052F835201A6038BD6C18FF1F40480000B3
:1035E0007018FF1F09B140F08000104A137898420C
:1035F0001AD010B40E4C2468E40412D503F07F03F3
:10360000082B02D10B4B00241C60002900F07F0323
:1036100014BF60214421082B03D1064B41F44071B3
:10362000196010705DF8044B704700BF240BFF1F3A
:10363000348004400CC00440704700BF0D4B1B6831
:1036400013F4805305D0212805D90B4B00201860B6
:10365000704718467047094B10B5074C53F8303087
:1036600023600121FDF7A6FE236800221A700120C5
:1036700010BD00BF34800440FC17FF1F404800000D
:103680000C4B1B6813F4805306D00E2806D00A4A50
:10369000537B03F0FE03537300207047074B064A29
:1036A00040F202311960537B43F001035373012050
:1036B000704700BF3480044000C0064004C004408E
:1036C000034B1B68DB0401D5FFF776BE704700BFD4
:1036D0003480044070B5094E04464518AC4204F1EC
:1036E00001040AD03368DB04F8D514F8010CFFF7A5
:1036F00063FEAC4204F10104F4D170BD3480044097
:1037000010B5044C237823B1FFF72CFA2378002B53
:10371000FAD110BD6C18FF1F064A074B1B781078B2
:10372000DBB2C0B283422CBF273000F1FF30C01A99
:10373000704700BF6D18FF1F7418FF1F054A064B26
:1037400010781B78C0B2DBB2984238BF4030C01A44
:10375000704700BF0018FF1F0118FF1F30B4154B42
:10376000154C1A782378D2B2DBB29A421ED00133BC
:103770003F2B0ED91149124B087819680023C0B2AB
:10378000237021B1D31A1A2B01DC00230B7030BC3B
:1037900070470A480A49C05C0968DDB2C0B22570AA
:1037A0000029F4D09A4238BF4032EBE74FF0FF30A7
:1037B000EDE700BF0018FF1F0118FF1F2C18FF1FA7
:1037C000FC17FF1F084A094B12781B78DBB29A429C
:1037D00007D00133402B28BF0023054AD05CC0B27C
:1037E00070474FF0FF3070470018FF1F0118FF1F90
:1037F0002C18FF1F054B064A1B7806491268DBB2DE
:103800000B700AB100231370704700BF0118FF1F2F
:10381000FC17FF1F0018FF1F30B42B4B1A799406BA
:103820001FD52A48DA790378294901333F2B0978D3
:10383000C8BF00238B42D2B203D0264CD9B2E25487
:103840000170254A116861B1244A1278D2B29342BC
:1038500036BFC2F140029B1A9B18272BC4BF01231D
:103860000B70194AD378DBB2180611D45A060DD55D
:10387000154B1B795B0609D5194B1A491B680022A9
:103880000A7003B11A70104B2C22DA7030BC7047EA
:1038900011790906EAD5144910480C780178C9B2A3
:1038A0008C420DD04A1C272A84BF00210A460F4DA6
:1038B000054C98BFD1B2AA5CD2B2E2710170D5E7D3
:1038C0006C21D170D2E700BF00C006400018FF1F76
:1038D0000118FF1F2C18FF1FFC17FF1F6D18FF1F7B
:1038E0007018FF1F6C18FF1F7418FF1F0418FF1FAC
:1038F00072B6184A184B19491160702280211A704B
:103900001A46197013781B06FCD510B5144B84B0F9
:10391000186862B6134B144C984298BF00EB8000B5
:1039200001A998BF40000A22FFF7BAF901A9204671
:10393000002311F8012B01333AB10A2B20F8022F92
:10394000F7D11623237004B010BD5B00DBB22370E7
:1039500004B010BD04000240000002400000074116
:103960000C0002407F969800B40BFF1F08B5084674
:10397000FFF740FB012008BD08B50846FFF73AFBFA
:10398000012008BD38B508460D4600F0F9FC044694
:1039900001462846FFF786FB204638BD10B508468D
:1039A00014461146FFF77EFB204610BDFFF7EABB29
:1039B000FFF756BC08B50846FFF7FCFA003018BF01
:1039C000012008BD08B50846FFF7D2FA003018BF3D
:1039D000012008BD08461146FFF784BA0846FFF7E4
:1039E000ABBA00BF0846FFF761BA00BFFFF716BACF
:1039F000034B03EB5100B0FBF1F0FFF777B900BFC9
:103A0000001C4E0E10B5064B144603EB5100B0FBE4
:103A1000F1F0FFF76BF92046BDE81040FFF7D2B98F
:103A2000001C4E0EFFF7A2BBFFF702BCFFF7CCBB9A
:103A3000FFF7BABB0368064A1B68934205D110B56D
:103A4000C8B2FFF7D7FA012010BDC9B2184700BFAE
:103A5000793900000368064A1B68934205D110B506
:103A6000C8B2FFF7C7FA012010BDC9B2184700BF9E
:103A7000793900000368064A1B68934205D110B5E6
:103A8000C8B2FFF7B7FA012010BDC9B2184700BF8E
:103A9000793900000368064A1B68934205D110B5C6
:103AA000C8B2FFF7A7FA012010BDC9B2184700BF7E
:103AB00079390000704700BF044B054A1A604FF483
:103AC0007A71002299601A711A7370477818FF1F73
:103AD000144A000008B50846FFF7F2FD012008BDB2
:103AE00008B50846FFF7ECFD012008BD38B50846CB
:103AF0000D4600F045FC044601462846FFF7EAFD66
:103B0000204638BD10B5084614461146FFF7E2FDC1
:103B1000204610BDFFF700BEFFF76CBE08B5084693
:103B2000FFF7AEFD003018BF012008BD08B50846FC
:103B3000FFF784FD003018BF012008BD084611467C
:103B4000FFF750BD0846FFF777BD00BF0846FFF7F7
:103B50002DBD00BFFFF7F4BC034B03EB5100B0FBDE
:103B6000F1F0FFF77BBC00BF000E270710B5064B36
:103B7000144603EB5100B0FBF1F0FFF76FFC204659
:103B8000BDE81040FFF7B0BC000E2707FFF7B8BD37
:103B9000FFF718BEFFF7E2BDFFF7D0BD0368064A86
:103BA0001B68934205D110B5C8B2FFF789FD01200B
:103BB00010BDC9B2184700BFE13A00000368064AC9
:103BC0001B68934205D110B5C8B2FFF779FD0120FB
:103BD00010BDC9B2184700BFE13A00000368064AA9
:103BE0001B68934205D110B5C8B2FFF769FD0120EB
:103BF00010BDC9B2184700BFE13A00000368064A89
:103C00001B68934205D110B5C8B2FFF759FD0120DA
:103C100010BDC9B2184700BFE13A0000704700BFAD
:103C2000044B054A1A604FF47A71002299601A71A8
:103C30001A7370478818FF1F744A0000FEF700BE11
:103C4000FEF7A4BEFEF7D6BDFEF7B0BDFEF7EABD97
:103C500008461146FEF710BE0846FEF78BBE00BFB1
:103C6000704700BF044B054A1A604FF47A71002276
:103C700099601A711A7370479818FF1FD44A000090
:103C800043084A0803F0553302F05532C01A891A26
:103C900010B482088C0800F0333004F0333402F0A2
:103CA000333201F033318318081903EB131300EB9F
:103CB000101003F00F3300F00F30184400EB002019
:103CC00000EB0040000E5DF8044B70470B460146C8
:103CD000184600F001B800BF13460A46014602200C
:103CE00000F0BCBB70B50F4E0F4D761BB61018BF61
:103CF000002405D0013455F8043B9847A642F9D179
:103D00000A4E0B4D761B00F0F5FEB61018BF0024CE
:103D100006D0013455F8043B9847A642F9D170BD4E
:103D200070BD00BF004B0000004B00001C4B0000AA
:103D3000004B0000024B0146186800F003B800BFBA
:103D4000F80FFF1F2DE9F04F01F10B05162D83B081
:103D5000064640F29F8035F0070500F1BF80A9427A
:103D600000F2BC8000F0F4FAB5F5FC7FC0F09C8254
:103D70006B0A00F0BA80042B00F28381A80900F1DD
:103D8000390E4FEA4E033830C44F07EB8303A3F1DB
:103D900008015C68A14207D1ACE0002A80F2AC8047
:103DA000E468A14200F0A680636823F003035A1B75
:103DB0000F2AF2DDB9493C6901F1080E744500F0A3
:103DC000B381636823F003035A1B0F2A00F3998120
:103DD000002AC1F814E0C1F810E080F29E80B3F52B
:103DE000007F80F06781DB0803F1010C01229B104A
:103DF00002FA03F34A6851F83C80C4F8088001EBEA
:103E0000CC091A43A9F10803E3604A6041F83C4039
:103E1000C8F80C40831001249C40944200F28A8030
:103E2000144206D120F003006400144200F10400A3
:103E3000FAD007EBC009CC468046DCF80C108C4564
:103E400007D173E1002A80F28181C9688C4500F0B6
:103E50006D814B6823F003035A1B0F2AF2DD0C46D9
:103E6000D1F80CC054F8088F4B1945F001054D608E
:103E700042F00101C8F80CC03046CCF808807B61E4
:103E80003B61C3F80CE0C3F808E059609A5000F0B9
:103E900061FA1FE0102921D800F05AFA10250623F4
:103EA00002207E4F07EB8303A3F108025C68944273
:103EB00000F045816368E168A56823F003032344AB
:103EC00030465A68E96042F001028D605A6000F0A5
:103ED00041FA0834204603B0BDE8F08F00240C23DB
:103EE0002046336003B0BDE8F08F80234FF0400ED2
:103EF0003F2049E770465DE72344E1685A68A568BA
:103F000042F00102E96030468D605A6000F022FA0A
:103F10000834204603B0BDE8F08F234430465A6889
:103F200042F001025A6000F015FA0834204603B04E
:103F3000BDE8F08FBC68636823F00308A84504D38C
:103F4000C5EB08030F2B00F38C80554BDFF8609115
:103F50001A68D9F8003001332A4404EB080A00F04B
:103F6000608102F580520F3222F47F6222F00F024C
:103F700011463046019200F0EFF9B0F1FF3F834661
:103F8000019A00F05881824500F2FC80454B196887
:103F9000DA451144196000F05381D9F80000DFF8C8
:103FA00010E101301BBFCAEB0B0A5144CEF800B040
:103FB00019601BF0070100F01781C1F10800C1F57D
:103FC0008051834408315A44C2F30B02C2EB010909
:103FD00049463046019300F0BFF9431C019B00F0B5
:103FE0003F81CBEB00024A4442F001021968C7F856
:103FF00008B04944BC42CBF804201960DFF8A49013
:1040000016D0B8F10F0F40F2FD806268A8F10C03E2
:1040100023F00703E01802F001024FF0050E1A43E7
:104020000F2B6260C0F804E0C0F808E000F21C81C9
:104030001D4BBC681A68914288BF19601B4B1A68F7
:104040009142626888BF196022F003029542A2EB98
:10405000050301D80F2B04DC304600F07BF9002467
:1040600038E7621943F0010345F001056560304609
:10407000BA60536000F06EF90834204603B0BDE822
:10408000F08F142B71D9542B00F2A480280B00F16F
:104090006F0E4FEA4E036E3076E600BFFC0FFF1F37
:1040A000B018FF1FB418FF1FAC18FF1FA818FF1F80
:1040B0000814FF1F5A0A042A5ED9142A00F2B3809A
:1040C00002F15C0149005B3207EB810C57F82110CB
:1040D000DFF8DC81ACF1080C8C4500F088804A6880
:1040E00022F00302934202D289688C45F7D1D1F8BD
:1040F0000CC07A68C4F80CC0A160CCF80840CC6051
:1041000088E6631942F0010745F001056560304615
:104110004B610B61C3F80CE0C3F808E05F609A5094
:10412000083400F017F9D5E64A6873E608F101088B
:1041300018F0030F0CF1080C7FF47FAE30E0DC6860
:10414000A34208BF02303FF435AEB3E60B440C4641
:104150005A68C96854F8085F42F001025A60304654
:10416000E9608D6000F0F6F8B4E603F15C0E03F14F
:104170005B004FEA4E0307E69A0902F13901490054
:104180003832A1E7BC424A4B3FF400AF9C686268FA
:1041900022F003025AE759F80839994540F0828025
:1041A00010F0030F00F1FF30F5D17B6823EA040320
:1041B0007B6064009C423FF6BDAE002C3FF4BAAE7B
:1041C0001C4240467FF435AE64001C4200F10400FE
:1041D000FAD02EE6B3F5AA7F18D8E80B00F1780ED6
:1041E0004FEA4E037730CFE54FF48051EBE60121E3
:1041F000D8F80430921001FA02F21A43C8F80420E9
:10420000614677E70123CBF8043025E740F25452AA
:10421000934220D8A80C00F17D0E4FEA4E037C306B
:10422000B2E51032A4E6542A26D81A0B02F16F0127
:1042300049006E3248E7BC68626822F0030205E775
:10424000CAF30B0000287FF4A8AE4244BB6842F0DA
:1042500001025A60ECE6FE234FF07F0E7E2093E5CC
:1042600001224FF00009C1E604F10801304600F0D8
:10427000B9F9D9F80010DBE6B2F5AA7F05D8DA0B58
:1042800002F17801490077321EE740F254518A4228
:1042900005D89A0C02F17D0149007C3214E7FE2119
:1042A0007E2211E77B6884E7E808431C5B00F8E5A1
:1042B000FC0FFF1F70B4840746D0541E002A41D063
:1042C000CDB2034602E0621EE4B3144603F8015B7C
:1042D0009A07F8D1032C2ED9CDB245EA05250F2C2B
:1042E00045EA054519D903F110022646103E0F2E66
:1042F00042F8105C42F80C5C42F8085C42F8045C3E
:1043000002F11002F2D8A4F1100222F00F0204F020
:104310000F041032032C13440DD91E462246043AD2
:10432000032A46F8045BFAD8221F22F00302043263
:10433000134404F003042CB1C9B21C4403F8011B5C
:10434000A342FBD170BC704714460346C2E700BFCE
:10435000704700BF704700BF38B5074C00230546C3
:1043600008462360FCF770FF431C00D038BD23686B
:10437000002BFBD02B6038BD0419FF1FFFFFFFFF90
:1043800090F800F06DE9024520F007016FF0000C95
:1043900010F0070491F820F040F049804FF000043D
:1043A0006FF00700D1E9002391F840F000F1080018
:1043B00082FA4CF2A4FA8CF283FA4CF3A2FA8CF350
:1043C0004BBBD1E9022382FA4CF200F10800A4FAB7
:1043D0008CF283FA4CF3A2FA8CF3E3B9D1E904230B
:1043E00082FA4CF200F10800A4FA8CF283FA4CF342
:1043F000A2FA8CF37BB9D1E9062301F1200182FAFC
:104400004CF200F10800A4FA8CF283FA4CF3A2FA01
:104410008CF3002BC6D0002A04BF04301A4612BA0F
:10442000B2FA82F2FDE8024500EBD2007047D1E912
:10443000002304F00305C4F100004FEAC50514F0A1
:10444000040F91F840F00CFA05F562EA05021CBF72
:1044500063EA050362464FF00004A9E72DE9F0473F
:10446000254C2568D5F84841064688469246994627
:10447000C4B360681F2817DC431C76B104EB8005C9
:104480000122C5F888A0D4F8881182401143022E79
:10449000C4F88811C5F808911ED00230636044F852
:1044A00020800020BDE8F087144B03B34FF4C870A0
:1044B000FFF740FC0446D0B1D5F84831002780E82A
:1044C0008800C5F8484138460123C4F88871C4F80B
:1044D0008C71002EE1D0D1E7D4F88C110A43C4F8D6
:1044E0008C21DAE705F5A674C5F84841C1E74FF01D
:1044F000FF30BDE8F08700BFF04A0000353D000006
:10450000024B13B1024800F005B8704700000000EC
:1045100021450000002301461A461846FFF79EBFBA
:1045200038B5074D074C2C1BA41005D0013C55F89D
:10453000043D9847002CF9D1BDE8384000F0EEBAB0
:104540000000000000000000F8B5234F0C460646AE
:10455000FFF7FEFEBB685D6825F00305291B01F629
:10456000EF7121F47F6121F00F01A1F58054B4F5C2
:10457000805F07DB00213046FFF7EEFEBB682B446F
:10458000984204D03046FFF7E5FE0020F8BD6142B6
:104590003046FFF7E1FE01300DD0104BBA681968C4
:1045A0002D1B45F001053046091B55601960FFF7CA
:1045B000D1FE0120F8BD00213046FFF7CDFEBA68DC
:1045C000831A0F2BDEDD064C0449246843F00103F7
:1045D000001B53600860D5E7FC0FFF1FB418FF1FD6
:1045E0000814FF1F002945D02DE9F0410D468046F3
:1045F000FFF7AEFE55F8047C6A4927F00103A5F1E8
:104600000804E2188E685068B24220F0030062D0BD
:10461000FE0750600BD455F8087CE41B01F1080E2E
:10462000A56875453B446FD0E768EF60BD6015181D
:104630006D68ED0742D543F001026260E350B3F5C7
:10464000007F18D2DB085A1C4D6851F83270A76001
:1046500001209B1000FA03F301EBC2001D43083850
:10466000E0604D6041F83240FC604046BDE8F041FA
:10467000FFF770BE70475A0A042A53D89A0902F10C
:1046800039077F0002F1380501EB870051F8272038
:104690004449083890424DD0516821F003018B42C3
:1046A00002D292689042F7D1D068E060A260846044
:1046B000D4604046BDE8F041FFF74CBE95683A4FE4
:1046C000BD4203443FD0D068E86043F001028560FA
:1046D0006260E350B3E7FF07034407D455F8082CA2
:1046E000A41A1344A068E268C26090602F4A12685E
:1046F00043F00100934260608C60B6D32C4B40467F
:104700001968FFF721FFB0E711184968C90744D4B9
:104710009168D268CA60034443F001009160606010
:10472000E350A2E7142A17D802F15C077F0002F1D8
:104730005B05A9E7AA104B68012505FA02F21343AD
:104740004B600246B1E743F001024C610C61E56049
:10475000A5606260E35088E7542A06D81A0B02F17C
:104760006F077F0002F16E058EE7B2F5AA7F06D8CB
:10477000DA0B02F178077F0002F1770584E740F257
:104780005450824206D89A0C02F17D077F0002F154
:104790007C0579E7FE277E2576E743F0010262601B
:1047A000E35062E7FC0FFF1F0410FF1F0414FF1FFC
:1047B000B018FF1F0000000000000000C50400004A
:1047C000D90600000D05000053657474696E6720FA
:1047D000757020736E6F6F7A654469676974616C78
:1047E00020626C6F636B00004C454420424C554581
:1047F00020204F46460000004C454420424C554581
:1048000020204F4E000000004C45442047524545B3
:104810004E204F4E000000004C4544204752454575
:104820004E204F464600000000000000000000003F
:10483000F10D000069100000690D000080FFFFFF0E
:104840004008FE4340A004404408FE4344A0044006
:104850000018FE4300C004403000FE433090044086
:104860003400FE43349004401C18FE431CC0044036
:104870001018FE4310C004400818FE4308C004404E
:104880000C18FE430CC004400C10FE430CB0044056
:104890001010FE4310B004401810FE4318B004403E
:1048A0001C10FE431CB004401410FE4314B004401E
:1048B0000418FE4304C004400010FE4300B004404E
:1048C0000008FE4300A004400408FE4304A0044086
:1048D0000C08FE430CA004400808FE4308A0044056
:1048E0001418FE4314C004401818FE4318C00440B6
:1048F0000410FE4304B004400810FE4308B0044016
:104900001400FE43149004404C08FE434CA00440A5
:104910000420FE4304D004402410FE4324B004408D
:104920002010FE4320B004402810FE4328B004406D
:104930002C10FE432CB004400020FE4300D0044065
:104940004808FE4348A004401000FE431090044075
:104950000000000000000000592A00007D2A00002D
:10496000112B00000D2B0000092B0000052B00006F
:10497000D12A0000E52A0000CD2A0000C52A000047
:10498000BD2A0000B52A0000A52A0000952A0000D3
:10499000912A00008D2A00002D2A0000352A0000EF
:1049A0003D2A0000452A0000652A00004D2A00002B
:1049B0000D0AFFFF0015191500010000280BFF1F4D
:1049C0001200000000020000540BFF1F4300000013
:1049D00000030000B00BFF1F0000000001030904EA
:1049E0003C0BFF1F0000000002030904980BFF1F8F
:1049F0000000000003030904B40BFF1F00000000C7
:104A000000000000000000000000000000000000A6
:104A100000000000793900009D390000313A0000A3
:104A20002D3A0000293A0000253A0000F139000033
:104A3000053A0000ED390000E5390000DD390000DD
:104A4000D5390000C5390000B5390000B139000082
:104A5000AD390000553A0000753A0000953A000063
:104A6000353A0000853900006D3900000000000073
:104A700000000000E13A0000053B0000993B000007
:104A8000953B0000913B00008D3B0000593B00002E
:104A90006D3B0000553B00004D3B0000453B0000D6
:104AA0003D3B00002D3B00001D3B0000193B00007A
:104AB000153B0000BD3B0000DD3B0000FD3B00005E
:104AC0009D3B0000ED3A0000D53A000000000000D8
:104AD00000000000593C0000513C00004D3C00002B
:104AE000493C0000453C0000413C00003D3C0000CA
:104AF000D00BFF1FF8B500BFF8BC08BC9E4670473E
:104B0000014500003504000099080000192B000041
:0C4B1000B93A0000213C0000653C0000A8
:044B1C00F8B500BF29
:104B2000F8B5EFF30584A4F12503312B22D8DFE893
:104B300003F0632121212121212121212121212172
:104B400021212121211919212121219521212121F1
:104B500021212121212121868824409721212121E1
:104B6000212121192225654B20461B689847644B5B
:104B70001D60F8BD4FF0FF35F5E7624A136813601A
:104B8000D80300F18B80990300F18680DA0700F1E9
:104B900091809F0700F192801E0700F199805D07C8
:104BA00000F19C80180300F19D805903E2D5202577
:104BB000D9E7554A136813601A0775D4DF0669D41C
:104BC0005E0679D41D067BD498067DD4D90700F102
:104BD00081809A0700F188805F0700F187809E0539
:104BE00000F18680DD0500F18580580500F18480A4
:104BF0001905BFD51E25B6E7DFF82CE1434D444823
:104C00009EF800102B780278424F434E120442EA7D
:104C100003230B43FF2241498EF800202A70802590
:104C200002703D7008463570CB6000F089F805468B
:104C300000F082F8072896D100F07AF893E724254F
:104C400091E7374A13681360DA0429D49F041FD40C
:104C50009E062BD4DD068DD5212584E7232582E70A
:104C6000304A13681360DA071CD41F060ED4DE0620
:104C70001ED45D0726D4180728D499072CD49A0689
:104C80002ED45B067FF576AF15256CE705256AE720
:104C9000042568E70A2566E7012564E7002562E741
:104CA000032560E702255EE709255CE718255AE73A
:104CB000062558E7102556E70B2554E7112552E73E
:104CC0000C2550E707254EE70D254CE708254AE758
:104CD000122548E70F2546E70E2544E7132542E74E
:104CE000142540E719253EE716253CE717253AE746
:104CF0001B2538E71C2536E71D2534E7EC18FF1F78
:104D00000002FF1FA0A00440A0B0044006C007405E
:104D100007C0074008C0074009C00740DC18FF1F54
:104D2000A0900440A0C0044005C00740000000005F
:104D30005FF800F0A90900005FF800F0C509000065
:104D40005FF800F0D90A0000000000000819FF1FFA
:104D500001000000FFFFFFFF0A04090A080000002D
:104D60001201010102000040C0168304000201028A
:104D70000301000018034500690063006F006E0026
:104D80002000280056004900430029000902430082
:104D9000020100C0320904000001020201000524E2
:104DA0000010010524010101042402060524060067
:104DB000010705820310004009040100020A0000F7
:104DC00000070503024000000705840240000000C0
:104DD000160343004F004D00200053006500720091
:104DE000690061006C000000040309040C0300006A
:104DF00000000000000000000000000000000000B3
:104E0000000000000000000000000000BC0EFF1FBA
:104E1000240FFF1F8C0FFF1F000000000000000088
:104E20000000000000000000000000000000000082
:104E30000000000000000000000000000000000072
:104E40000000000000000000000000000000000062
:104E50000000000000000000000000000000000052
:104E60000000000000000000000000000000000042
:104E70000000000000000000000000000000000032
:104E80000000000000000000000000000000000022
:104E90000000000000000000000000000000000012
:104EA0000000000000000000000000000000000002
:104EB00001000000000000000E33CDAB34126DE69F
:104EC000ECDE05000B000000000000000000000008
:104ED00000000000000000000000000000000000D2
:104EE00000000000000000000000000000000000C2
:104EF00000000000000000000000000000000000B2
:104F000000000000000000000000000000000000A1
:10523000D00BFF1F0000000000000000FC0FFF1F4C
:10524000FC0FFF1F0410FF1F0410FF1F0C10FF1F97
:105250000C10FF1F1410FF1F1410FF1F1C10FF1F46
:105260001C10FF1F2410FF1F2410FF1F2C10FF1FF6
:105270002C10FF1F3410FF1F3410FF1F3C10FF1FA6
:105280003C10FF1F4410FF1F4410FF1F4C10FF1F56
:105290004C10FF1F5410FF1F5410FF1F5C10FF1F06
:1052A0005C10FF1F6410FF1F6410FF1F6C10FF1FB6
:1052B0006C10FF1F7410FF1F7410FF1F7C10FF1F66
:1052C0007C10FF1F8410FF1F8410FF1F8C10FF1F16
:1052D0008C10FF1F9410FF1F9410FF1F9C10FF1FC6
:1052E0009C10FF1FA410FF1FA410FF1FAC10FF1F76
:1052F000AC10FF1FB410FF1FB410FF1FBC10FF1F26
:10530000BC10FF1FC410FF1FC410FF1FCC10FF1FD5
:10531000CC10FF1FD410FF1FD410FF1FDC10FF1F85
:10532000DC10FF1FE410FF1FE410FF1FEC10FF1F35
:10533000EC10FF1FF410FF1FF410FF1FFC10FF1FE5
:10534000FC10FF1F0411FF1F0411FF1F0C11FF1F92
:105350000C11FF1F1411FF1F1411FF1F1C11FF1F41
:105360001C11FF1F2411FF1F2411FF1F2C11FF1FF1
:105370002C11FF1F3411FF1F3411FF1F3C11FF1FA1
:105380003C11FF1F4411FF1F4411FF1F4C11FF1F51
:105390004C11FF1F5411FF1F5411FF1F5C11FF1F01
:1053A0005C11FF1F6411FF1F6411FF1F6C11FF1FB1
:1053B0006C11FF1F7411FF1F7411FF1F7C11FF1F61
:1053C0007C11FF1F8411FF1F8411FF1F8C11FF1F11
:1053D0008C11FF1F9411FF1F9411FF1F9C11FF1FC1
:1053E0009C11FF1FA411FF1FA411FF1FAC11FF1F71
:1053F000AC11FF1FB411FF1FB411FF1FBC11FF1F21
:10540000BC11FF1FC411FF1FC411FF1FCC11FF1FD0
:10541000CC11FF1FD411FF1FD411FF1FDC11FF1F80
:10542000DC11FF1FE411FF1FE411FF1FEC11FF1F30
:10543000EC11FF1FF411FF1FF411FF1FFC11FF1FE0
:10544000FC11FF1F0412FF1F0412FF1F0C12FF1F8D
:105450000C12FF1F1412FF1F1412FF1F1C12FF1F3C
:105460001C12FF1F2412FF1F2412FF1F2C12FF1FEC
:105470002C12FF1F3412FF1F3412FF1F3C12FF1F9C
:105480003C12FF1F4412FF1F4412FF1F4C12FF1F4C
:105490004C12FF1F5412FF1F5412FF1F5C12FF1FFC
:1054A0005C12FF1F6412FF1F6412FF1F6C12FF1FAC
:1054B0006C12FF1F7412FF1F7412FF1F7C12FF1F5C
:1054C0007C12FF1F8412FF1F8412FF1F8C12FF1F0C
:1054D0008C12FF1F9412FF1F9412FF1F9C12FF1FBC
:1054E0009C12FF1FA412FF1FA412FF1FAC12FF1F6C
:1054F000AC12FF1FB412FF1FB412FF1FBC12FF1F1C
:10550000BC12FF1FC412FF1FC412FF1FCC12FF1FCB
:10551000CC12FF1FD412FF1FD412FF1FDC12FF1F7B
:10552000DC12FF1FE412FF1FE412FF1FEC12FF1F2B
:10553000EC12FF1FF412FF1FF412FF1FFC12FF1FDB
:10554000FC12FF1F0413FF1F0413FF1F0C13FF1F88
:105550000C13FF1F1413FF1F1413FF1F1C13FF1F37
:105560001C13FF1F2413FF1F2413FF1F2C13FF1FE7
:105570002C13FF1F3413FF1F3413FF1F3C13FF1F97
:105580003C13FF1F4413FF1F4413FF1F4C13FF1F47
:105590004C13FF1F5413FF1F5413FF1F5C13FF1FF7
:1055A0005C13FF1F6413FF1F6413FF1F6C13FF1FA7
:1055B0006C13FF1F7413FF1F7413FF1F7C13FF1F57
:1055C0007C13FF1F8413FF1F8413FF1F8C13FF1F07
:1055D0008C13FF1F9413FF1F9413FF1F9C13FF1FB7
:1055E0009C13FF1FA413FF1FA413FF1FAC13FF1F67
:1055F000AC13FF1FB413FF1FB413FF1FBC13FF1F17
:10560000BC13FF1FC413FF1FC413FF1FCC13FF1FC6
:10561000CC13FF1FD413FF1FD413FF1FDC13FF1F76
:10562000DC13FF1FE413FF1FE413FF1FEC13FF1F26
:10563000EC13FF1FF413FF1FF413FF1F0000020001
:04564000FFFFFFFF6A
:00000001FF
